{
  "_format": "hh-sol-artifact-1",
  "contractName": "TicketNFTGenerator",
  "sourceName": "contracts/TicketNFTGenerator.sol",
  "abi": [
    {
      "inputs": [
        {
          "internalType": "uint256",
          "name": "_maxSupply",
          "type": "uint256"
        },
        {
          "internalType": "uint256",
          "name": "_initialMintPrice",
          "type": "uint256"
        },
        {
          "internalType": "string",
          "name": "_urlCommon",
          "type": "string"
        },
        {
          "internalType": "string",
          "name": "_urlRare",
          "type": "string"
        },
        {
          "internalType": "string",
          "name": "_urlSuperRare",
          "type": "string"
        },
        {
          "internalType": "uint256",
          "name": "_upperLimitCommon",
          "type": "uint256"
        },
        {
          "internalType": "uint256",
          "name": "_upperLimitRare",
          "type": "uint256"
        },
        {
          "internalType": "uint64",
          "name": "_subscriptionId",
          "type": "uint64"
        },
        {
          "internalType": "address",
          "name": "_vrfCoordinator",
          "type": "address"
        },
        {
          "internalType": "bytes32",
          "name": "_keyHash",
          "type": "bytes32"
        }
      ],
      "stateMutability": "nonpayable",
      "type": "constructor"
    },
    {
      "inputs": [
        {
          "internalType": "address",
          "name": "have",
          "type": "address"
        },
        {
          "internalType": "address",
          "name": "want",
          "type": "address"
        }
      ],
      "name": "OnlyCoordinatorCanFulfill",
      "type": "error"
    },
    {
      "anonymous": false,
      "inputs": [
        {
          "indexed": true,
          "internalType": "address",
          "name": "owner",
          "type": "address"
        },
        {
          "indexed": true,
          "internalType": "address",
          "name": "approved",
          "type": "address"
        },
        {
          "indexed": true,
          "internalType": "uint256",
          "name": "tokenId",
          "type": "uint256"
        }
      ],
      "name": "Approval",
      "type": "event"
    },
    {
      "anonymous": false,
      "inputs": [
        {
          "indexed": true,
          "internalType": "address",
          "name": "owner",
          "type": "address"
        },
        {
          "indexed": true,
          "internalType": "address",
          "name": "operator",
          "type": "address"
        },
        {
          "indexed": false,
          "internalType": "bool",
          "name": "approved",
          "type": "bool"
        }
      ],
      "name": "ApprovalForAll",
      "type": "event"
    },
    {
      "anonymous": false,
      "inputs": [
        {
          "indexed": true,
          "internalType": "address",
          "name": "previousOwner",
          "type": "address"
        },
        {
          "indexed": true,
          "internalType": "address",
          "name": "newOwner",
          "type": "address"
        }
      ],
      "name": "OwnershipTransferred",
      "type": "event"
    },
    {
      "anonymous": false,
      "inputs": [
        {
          "indexed": false,
          "internalType": "address",
          "name": "account",
          "type": "address"
        }
      ],
      "name": "Paused",
      "type": "event"
    },
    {
      "anonymous": false,
      "inputs": [
        {
          "indexed": false,
          "internalType": "address",
          "name": "sender",
          "type": "address"
        },
        {
          "indexed": false,
          "internalType": "uint256",
          "name": "tokenId",
          "type": "uint256"
        },
        {
          "indexed": false,
          "internalType": "uint256",
          "name": "tokenCounter",
          "type": "uint256"
        },
        {
          "indexed": false,
          "internalType": "uint256",
          "name": "maxSupply",
          "type": "uint256"
        }
      ],
      "name": "TicketMinted",
      "type": "event"
    },
    {
      "anonymous": false,
      "inputs": [
        {
          "indexed": false,
          "internalType": "uint256",
          "name": "randomNumber",
          "type": "uint256"
        }
      ],
      "name": "TicketRandomnessGenerated",
      "type": "event"
    },
    {
      "anonymous": false,
      "inputs": [
        {
          "indexed": false,
          "internalType": "uint256",
          "name": "tokenId",
          "type": "uint256"
        },
        {
          "indexed": false,
          "internalType": "address",
          "name": "from",
          "type": "address"
        },
        {
          "indexed": false,
          "internalType": "address",
          "name": "to",
          "type": "address"
        }
      ],
      "name": "TicketSent",
      "type": "event"
    },
    {
      "anonymous": false,
      "inputs": [
        {
          "indexed": false,
          "internalType": "uint256",
          "name": "tokenId",
          "type": "uint256"
        },
        {
          "indexed": false,
          "internalType": "string",
          "name": "tokenUrl",
          "type": "string"
        }
      ],
      "name": "TicketToShow",
      "type": "event"
    },
    {
      "anonymous": false,
      "inputs": [
        {
          "indexed": true,
          "internalType": "address",
          "name": "from",
          "type": "address"
        },
        {
          "indexed": true,
          "internalType": "address",
          "name": "to",
          "type": "address"
        },
        {
          "indexed": true,
          "internalType": "uint256",
          "name": "tokenId",
          "type": "uint256"
        }
      ],
      "name": "Transfer",
      "type": "event"
    },
    {
      "anonymous": false,
      "inputs": [
        {
          "indexed": false,
          "internalType": "address",
          "name": "account",
          "type": "address"
        }
      ],
      "name": "Unpaused",
      "type": "event"
    },
    {
      "inputs": [
        {
          "internalType": "address",
          "name": "to",
          "type": "address"
        },
        {
          "internalType": "uint256",
          "name": "tokenId",
          "type": "uint256"
        }
      ],
      "name": "approve",
      "outputs": [],
      "stateMutability": "nonpayable",
      "type": "function"
    },
    {
      "inputs": [
        {
          "internalType": "address",
          "name": "owner",
          "type": "address"
        }
      ],
      "name": "balanceOf",
      "outputs": [
        {
          "internalType": "uint256",
          "name": "",
          "type": "uint256"
        }
      ],
      "stateMutability": "view",
      "type": "function"
    },
    {
      "inputs": [
        {
          "internalType": "uint256",
          "name": "tokenId",
          "type": "uint256"
        }
      ],
      "name": "getApproved",
      "outputs": [
        {
          "internalType": "address",
          "name": "",
          "type": "address"
        }
      ],
      "stateMutability": "view",
      "type": "function"
    },
    {
      "inputs": [],
      "name": "getBalance",
      "outputs": [
        {
          "internalType": "uint256",
          "name": "",
          "type": "uint256"
        }
      ],
      "stateMutability": "view",
      "type": "function"
    },
    {
      "inputs": [],
      "name": "getMaxSupply",
      "outputs": [
        {
          "internalType": "uint256",
          "name": "",
          "type": "uint256"
        }
      ],
      "stateMutability": "view",
      "type": "function"
    },
    {
      "inputs": [],
      "name": "getMintPrice",
      "outputs": [
        {
          "internalType": "uint256",
          "name": "",
          "type": "uint256"
        }
      ],
      "stateMutability": "view",
      "type": "function"
    },
    {
      "inputs": [],
      "name": "getRandomNumber",
      "outputs": [
        {
          "internalType": "uint256",
          "name": "",
          "type": "uint256"
        }
      ],
      "stateMutability": "view",
      "type": "function"
    },
    {
      "inputs": [],
      "name": "getTokenCounter",
      "outputs": [
        {
          "internalType": "uint256",
          "name": "",
          "type": "uint256"
        }
      ],
      "stateMutability": "view",
      "type": "function"
    },
    {
      "inputs": [
        {
          "internalType": "uint256",
          "name": "_tokenId",
          "type": "uint256"
        },
        {
          "internalType": "address",
          "name": "_to",
          "type": "address"
        }
      ],
      "name": "givesToken",
      "outputs": [],
      "stateMutability": "nonpayable",
      "type": "function"
    },
    {
      "inputs": [
        {
          "internalType": "address",
          "name": "owner",
          "type": "address"
        },
        {
          "internalType": "address",
          "name": "operator",
          "type": "address"
        }
      ],
      "name": "isApprovedForAll",
      "outputs": [
        {
          "internalType": "bool",
          "name": "",
          "type": "bool"
        }
      ],
      "stateMutability": "view",
      "type": "function"
    },
    {
      "inputs": [
        {
          "internalType": "uint256",
          "name": "_tokenId",
          "type": "uint256"
        }
      ],
      "name": "isTokenOwned",
      "outputs": [
        {
          "internalType": "bool",
          "name": "",
          "type": "bool"
        }
      ],
      "stateMutability": "view",
      "type": "function"
    },
    {
      "inputs": [],
      "name": "mintPrice",
      "outputs": [
        {
          "internalType": "uint256",
          "name": "",
          "type": "uint256"
        }
      ],
      "stateMutability": "view",
      "type": "function"
    },
    {
      "inputs": [],
      "name": "mintTicket",
      "outputs": [],
      "stateMutability": "payable",
      "type": "function"
    },
    {
      "inputs": [],
      "name": "name",
      "outputs": [
        {
          "internalType": "string",
          "name": "",
          "type": "string"
        }
      ],
      "stateMutability": "view",
      "type": "function"
    },
    {
      "inputs": [],
      "name": "owner",
      "outputs": [
        {
          "internalType": "address",
          "name": "",
          "type": "address"
        }
      ],
      "stateMutability": "view",
      "type": "function"
    },
    {
      "inputs": [
        {
          "internalType": "uint256",
          "name": "tokenId",
          "type": "uint256"
        }
      ],
      "name": "ownerOf",
      "outputs": [
        {
          "internalType": "address",
          "name": "",
          "type": "address"
        }
      ],
      "stateMutability": "view",
      "type": "function"
    },
    {
      "inputs": [],
      "name": "pause",
      "outputs": [],
      "stateMutability": "nonpayable",
      "type": "function"
    },
    {
      "inputs": [],
      "name": "paused",
      "outputs": [
        {
          "internalType": "bool",
          "name": "",
          "type": "bool"
        }
      ],
      "stateMutability": "view",
      "type": "function"
    },
    {
      "inputs": [
        {
          "internalType": "uint256",
          "name": "requestId",
          "type": "uint256"
        },
        {
          "internalType": "uint256[]",
          "name": "randomWords",
          "type": "uint256[]"
        }
      ],
      "name": "rawFulfillRandomWords",
      "outputs": [],
      "stateMutability": "nonpayable",
      "type": "function"
    },
    {
      "inputs": [],
      "name": "receiveMoney",
      "outputs": [],
      "stateMutability": "payable",
      "type": "function"
    },
    {
      "inputs": [],
      "name": "renounceOwnership",
      "outputs": [],
      "stateMutability": "nonpayable",
      "type": "function"
    },
    {
      "inputs": [],
      "name": "requestRandomWords",
      "outputs": [],
      "stateMutability": "nonpayable",
      "type": "function"
    },
    {
      "inputs": [
        {
          "internalType": "address",
          "name": "from",
          "type": "address"
        },
        {
          "internalType": "address",
          "name": "to",
          "type": "address"
        },
        {
          "internalType": "uint256",
          "name": "tokenId",
          "type": "uint256"
        }
      ],
      "name": "safeTransferFrom",
      "outputs": [],
      "stateMutability": "nonpayable",
      "type": "function"
    },
    {
      "inputs": [
        {
          "internalType": "address",
          "name": "from",
          "type": "address"
        },
        {
          "internalType": "address",
          "name": "to",
          "type": "address"
        },
        {
          "internalType": "uint256",
          "name": "tokenId",
          "type": "uint256"
        },
        {
          "internalType": "bytes",
          "name": "data",
          "type": "bytes"
        }
      ],
      "name": "safeTransferFrom",
      "outputs": [],
      "stateMutability": "nonpayable",
      "type": "function"
    },
    {
      "inputs": [
        {
          "internalType": "address",
          "name": "_to",
          "type": "address"
        },
        {
          "internalType": "uint256",
          "name": "_amount",
          "type": "uint256"
        }
      ],
      "name": "sendMoney",
      "outputs": [],
      "stateMutability": "nonpayable",
      "type": "function"
    },
    {
      "inputs": [
        {
          "internalType": "address",
          "name": "operator",
          "type": "address"
        },
        {
          "internalType": "bool",
          "name": "approved",
          "type": "bool"
        }
      ],
      "name": "setApprovalForAll",
      "outputs": [],
      "stateMutability": "nonpayable",
      "type": "function"
    },
    {
      "inputs": [
        {
          "internalType": "uint256",
          "name": "_maxSupply",
          "type": "uint256"
        }
      ],
      "name": "setMaxSupply",
      "outputs": [],
      "stateMutability": "nonpayable",
      "type": "function"
    },
    {
      "inputs": [
        {
          "internalType": "uint256",
          "name": "_mintPrice",
          "type": "uint256"
        }
      ],
      "name": "setMintPrice",
      "outputs": [],
      "stateMutability": "nonpayable",
      "type": "function"
    },
    {
      "inputs": [
        {
          "internalType": "bytes4",
          "name": "interfaceId",
          "type": "bytes4"
        }
      ],
      "name": "supportsInterface",
      "outputs": [
        {
          "internalType": "bool",
          "name": "",
          "type": "bool"
        }
      ],
      "stateMutability": "view",
      "type": "function"
    },
    {
      "inputs": [],
      "name": "symbol",
      "outputs": [
        {
          "internalType": "string",
          "name": "",
          "type": "string"
        }
      ],
      "stateMutability": "view",
      "type": "function"
    },
    {
      "inputs": [
        {
          "internalType": "uint256",
          "name": "index",
          "type": "uint256"
        }
      ],
      "name": "tokenByIndex",
      "outputs": [
        {
          "internalType": "uint256",
          "name": "",
          "type": "uint256"
        }
      ],
      "stateMutability": "view",
      "type": "function"
    },
    {
      "inputs": [
        {
          "internalType": "address",
          "name": "owner",
          "type": "address"
        },
        {
          "internalType": "uint256",
          "name": "index",
          "type": "uint256"
        }
      ],
      "name": "tokenOfOwnerByIndex",
      "outputs": [
        {
          "internalType": "uint256",
          "name": "",
          "type": "uint256"
        }
      ],
      "stateMutability": "view",
      "type": "function"
    },
    {
      "inputs": [
        {
          "internalType": "uint256",
          "name": "tokenId",
          "type": "uint256"
        }
      ],
      "name": "tokenURI",
      "outputs": [
        {
          "internalType": "string",
          "name": "",
          "type": "string"
        }
      ],
      "stateMutability": "view",
      "type": "function"
    },
    {
      "inputs": [
        {
          "internalType": "uint256",
          "name": "_tokenId",
          "type": "uint256"
        }
      ],
      "name": "tokenURIIfOwned",
      "outputs": [
        {
          "internalType": "string",
          "name": "",
          "type": "string"
        }
      ],
      "stateMutability": "view",
      "type": "function"
    },
    {
      "inputs": [],
      "name": "totalSupply",
      "outputs": [
        {
          "internalType": "uint256",
          "name": "",
          "type": "uint256"
        }
      ],
      "stateMutability": "view",
      "type": "function"
    },
    {
      "inputs": [
        {
          "internalType": "address",
          "name": "from",
          "type": "address"
        },
        {
          "internalType": "address",
          "name": "to",
          "type": "address"
        },
        {
          "internalType": "uint256",
          "name": "tokenId",
          "type": "uint256"
        }
      ],
      "name": "transferFrom",
      "outputs": [],
      "stateMutability": "nonpayable",
      "type": "function"
    },
    {
      "inputs": [
        {
          "internalType": "address",
          "name": "newOwner",
          "type": "address"
        }
      ],
      "name": "transferOwnership",
      "outputs": [],
      "stateMutability": "nonpayable",
      "type": "function"
    },
    {
      "inputs": [],
      "name": "unPause",
      "outputs": [],
      "stateMutability": "nonpayable",
      "type": "function"
    },
    {
      "stateMutability": "payable",
      "type": "receive"
    }
  ],
  "bytecode": "0x60a06040523480156200001157600080fd5b506040516200578f3803806200578f833981810160405281019062000037919062000758565b601160000160089054906101000a900473ffffffffffffffffffffffffffffffffffffffff166040518060400160405280600981526020017f5469636b65744e465400000000000000000000000000000000000000000000008152506040518060400160405280600381526020017f544b5400000000000000000000000000000000000000000000000000000000008152508160009080519060200190620000e1929190620005ce565b508060019080519060200190620000fa929190620005ce565b5050506200011d620001116200043460201b60201c565b6200043c60201b60201c565b6000600b60146101000a81548160ff0219169083151502179055508073ffffffffffffffffffffffffffffffffffffffff1660808173ffffffffffffffffffffffffffffffffffffffff1660601b815250505089601481905550886015819055506040518060a0016040528089815260200188815260200187815260200186815260200185815250600c6000820151816000019080519060200190620001c5929190620005ce565b506020820151816001019080519060200190620001e4929190620005ce565b50604082015181600201908051906020019062000203929190620005ce565b5060608201518160030155608082015181600401559050506040518060c001604052808467ffffffffffffffff1681526020018373ffffffffffffffffffffffffffffffffffffffff168152602001828152602001622625a063ffffffff168152602001600361ffff168152602001600163ffffffff16815250601160008201518160000160006101000a81548167ffffffffffffffff021916908367ffffffffffffffff16021790555060208201518160000160086101000a81548173ffffffffffffffffffffffffffffffffffffffff021916908373ffffffffffffffffffffffffffffffffffffffff1602179055506040820151816001015560608201518160020160006101000a81548163ffffffff021916908363ffffffff16021790555060808201518160020160046101000a81548161ffff021916908361ffff16021790555060a08201518160020160066101000a81548163ffffffff021916908363ffffffff160217905550905050601160000160089054906101000a900473ffffffffffffffffffffffffffffffffffffffff16601a60006101000a81548173ffffffffffffffffffffffffffffffffffffffff021916908373ffffffffffffffffffffffffffffffffffffffff160217905550620004246040518060400160405280601581526020017f436f6e747261637420696e7374616e74696174656400000000000000000000008152506200050260201b620016951760201c565b5050505050505050505062000b74565b600033905090565b6000600b60009054906101000a900473ffffffffffffffffffffffffffffffffffffffff16905081600b60006101000a81548173ffffffffffffffffffffffffffffffffffffffff021916908373ffffffffffffffffffffffffffffffffffffffff1602179055508173ffffffffffffffffffffffffffffffffffffffff168173ffffffffffffffffffffffffffffffffffffffff167f8be0079c531659141344cd1fd0a4f28419497f9722a3daafe3b4186f6b6457e060405160405180910390a35050565b620005a281604051602401620005199190620008ec565b6040516020818303038152906040527f41304fac000000000000000000000000000000000000000000000000000000007bffffffffffffffffffffffffffffffffffffffffffffffffffffffff19166020820180517bffffffffffffffffffffffffffffffffffffffffffffffffffffffff8381831617835250505050620005a560201b60201c565b50565b60008151905060006a636f6e736f6c652e6c6f679050602083016000808483855afa5050505050565b828054620005dc9062000a1d565b90600052602060002090601f0160209004810192826200060057600085556200064c565b82601f106200061b57805160ff19168380011785556200064c565b828001600101855582156200064c579182015b828111156200064b5782518255916020019190600101906200062e565b5b5090506200065b91906200065f565b5090565b5b808211156200067a57600081600090555060010162000660565b5090565b6000620006956200068f8462000939565b62000910565b905082815260208101848484011115620006b457620006b362000aec565b5b620006c1848285620009e7565b509392505050565b600081519050620006da8162000b0c565b92915050565b600081519050620006f18162000b26565b92915050565b600082601f8301126200070f576200070e62000ae7565b5b8151620007218482602086016200067e565b91505092915050565b6000815190506200073b8162000b40565b92915050565b600081519050620007528162000b5a565b92915050565b6000806000806000806000806000806101408b8d0312156200077f576200077e62000af6565b5b60006200078f8d828e016200072a565b9a50506020620007a28d828e016200072a565b99505060408b015167ffffffffffffffff811115620007c657620007c562000af1565b5b620007d48d828e01620006f7565b98505060608b015167ffffffffffffffff811115620007f857620007f762000af1565b5b620008068d828e01620006f7565b97505060808b015167ffffffffffffffff8111156200082a576200082962000af1565b5b620008388d828e01620006f7565b96505060a06200084b8d828e016200072a565b95505060c06200085e8d828e016200072a565b94505060e0620008718d828e0162000741565b935050610100620008858d828e01620006c9565b925050610120620008998d828e01620006e0565b9150509295989b9194979a5092959850565b6000620008b8826200096f565b620008c481856200097a565b9350620008d6818560208601620009e7565b620008e18162000afb565b840191505092915050565b60006020820190508181036000830152620009088184620008ab565b905092915050565b60006200091c6200092f565b90506200092a828262000a53565b919050565b6000604051905090565b600067ffffffffffffffff82111562000957576200095662000ab8565b5b620009628262000afb565b9050602081019050919050565b600081519050919050565b600082825260208201905092915050565b60006200099882620009a9565b9050919050565b6000819050919050565b600073ffffffffffffffffffffffffffffffffffffffff82169050919050565b6000819050919050565b600067ffffffffffffffff82169050919050565b60005b8381101562000a07578082015181840152602081019050620009ea565b8381111562000a17576000848401525b50505050565b6000600282049050600182168062000a3657607f821691505b6020821081141562000a4d5762000a4c62000a89565b5b50919050565b62000a5e8262000afb565b810181811067ffffffffffffffff8211171562000a805762000a7f62000ab8565b5b80604052505050565b7f4e487b7100000000000000000000000000000000000000000000000000000000600052602260045260246000fd5b7f4e487b7100000000000000000000000000000000000000000000000000000000600052604160045260246000fd5b600080fd5b600080fd5b600080fd5b600080fd5b6000601f19601f8301169050919050565b62000b17816200098b565b811462000b2357600080fd5b50565b62000b31816200099f565b811462000b3d57600080fd5b50565b62000b4b81620009c9565b811462000b5757600080fd5b50565b62000b6581620009d3565b811462000b7157600080fd5b50565b60805160601c614bf562000b9a60003960008181610b120152610b660152614bf56000f3fe6080604052600436106102295760003560e01c806370a0823111610123578063abc6184c116100ab578063e985e9c51161006f578063e985e9c5146107dc578063ee4ae2c914610819578063f2fde38b14610842578063f4a0a5281461086b578063f7b188a51461089457610238565b8063abc6184c146106f7578063b88d4fde14610734578063c87b56dd1461075d578063dbdff2c11461079a578063e0c86289146107c557610238565b80638da5cb5b116100f25780638da5cb5b1461061057806395d89b411461063b578063a188342f14610666578063a22cb465146106a3578063a7f93ebd146106cc57610238565b806370a082311461057c578063715018a6146105b95780638456cb59146105d0578063889e47a7146105e757610238565b806342842e0e116101b15780636352211e116101755780636352211e146104b65780636817c76c146104f35780636d26ec181461051e5780636e02007d146105285780636f8b44b01461055357610238565b806342842e0e146103f05780634c0f38c2146104195780634f6ccce714610444578063573c80fa146104815780635c975abb1461048b57610238565b806312065fe0116101f857806312065fe01461030b57806318160ddd146103365780631fe543e31461036157806323b872dd1461038a5780632f745c59146103b357610238565b806301ffc9a71461023d57806306fdde031461027a578063081812fc146102a5578063095ea7b3146102e257610238565b36610238576102366108ab565b005b600080fd5b34801561024957600080fd5b50610264600480360381019061025f91906136e7565b6108ef565b6040516102719190613d1b565b60405180910390f35b34801561028657600080fd5b5061028f610901565b60405161029c9190613d89565b60405180910390f35b3480156102b157600080fd5b506102cc60048036038101906102c79190613741565b610993565b6040516102d99190613c46565b60405180910390f35b3480156102ee57600080fd5b50610309600480360381019061030491906136a7565b6109d9565b005b34801561031757600080fd5b50610320610af1565b60405161032d91906140b9565b60405180910390f35b34801561034257600080fd5b5061034b610b03565b60405161035891906140b9565b60405180910390f35b34801561036d57600080fd5b50610388600480360381019061038391906137db565b610b10565b005b34801561039657600080fd5b506103b160048036038101906103ac9190613591565b610bd0565b005b3480156103bf57600080fd5b506103da60048036038101906103d591906136a7565b610c30565b6040516103e791906140b9565b60405180910390f35b3480156103fc57600080fd5b5061041760048036038101906104129190613591565b610cd5565b005b34801561042557600080fd5b5061042e610cf5565b60405161043b91906140b9565b60405180910390f35b34801561045057600080fd5b5061046b60048036038101906104669190613741565b610d07565b60405161047891906140b9565b60405180910390f35b610489610d78565b005b34801561049757600080fd5b506104a0610f3d565b6040516104ad9190613d1b565b60405180910390f35b3480156104c257600080fd5b506104dd60048036038101906104d89190613741565b610f54565b6040516104ea9190613c46565b60405180910390f35b3480156104ff57600080fd5b50610508611006565b60405161051591906140b9565b60405180910390f35b6105266108ab565b005b34801561053457600080fd5b5061053d61100c565b60405161054a91906140b9565b60405180910390f35b34801561055f57600080fd5b5061057a60048036038101906105759190613741565b611025565b005b34801561058857600080fd5b506105a3600480360381019061059e9190613524565b611083565b6040516105b091906140b9565b60405180910390f35b3480156105c557600080fd5b506105ce61113b565b005b3480156105dc57600080fd5b506105e561114f565b005b3480156105f357600080fd5b5061060e6004803603810190610609919061379b565b611161565b005b34801561061c57600080fd5b506106256111ab565b6040516106329190613c46565b60405180910390f35b34801561064757600080fd5b506106506111d5565b60405161065d9190613d89565b60405180910390f35b34801561067257600080fd5b5061068d60048036038101906106889190613741565b611267565b60405161069a9190613d89565b60405180910390f35b3480156106af57600080fd5b506106ca60048036038101906106c59190613667565b61129f565b005b3480156106d857600080fd5b506106e16112b5565b6040516106ee91906140b9565b60405180910390f35b34801561070357600080fd5b5061071e60048036038101906107199190613741565b6112c7565b60405161072b9190613d1b565b60405180910390f35b34801561074057600080fd5b5061075b600480360381019061075691906135e4565b6112da565b005b34801561076957600080fd5b50610784600480360381019061077f9190613741565b61133c565b6040516107919190613d89565b60405180910390f35b3480156107a657600080fd5b506107af61134e565b6040516107bc91906140b9565b60405180910390f35b3480156107d157600080fd5b506107da61139d565b005b3480156107e857600080fd5b5061080360048036038101906107fe9190613551565b611506565b6040516108109190613d1b565b60405180910390f35b34801561082557600080fd5b50610840600480360381019061083b91906136a7565b61159a565b005b34801561084e57600080fd5b5061086960048036038101906108649190613524565b6115ed565b005b34801561087757600080fd5b50610892600480360381019061088d9190613741565b611671565b005b3480156108a057600080fd5b506108a9611683565b005b6017546108c36017543461172e90919063ffffffff16565b10156108d2576108d161445a565b5b6108e73460175461172e90919063ffffffff16565b601781905550565b60006108fa82611744565b9050919050565b6060600080546109109061437d565b80601f016020809104026020016040519081016040528092919081815260200182805461093c9061437d565b80156109895780601f1061095e57610100808354040283529160200191610989565b820191906000526020600020905b81548152906001019060200180831161096c57829003601f168201915b5050505050905090565b600061099e826117be565b6004600083815260200190815260200160002060009054906101000a900473ffffffffffffffffffffffffffffffffffffffff169050919050565b60006109e482610f54565b90508073ffffffffffffffffffffffffffffffffffffffff168373ffffffffffffffffffffffffffffffffffffffff161415610a55576040517f08c379a0000000000000000000000000000000000000000000000000000000008152600401610a4c90614039565b60405180910390fd5b8073ffffffffffffffffffffffffffffffffffffffff16610a74611809565b73ffffffffffffffffffffffffffffffffffffffff161480610aa35750610aa281610a9d611809565b611506565b5b610ae2576040517f08c379a0000000000000000000000000000000000000000000000000000000008152600401610ad990613fb9565b60405180910390fd5b610aec8383611811565b505050565b6000610afb6118ca565b601754905090565b6000600980549050905090565b7f000000000000000000000000000000000000000000000000000000000000000073ffffffffffffffffffffffffffffffffffffffff163373ffffffffffffffffffffffffffffffffffffffff1614610bc257337f00000000000000000000000000000000000000000000000000000000000000006040517f1cf993f4000000000000000000000000000000000000000000000000000000008152600401610bb9929190613c61565b60405180910390fd5b610bcc8282611948565b5050565b610be1610bdb611809565b82611a8f565b610c20576040517f08c379a0000000000000000000000000000000000000000000000000000000008152600401610c1790614099565b60405180910390fd5b610c2b838383611b24565b505050565b6000610c3b83611083565b8210610c7c576040517f08c379a0000000000000000000000000000000000000000000000000000000008152600401610c7390613e39565b60405180910390fd5b600760008473ffffffffffffffffffffffffffffffffffffffff1673ffffffffffffffffffffffffffffffffffffffff168152602001908152602001600020600083815260200190815260200160002054905092915050565b610cf0838383604051806020016040528060008152506112da565b505050565b6000610cff611d8b565b601454905090565b6000610d11610b03565b8210610d52576040517f08c379a0000000000000000000000000000000000000000000000000000000008152600401610d4990614059565b60405180910390fd5b60098281548110610d6657610d65614545565b5b90600052602060002001549050919050565b610d80611d8b565b601554341015610dc5576040517f08c379a0000000000000000000000000000000000000000000000000000000008152600401610dbc90613ed9565b60405180910390fd5b6000610dd16016611dd5565b9050610df6604051806060016040528060258152602001614b9b602591398233611de3565b610e003382611e82565b600080601c60003373ffffffffffffffffffffffffffffffffffffffff1673ffffffffffffffffffffffffffffffffffffffff1681526020019081526020016000205414610e8b57601c60003373ffffffffffffffffffffffffffffffffffffffff1673ffffffffffffffffffffffffffffffffffffffff1681526020019081526020016000205490505b610ea582610ea0610e9b84611ea0565b611ec2565b6120b0565b610eaf6016612124565b610eb761213a565b610ef86040518060400160405280600e81526020017f6d696e7465644e6674733a20257300000000000000000000000000000000000081525060185461219e565b7f64bd16642eed00863590d7320e06c0f31bb0468a971feede4e13313e3b2792243383601854601454604051610f319493929190613cd6565b60405180910390a15050565b6000600b60149054906101000a900460ff16905090565b6000806002600084815260200190815260200160002060009054906101000a900473ffffffffffffffffffffffffffffffffffffffff169050600073ffffffffffffffffffffffffffffffffffffffff168173ffffffffffffffffffffffffffffffffffffffff161415610ffd576040517f08c379a0000000000000000000000000000000000000000000000000000000008152600401610ff490614019565b60405180910390fd5b80915050919050565b60155481565b6000611016611d8b565b6110206016611dd5565b905090565b61102d611d8b565b6110356118ca565b6014548111611079576040517f08c379a000000000000000000000000000000000000000000000000000000000815260040161107090614079565b60405180910390fd5b8060148190555050565b60008073ffffffffffffffffffffffffffffffffffffffff168273ffffffffffffffffffffffffffffffffffffffff1614156110f4576040517f08c379a00000000000000000000000000000000000000000000000000000000081526004016110eb90613f79565b60405180910390fd5b600360008373ffffffffffffffffffffffffffffffffffffffff1673ffffffffffffffffffffffffffffffffffffffff168152602001908152602001600020549050919050565b6111436118ca565b61114d600061223a565b565b6111576118ca565b61115f612300565b565b61116c338284610bd0565b7fdba6731bbbfcff209246a4aee1d833836d6766f6515735cda63c0170318fc05182338360405161119f939291906140d4565b60405180910390a15050565b6000600b60009054906101000a900473ffffffffffffffffffffffffffffffffffffffff16905090565b6060600180546111e49061437d565b80601f01602080910402602001604051908101604052809291908181526020018280546112109061437d565b801561125d5780601f106112325761010080835404028352916020019161125d565b820191906000526020600020905b81548152906001019060200180831161124057829003601f168201915b5050505050905090565b6060611272826112c7565b156112875761128082612363565b905061129a565b6040518060200160405280600081525090505b919050565b6112b16112aa611809565b8383612476565b5050565b60006112bf611d8b565b601554905090565b60006112d33383611a8f565b9050919050565b6112eb6112e5611809565b83611a8f565b61132a576040517f08c379a000000000000000000000000000000000000000000000000000000000815260040161132190614099565b60405180910390fd5b611336848484846125e3565b50505050565b606061134782612363565b9050919050565b6000611398601c60003373ffffffffffffffffffffffffffffffffffffffff1673ffffffffffffffffffffffffffffffffffffffff16815260200190815260200160002054611ea0565b905090565b6000601a60009054906101000a900473ffffffffffffffffffffffffffffffffffffffff1673ffffffffffffffffffffffffffffffffffffffff16635d3b1d30601160010154601160000160009054906101000a900467ffffffffffffffff16601160020160049054906101000a900461ffff16601160020160009054906101000a900463ffffffff16601160020160069054906101000a900463ffffffff166040518663ffffffff1660e01b815260040161145d959493929190613d36565b602060405180830381600087803b15801561147757600080fd5b505af115801561148b573d6000803e3d6000fd5b505050506040513d601f19601f820116820180604052508101906114af919061376e565b905033601b600083815260200190815260200160002060006101000a81548173ffffffffffffffffffffffffffffffffffffffff021916908373ffffffffffffffffffffffffffffffffffffffff16021790555050565b6000600560008473ffffffffffffffffffffffffffffffffffffffff1673ffffffffffffffffffffffffffffffffffffffff16815260200190815260200160002060008373ffffffffffffffffffffffffffffffffffffffff1673ffffffffffffffffffffffffffffffffffffffff16815260200190815260200160002060009054906101000a900460ff16905092915050565b6115a26118ca565b8173ffffffffffffffffffffffffffffffffffffffff166108fc829081150290604051600060405180830381858888f193505050501580156115e8573d6000803e3d6000fd5b505050565b6115f56118ca565b600073ffffffffffffffffffffffffffffffffffffffff168173ffffffffffffffffffffffffffffffffffffffff161415611665576040517f08c379a000000000000000000000000000000000000000000000000000000000815260040161165c90613e79565b60405180910390fd5b61166e8161223a565b50565b6116796118ca565b8060158190555050565b61168b6118ca565b61169361263f565b565b61172b816040516024016116a99190613d89565b6040516020818303038152906040527f41304fac000000000000000000000000000000000000000000000000000000007bffffffffffffffffffffffffffffffffffffffffffffffffffffffff19166020820180517bffffffffffffffffffffffffffffffffffffffffffffffffffffffff83818316178352505050506126a2565b50565b6000818361173c91906141d0565b905092915050565b60007f780e9d63000000000000000000000000000000000000000000000000000000007bffffffffffffffffffffffffffffffffffffffffffffffffffffffff1916827bffffffffffffffffffffffffffffffffffffffffffffffffffffffff191614806117b757506117b6826126cb565b5b9050919050565b6117c7816127ad565b611806576040517f08c379a00000000000000000000000000000000000000000000000000000000081526004016117fd90614019565b60405180910390fd5b50565b600033905090565b816004600083815260200190815260200160002060006101000a81548173ffffffffffffffffffffffffffffffffffffffff021916908373ffffffffffffffffffffffffffffffffffffffff160217905550808273ffffffffffffffffffffffffffffffffffffffff1661188483610f54565b73ffffffffffffffffffffffffffffffffffffffff167f8c5be1e5ebec7d5bd14f71427d1e84f3dd0314c0f7b2291e5b200ac8c7c3b92560405160405180910390a45050565b6118d2611809565b73ffffffffffffffffffffffffffffffffffffffff166118f06111ab565b73ffffffffffffffffffffffffffffffffffffffff1614611946576040517f08c379a000000000000000000000000000000000000000000000000000000000815260040161193d90613ff9565b60405180910390fd5b565b61196c8160008151811061195f5761195e614545565b5b6020026020010151611ea0565b601c6000601b600086815260200190815260200160002060009054906101000a900473ffffffffffffffffffffffffffffffffffffffff1673ffffffffffffffffffffffffffffffffffffffff1673ffffffffffffffffffffffffffffffffffffffff168152602001908152602001600020819055507f27cdc73581019b63ea17e8e814d013ccc079e6551c34120310e50c419f3b8115601c6000601b600086815260200190815260200160002060009054906101000a900473ffffffffffffffffffffffffffffffffffffffff1673ffffffffffffffffffffffffffffffffffffffff1673ffffffffffffffffffffffffffffffffffffffff16815260200190815260200160002054604051611a8391906140b9565b60405180910390a15050565b600080611a9b83610f54565b90508073ffffffffffffffffffffffffffffffffffffffff168473ffffffffffffffffffffffffffffffffffffffff161480611add5750611adc8185611506565b5b80611b1b57508373ffffffffffffffffffffffffffffffffffffffff16611b0384610993565b73ffffffffffffffffffffffffffffffffffffffff16145b91505092915050565b8273ffffffffffffffffffffffffffffffffffffffff16611b4482610f54565b73ffffffffffffffffffffffffffffffffffffffff1614611b9a576040517f08c379a0000000000000000000000000000000000000000000000000000000008152600401611b9190613e99565b60405180910390fd5b600073ffffffffffffffffffffffffffffffffffffffff168273ffffffffffffffffffffffffffffffffffffffff161415611c0a576040517f08c379a0000000000000000000000000000000000000000000000000000000008152600401611c0190613ef9565b60405180910390fd5b611c15838383612819565b611c20600082611811565b6001600360008573ffffffffffffffffffffffffffffffffffffffff1673ffffffffffffffffffffffffffffffffffffffff1681526020019081526020016000206000828254611c709190614257565b925050819055506001600360008473ffffffffffffffffffffffffffffffffffffffff1673ffffffffffffffffffffffffffffffffffffffff1681526020019081526020016000206000828254611cc791906141d0565b92505081905550816002600083815260200190815260200160002060006101000a81548173ffffffffffffffffffffffffffffffffffffffff021916908373ffffffffffffffffffffffffffffffffffffffff160217905550808273ffffffffffffffffffffffffffffffffffffffff168473ffffffffffffffffffffffffffffffffffffffff167fddf252ad1be2c89b69c2b068fc378daa952ba7f163c4a11628f55a4df523b3ef60405160405180910390a4611d86838383612829565b505050565b611d93610f3d565b15611dd3576040517f08c379a0000000000000000000000000000000000000000000000000000000008152600401611dca90613f59565b60405180910390fd5b565b600081600001549050919050565b611e7d838383604051602401611dfb93929190613ddb565b6040516020818303038152906040527fe3849f79000000000000000000000000000000000000000000000000000000007bffffffffffffffffffffffffffffffffffffffffffffffffffffffff19166020820180517bffffffffffffffffffffffffffffffffffffffffffffffffffffffff83818316178352505050506126a2565b505050565b611e9c82826040518060200160405280600081525061282e565b5050565b60006001606483611eb19190614429565b611ebb91906141d0565b9050919050565b6060600c600301548210158015611ede5750600c600401548211155b15611f7857600c6001018054611ef39061437d565b80601f0160208091040260200160405190810160405280929190818152602001828054611f1f9061437d565b8015611f6c5780601f10611f4157610100808354040283529160200191611f6c565b820191906000526020600020905b815481529060010190602001808311611f4f57829003601f168201915b505050505090506120ab565b600c6004015482111561201a57600c6002018054611f959061437d565b80601f0160208091040260200160405190810160405280929190818152602001828054611fc19061437d565b801561200e5780601f10611fe35761010080835404028352916020019161200e565b820191906000526020600020905b815481529060010190602001808311611ff157829003601f168201915b505050505090506120ab565b600c600001805461202a9061437d565b80601f01602080910402602001604051908101604052809291908181526020018280546120569061437d565b80156120a35780601f10612078576101008083540402835291602001916120a3565b820191906000526020600020905b81548152906001019060200180831161208657829003601f168201915b505050505090505b919050565b6120b9826127ad565b6120f8576040517f08c379a00000000000000000000000000000000000000000000000000000000081526004016120ef90613f99565b60405180910390fd5b8060066000848152602001908152602001600020908051906020019061211f9291906132f5565b505050565b6001816000016000828254019250508190555050565b60145460185410612180576040517f08c379a000000000000000000000000000000000000000000000000000000000815260040161217790613f39565b60405180910390fd5b612196600160185461172e90919063ffffffff16565b601881905550565b61223682826040516024016121b4929190613dab565b6040516020818303038152906040527f9710a9d0000000000000000000000000000000000000000000000000000000007bffffffffffffffffffffffffffffffffffffffffffffffffffffffff19166020820180517bffffffffffffffffffffffffffffffffffffffffffffffffffffffff83818316178352505050506126a2565b5050565b6000600b60009054906101000a900473ffffffffffffffffffffffffffffffffffffffff16905081600b60006101000a81548173ffffffffffffffffffffffffffffffffffffffff021916908373ffffffffffffffffffffffffffffffffffffffff1602179055508173ffffffffffffffffffffffffffffffffffffffff168173ffffffffffffffffffffffffffffffffffffffff167f8be0079c531659141344cd1fd0a4f28419497f9722a3daafe3b4186f6b6457e060405160405180910390a35050565b612308611d8b565b6001600b60146101000a81548160ff0219169083151502179055507f62e78cea01bee320cd4e420270b5ea74000d11b0c9f74754ebdbfc544b05a25861234c611809565b6040516123599190613c46565b60405180910390a1565b606061236e826117be565b600060066000848152602001908152602001600020805461238e9061437d565b80601f01602080910402602001604051908101604052809291908181526020018280546123ba9061437d565b80156124075780601f106123dc57610100808354040283529160200191612407565b820191906000526020600020905b8154815290600101906020018083116123ea57829003601f168201915b505050505090506000612418612889565b905060008151141561242e578192505050612471565b60008251111561246357808260405160200161244b929190613c22565b60405160208183030381529060405292505050612471565b61246c846128c6565b925050505b919050565b8173ffffffffffffffffffffffffffffffffffffffff168373ffffffffffffffffffffffffffffffffffffffff1614156124e5576040517f08c379a00000000000000000000000000000000000000000000000000000000081526004016124dc90613f19565b60405180910390fd5b80600560008573ffffffffffffffffffffffffffffffffffffffff1673ffffffffffffffffffffffffffffffffffffffff16815260200190815260200160002060008473ffffffffffffffffffffffffffffffffffffffff1673ffffffffffffffffffffffffffffffffffffffff16815260200190815260200160002060006101000a81548160ff0219169083151502179055508173ffffffffffffffffffffffffffffffffffffffff168373ffffffffffffffffffffffffffffffffffffffff167f17307eab39ab6107e8899845ad3d59bd9653f200f220920489ca2b5937696c31836040516125d69190613d1b565b60405180910390a3505050565b6125ee848484611b24565b6125fa8484848461292e565b612639576040517f08c379a000000000000000000000000000000000000000000000000000000000815260040161263090613e59565b60405180910390fd5b50505050565b612647612ac5565b6000600b60146101000a81548160ff0219169083151502179055507f5db9ee0a495bf2e6ff9c91a7834c1ba4fdd244a5e8aa4e537bd38aeae4b073aa61268b611809565b6040516126989190613c46565b60405180910390a1565b60008151905060006a636f6e736f6c652e6c6f679050602083016000808483855afa5050505050565b60007f80ac58cd000000000000000000000000000000000000000000000000000000007bffffffffffffffffffffffffffffffffffffffffffffffffffffffff1916827bffffffffffffffffffffffffffffffffffffffffffffffffffffffff1916148061279657507f5b5e139f000000000000000000000000000000000000000000000000000000007bffffffffffffffffffffffffffffffffffffffffffffffffffffffff1916827bffffffffffffffffffffffffffffffffffffffffffffffffffffffff1916145b806127a657506127a582612b0e565b5b9050919050565b60008073ffffffffffffffffffffffffffffffffffffffff166002600084815260200190815260200160002060009054906101000a900473ffffffffffffffffffffffffffffffffffffffff1673ffffffffffffffffffffffffffffffffffffffff1614159050919050565b612824838383612b78565b505050565b505050565b6128388383612c8c565b612845600084848461292e565b612884576040517f08c379a000000000000000000000000000000000000000000000000000000000815260040161287b90613e59565b60405180910390fd5b505050565b60606040518060400160405280600781526020017f697066733a2f2f00000000000000000000000000000000000000000000000000815250905090565b60606128d1826117be565b60006128db612889565b905060008151116128fb5760405180602001604052806000815250612926565b8061290584612e66565b604051602001612916929190613c22565b6040516020818303038152906040525b915050919050565b600061294f8473ffffffffffffffffffffffffffffffffffffffff16612fc7565b15612ab8578373ffffffffffffffffffffffffffffffffffffffff1663150b7a02612978611809565b8786866040518563ffffffff1660e01b815260040161299a9493929190613c8a565b602060405180830381600087803b1580156129b457600080fd5b505af19250505080156129e557506040513d601f19601f820116820180604052508101906129e29190613714565b60015b612a68573d8060008114612a15576040519150601f19603f3d011682016040523d82523d6000602084013e612a1a565b606091505b50600081511415612a60576040517f08c379a0000000000000000000000000000000000000000000000000000000008152600401612a5790613e59565b60405180910390fd5b805181602001fd5b63150b7a0260e01b7bffffffffffffffffffffffffffffffffffffffffffffffffffffffff1916817bffffffffffffffffffffffffffffffffffffffffffffffffffffffff191614915050612abd565b600190505b949350505050565b612acd610f3d565b612b0c576040517f08c379a0000000000000000000000000000000000000000000000000000000008152600401612b0390613e19565b60405180910390fd5b565b60007f01ffc9a7000000000000000000000000000000000000000000000000000000007bffffffffffffffffffffffffffffffffffffffffffffffffffffffff1916827bffffffffffffffffffffffffffffffffffffffffffffffffffffffff1916149050919050565b612b83838383612fea565b600073ffffffffffffffffffffffffffffffffffffffff168373ffffffffffffffffffffffffffffffffffffffff161415612bc657612bc181612fef565b612c05565b8173ffffffffffffffffffffffffffffffffffffffff168373ffffffffffffffffffffffffffffffffffffffff1614612c0457612c038382613038565b5b5b600073ffffffffffffffffffffffffffffffffffffffff168273ffffffffffffffffffffffffffffffffffffffff161415612c4857612c43816131a5565b612c87565b8273ffffffffffffffffffffffffffffffffffffffff168273ffffffffffffffffffffffffffffffffffffffff1614612c8657612c858282613276565b5b5b505050565b600073ffffffffffffffffffffffffffffffffffffffff168273ffffffffffffffffffffffffffffffffffffffff161415612cfc576040517f08c379a0000000000000000000000000000000000000000000000000000000008152600401612cf390613fd9565b60405180910390fd5b612d05816127ad565b15612d45576040517f08c379a0000000000000000000000000000000000000000000000000000000008152600401612d3c90613eb9565b60405180910390fd5b612d5160008383612819565b6001600360008473ffffffffffffffffffffffffffffffffffffffff1673ffffffffffffffffffffffffffffffffffffffff1681526020019081526020016000206000828254612da191906141d0565b92505081905550816002600083815260200190815260200160002060006101000a81548173ffffffffffffffffffffffffffffffffffffffff021916908373ffffffffffffffffffffffffffffffffffffffff160217905550808273ffffffffffffffffffffffffffffffffffffffff16600073ffffffffffffffffffffffffffffffffffffffff167fddf252ad1be2c89b69c2b068fc378daa952ba7f163c4a11628f55a4df523b3ef60405160405180910390a4612e6260008383612829565b5050565b60606000821415612eae576040518060400160405280600181526020017f30000000000000000000000000000000000000000000000000000000000000008152509050612fc2565b600082905060005b60008214612ee0578080612ec9906143e0565b915050600a82612ed99190614226565b9150612eb6565b60008167ffffffffffffffff811115612efc57612efb614574565b5b6040519080825280601f01601f191660200182016040528015612f2e5781602001600182028036833780820191505090505b5090505b60008514612fbb57600182612f479190614257565b9150600a85612f569190614429565b6030612f6291906141d0565b60f81b818381518110612f7857612f77614545565b5b60200101907effffffffffffffffffffffffffffffffffffffffffffffffffffffffffffff1916908160001a905350600a85612fb49190614226565b9450612f32565b8093505050505b919050565b6000808273ffffffffffffffffffffffffffffffffffffffff163b119050919050565b505050565b600980549050600a600083815260200190815260200160002081905550600981908060018154018082558091505060019003906000526020600020016000909190919091505550565b6000600161304584611083565b61304f9190614257565b9050600060086000848152602001908152602001600020549050818114613134576000600760008673ffffffffffffffffffffffffffffffffffffffff1673ffffffffffffffffffffffffffffffffffffffff168152602001908152602001600020600084815260200190815260200160002054905080600760008773ffffffffffffffffffffffffffffffffffffffff1673ffffffffffffffffffffffffffffffffffffffff168152602001908152602001600020600084815260200190815260200160002081905550816008600083815260200190815260200160002081905550505b6008600084815260200190815260200160002060009055600760008573ffffffffffffffffffffffffffffffffffffffff1673ffffffffffffffffffffffffffffffffffffffff16815260200190815260200160002060008381526020019081526020016000206000905550505050565b600060016009805490506131b99190614257565b90506000600a60008481526020019081526020016000205490506000600983815481106131e9576131e8614545565b5b90600052602060002001549050806009838154811061320b5761320a614545565b5b906000526020600020018190555081600a600083815260200190815260200160002081905550600a600085815260200190815260200160002060009055600980548061325a57613259614516565b5b6001900381819060005260206000200160009055905550505050565b600061328183611083565b905081600760008573ffffffffffffffffffffffffffffffffffffffff1673ffffffffffffffffffffffffffffffffffffffff168152602001908152602001600020600083815260200190815260200160002081905550806008600084815260200190815260200160002081905550505050565b8280546133019061437d565b90600052602060002090601f016020900481019282613323576000855561336a565b82601f1061333c57805160ff191683800117855561336a565b8280016001018555821561336a579182015b8281111561336957825182559160200191906001019061334e565b5b509050613377919061337b565b5090565b5b8082111561339457600081600090555060010161337c565b5090565b60006133ab6133a684614130565b61410b565b905080838252602082019050828560208602820111156133ce576133cd6145a8565b5b60005b858110156133fe57816133e488826134fa565b8452602084019350602083019250506001810190506133d1565b5050509392505050565b600061341b6134168461415c565b61410b565b905082815260208101848484011115613437576134366145ad565b5b61344284828561433b565b509392505050565b60008135905061345981614b3e565b92915050565b600082601f830112613474576134736145a3565b5b8135613484848260208601613398565b91505092915050565b60008135905061349c81614b55565b92915050565b6000813590506134b181614b6c565b92915050565b6000815190506134c681614b6c565b92915050565b600082601f8301126134e1576134e06145a3565b5b81356134f1848260208601613408565b91505092915050565b60008135905061350981614b83565b92915050565b60008151905061351e81614b83565b92915050565b60006020828403121561353a576135396145b7565b5b60006135488482850161344a565b91505092915050565b60008060408385031215613568576135676145b7565b5b60006135768582860161344a565b92505060206135878582860161344a565b9150509250929050565b6000806000606084860312156135aa576135a96145b7565b5b60006135b88682870161344a565b93505060206135c98682870161344a565b92505060406135da868287016134fa565b9150509250925092565b600080600080608085870312156135fe576135fd6145b7565b5b600061360c8782880161344a565b945050602061361d8782880161344a565b935050604061362e878288016134fa565b925050606085013567ffffffffffffffff81111561364f5761364e6145b2565b5b61365b878288016134cc565b91505092959194509250565b6000806040838503121561367e5761367d6145b7565b5b600061368c8582860161344a565b925050602061369d8582860161348d565b9150509250929050565b600080604083850312156136be576136bd6145b7565b5b60006136cc8582860161344a565b92505060206136dd858286016134fa565b9150509250929050565b6000602082840312156136fd576136fc6145b7565b5b600061370b848285016134a2565b91505092915050565b60006020828403121561372a576137296145b7565b5b6000613738848285016134b7565b91505092915050565b600060208284031215613757576137566145b7565b5b6000613765848285016134fa565b91505092915050565b600060208284031215613784576137836145b7565b5b60006137928482850161350f565b91505092915050565b600080604083850312156137b2576137b16145b7565b5b60006137c0858286016134fa565b92505060206137d18582860161344a565b9150509250929050565b600080604083850312156137f2576137f16145b7565b5b6000613800858286016134fa565b925050602083013567ffffffffffffffff811115613821576138206145b2565b5b61382d8582860161345f565b9150509250929050565b6138408161428b565b82525050565b61384f8161429d565b82525050565b61385e816142a9565b82525050565b600061386f8261418d565b61387981856141a3565b935061388981856020860161434a565b613892816145bc565b840191505092915050565b60006138a882614198565b6138b281856141b4565b93506138c281856020860161434a565b6138cb816145bc565b840191505092915050565b60006138e182614198565b6138eb81856141c5565b93506138fb81856020860161434a565b80840191505092915050565b60006139146014836141b4565b915061391f826145cd565b602082019050919050565b6000613937602b836141b4565b9150613942826145f6565b604082019050919050565b600061395a6032836141b4565b915061396582614645565b604082019050919050565b600061397d6026836141b4565b915061398882614694565b604082019050919050565b60006139a06025836141b4565b91506139ab826146e3565b604082019050919050565b60006139c3601c836141b4565b91506139ce82614732565b602082019050919050565b60006139e66028836141b4565b91506139f18261475b565b604082019050919050565b6000613a096024836141b4565b9150613a14826147aa565b604082019050919050565b6000613a2c6019836141b4565b9150613a37826147f9565b602082019050919050565b6000613a4f6029836141b4565b9150613a5a82614822565b604082019050919050565b6000613a726010836141b4565b9150613a7d82614871565b602082019050919050565b6000613a956029836141b4565b9150613aa08261489a565b604082019050919050565b6000613ab8602e836141b4565b9150613ac3826148e9565b604082019050919050565b6000613adb603e836141b4565b9150613ae682614938565b604082019050919050565b6000613afe6020836141b4565b9150613b0982614987565b602082019050919050565b6000613b216020836141b4565b9150613b2c826149b0565b602082019050919050565b6000613b446018836141b4565b9150613b4f826149d9565b602082019050919050565b6000613b676021836141b4565b9150613b7282614a02565b604082019050919050565b6000613b8a602c836141b4565b9150613b9582614a51565b604082019050919050565b6000613bad6038836141b4565b9150613bb882614aa0565b604082019050919050565b6000613bd0602e836141b4565b9150613bdb82614aef565b604082019050919050565b613bef816142df565b82525050565b613bfe8161430d565b82525050565b613c0d81614317565b82525050565b613c1c81614327565b82525050565b6000613c2e82856138d6565b9150613c3a82846138d6565b91508190509392505050565b6000602082019050613c5b6000830184613837565b92915050565b6000604082019050613c766000830185613837565b613c836020830184613837565b9392505050565b6000608082019050613c9f6000830187613837565b613cac6020830186613837565b613cb96040830185613bf5565b8181036060830152613ccb8184613864565b905095945050505050565b6000608082019050613ceb6000830187613837565b613cf86020830186613bf5565b613d056040830185613bf5565b613d126060830184613bf5565b95945050505050565b6000602082019050613d306000830184613846565b92915050565b600060a082019050613d4b6000830188613855565b613d586020830187613c13565b613d656040830186613be6565b613d726060830185613c04565b613d7f6080830184613c04565b9695505050505050565b60006020820190508181036000830152613da3818461389d565b905092915050565b60006040820190508181036000830152613dc5818561389d565b9050613dd46020830184613bf5565b9392505050565b60006060820190508181036000830152613df5818661389d565b9050613e046020830185613bf5565b613e116040830184613837565b949350505050565b60006020820190508181036000830152613e3281613907565b9050919050565b60006020820190508181036000830152613e528161392a565b9050919050565b60006020820190508181036000830152613e728161394d565b9050919050565b60006020820190508181036000830152613e9281613970565b9050919050565b60006020820190508181036000830152613eb281613993565b9050919050565b60006020820190508181036000830152613ed2816139b6565b9050919050565b60006020820190508181036000830152613ef2816139d9565b9050919050565b60006020820190508181036000830152613f12816139fc565b9050919050565b60006020820190508181036000830152613f3281613a1f565b9050919050565b60006020820190508181036000830152613f5281613a42565b9050919050565b60006020820190508181036000830152613f7281613a65565b9050919050565b60006020820190508181036000830152613f9281613a88565b9050919050565b60006020820190508181036000830152613fb281613aab565b9050919050565b60006020820190508181036000830152613fd281613ace565b9050919050565b60006020820190508181036000830152613ff281613af1565b9050919050565b6000602082019050818103600083015261401281613b14565b9050919050565b6000602082019050818103600083015261403281613b37565b9050919050565b6000602082019050818103600083015261405281613b5a565b9050919050565b6000602082019050818103600083015261407281613b7d565b9050919050565b6000602082019050818103600083015261409281613ba0565b9050919050565b600060208201905081810360008301526140b281613bc3565b9050919050565b60006020820190506140ce6000830184613bf5565b92915050565b60006060820190506140e96000830186613bf5565b6140f66020830185613837565b6141036040830184613837565b949350505050565b6000614115614126565b905061412182826143af565b919050565b6000604051905090565b600067ffffffffffffffff82111561414b5761414a614574565b5b602082029050602081019050919050565b600067ffffffffffffffff82111561417757614176614574565b5b614180826145bc565b9050602081019050919050565b600081519050919050565b600081519050919050565b600082825260208201905092915050565b600082825260208201905092915050565b600081905092915050565b60006141db8261430d565b91506141e68361430d565b9250827fffffffffffffffffffffffffffffffffffffffffffffffffffffffffffffffff0382111561421b5761421a614489565b5b828201905092915050565b60006142318261430d565b915061423c8361430d565b92508261424c5761424b6144b8565b5b828204905092915050565b60006142628261430d565b915061426d8361430d565b9250828210156142805761427f614489565b5b828203905092915050565b6000614296826142ed565b9050919050565b60008115159050919050565b6000819050919050565b60007fffffffff0000000000000000000000000000000000000000000000000000000082169050919050565b600061ffff82169050919050565b600073ffffffffffffffffffffffffffffffffffffffff82169050919050565b6000819050919050565b600063ffffffff82169050919050565b600067ffffffffffffffff82169050919050565b82818337600083830152505050565b60005b8381101561436857808201518184015260208101905061434d565b83811115614377576000848401525b50505050565b6000600282049050600182168061439557607f821691505b602082108114156143a9576143a86144e7565b5b50919050565b6143b8826145bc565b810181811067ffffffffffffffff821117156143d7576143d6614574565b5b80604052505050565b60006143eb8261430d565b91507fffffffffffffffffffffffffffffffffffffffffffffffffffffffffffffffff82141561441e5761441d614489565b5b600182019050919050565b60006144348261430d565b915061443f8361430d565b92508261444f5761444e6144b8565b5b828206905092915050565b7f4e487b7100000000000000000000000000000000000000000000000000000000600052600160045260246000fd5b7f4e487b7100000000000000000000000000000000000000000000000000000000600052601160045260246000fd5b7f4e487b7100000000000000000000000000000000000000000000000000000000600052601260045260246000fd5b7f4e487b7100000000000000000000000000000000000000000000000000000000600052602260045260246000fd5b7f4e487b7100000000000000000000000000000000000000000000000000000000600052603160045260246000fd5b7f4e487b7100000000000000000000000000000000000000000000000000000000600052603260045260246000fd5b7f4e487b7100000000000000000000000000000000000000000000000000000000600052604160045260246000fd5b600080fd5b600080fd5b600080fd5b600080fd5b600080fd5b6000601f19601f8301169050919050565b7f5061757361626c653a206e6f7420706175736564000000000000000000000000600082015250565b7f455243373231456e756d657261626c653a206f776e657220696e646578206f7560008201527f74206f6620626f756e6473000000000000000000000000000000000000000000602082015250565b7f4552433732313a207472616e7366657220746f206e6f6e20455243373231526560008201527f63656976657220696d706c656d656e7465720000000000000000000000000000602082015250565b7f4f776e61626c653a206e6577206f776e657220697320746865207a65726f206160008201527f6464726573730000000000000000000000000000000000000000000000000000602082015250565b7f4552433732313a207472616e736665722066726f6d20696e636f72726563742060008201527f6f776e6572000000000000000000000000000000000000000000000000000000602082015250565b7f4552433732313a20746f6b656e20616c7265616479206d696e74656400000000600082015250565b7f4e6f7420656e6f756768204554482073656e742c20706c65617365206368656360008201527f6b20707269636521000000000000000000000000000000000000000000000000602082015250565b7f4552433732313a207472616e7366657220746f20746865207a65726f2061646460008201527f7265737300000000000000000000000000000000000000000000000000000000602082015250565b7f4552433732313a20617070726f766520746f2063616c6c657200000000000000600082015250565b7f4d696e7461626c65206e66747320686176652072656163686564206d6178696d60008201527f756d20737570706c790000000000000000000000000000000000000000000000602082015250565b7f5061757361626c653a2070617573656400000000000000000000000000000000600082015250565b7f4552433732313a2061646472657373207a65726f206973206e6f74206120766160008201527f6c6964206f776e65720000000000000000000000000000000000000000000000602082015250565b7f45524337323155524953746f726167653a2055524920736574206f66206e6f6e60008201527f6578697374656e7420746f6b656e000000000000000000000000000000000000602082015250565b7f4552433732313a20617070726f76652063616c6c6572206973206e6f7420746f60008201527f6b656e206f776e6572206e6f7220617070726f76656420666f7220616c6c0000602082015250565b7f4552433732313a206d696e7420746f20746865207a65726f2061646472657373600082015250565b7f4f776e61626c653a2063616c6c6572206973206e6f7420746865206f776e6572600082015250565b7f4552433732313a20696e76616c696420746f6b656e2049440000000000000000600082015250565b7f4552433732313a20617070726f76616c20746f2063757272656e74206f776e6560008201527f7200000000000000000000000000000000000000000000000000000000000000602082015250565b7f455243373231456e756d657261626c653a20676c6f62616c20696e646578206f60008201527f7574206f6620626f756e64730000000000000000000000000000000000000000602082015250565b7f4e6577206d6178696d756d20737570706c79206d75737420626520677265617460008201527f6572207468616e207468652070726576696f7573206f6e650000000000000000602082015250565b7f4552433732313a2063616c6c6572206973206e6f7420746f6b656e206f776e6560008201527f72206e6f7220617070726f766564000000000000000000000000000000000000602082015250565b614b478161428b565b8114614b5257600080fd5b50565b614b5e8161429d565b8114614b6957600080fd5b50565b614b75816142b3565b8114614b8057600080fd5b50565b614b8c8161430d565b8114614b9757600080fd5b5056fe416e204e465420772f20494420257320686173206265656e206d696e74656420746f202573a2646970667358221220361ddaec4bedee96ed640aa61ca5c931e43e9386b29fbe2106436886d4b2ebe964736f6c63430008070033",
  "linkReferences": {},
  "deployedLinkReferences": {}
}