{
  "_format": "hh-sol-artifact-1",
  "contractName": "TicketNFTGenerator",
  "sourceName": "contracts/TicketNFTGenerator.sol",
  "abi": [
    {
      "inputs": [
        {
          "internalType": "uint256",
          "name": "_maxSupply",
          "type": "uint256"
        }
      ],
      "stateMutability": "nonpayable",
      "type": "constructor"
    },
    {
      "anonymous": false,
      "inputs": [
        {
          "indexed": true,
          "internalType": "address",
          "name": "owner",
          "type": "address"
        },
        {
          "indexed": true,
          "internalType": "address",
          "name": "approved",
          "type": "address"
        },
        {
          "indexed": true,
          "internalType": "uint256",
          "name": "tokenId",
          "type": "uint256"
        }
      ],
      "name": "Approval",
      "type": "event"
    },
    {
      "anonymous": false,
      "inputs": [
        {
          "indexed": true,
          "internalType": "address",
          "name": "owner",
          "type": "address"
        },
        {
          "indexed": true,
          "internalType": "address",
          "name": "operator",
          "type": "address"
        },
        {
          "indexed": false,
          "internalType": "bool",
          "name": "approved",
          "type": "bool"
        }
      ],
      "name": "ApprovalForAll",
      "type": "event"
    },
    {
      "anonymous": false,
      "inputs": [
        {
          "indexed": true,
          "internalType": "address",
          "name": "previousOwner",
          "type": "address"
        },
        {
          "indexed": true,
          "internalType": "address",
          "name": "newOwner",
          "type": "address"
        }
      ],
      "name": "OwnershipTransferred",
      "type": "event"
    },
    {
      "anonymous": false,
      "inputs": [
        {
          "indexed": false,
          "internalType": "address",
          "name": "account",
          "type": "address"
        }
      ],
      "name": "Paused",
      "type": "event"
    },
    {
      "anonymous": false,
      "inputs": [
        {
          "indexed": false,
          "internalType": "address",
          "name": "sender",
          "type": "address"
        },
        {
          "indexed": false,
          "internalType": "uint256",
          "name": "tokenId",
          "type": "uint256"
        },
        {
          "indexed": false,
          "internalType": "uint256",
          "name": "tokenCounter",
          "type": "uint256"
        },
        {
          "indexed": false,
          "internalType": "uint256",
          "name": "maxSupply",
          "type": "uint256"
        }
      ],
      "name": "TicketMinted",
      "type": "event"
    },
    {
      "anonymous": false,
      "inputs": [
        {
          "indexed": false,
          "internalType": "uint256",
          "name": "tokenId",
          "type": "uint256"
        },
        {
          "indexed": false,
          "internalType": "string",
          "name": "tokenUrl",
          "type": "string"
        }
      ],
      "name": "TicketToShow",
      "type": "event"
    },
    {
      "anonymous": false,
      "inputs": [
        {
          "indexed": true,
          "internalType": "address",
          "name": "from",
          "type": "address"
        },
        {
          "indexed": true,
          "internalType": "address",
          "name": "to",
          "type": "address"
        },
        {
          "indexed": true,
          "internalType": "uint256",
          "name": "tokenId",
          "type": "uint256"
        }
      ],
      "name": "Transfer",
      "type": "event"
    },
    {
      "anonymous": false,
      "inputs": [
        {
          "indexed": false,
          "internalType": "address",
          "name": "account",
          "type": "address"
        }
      ],
      "name": "Unpaused",
      "type": "event"
    },
    {
      "inputs": [
        {
          "internalType": "address",
          "name": "to",
          "type": "address"
        },
        {
          "internalType": "uint256",
          "name": "tokenId",
          "type": "uint256"
        }
      ],
      "name": "approve",
      "outputs": [],
      "stateMutability": "nonpayable",
      "type": "function"
    },
    {
      "inputs": [
        {
          "internalType": "address",
          "name": "owner",
          "type": "address"
        }
      ],
      "name": "balanceOf",
      "outputs": [
        {
          "internalType": "uint256",
          "name": "",
          "type": "uint256"
        }
      ],
      "stateMutability": "view",
      "type": "function"
    },
    {
      "inputs": [
        {
          "internalType": "uint256",
          "name": "tokenId",
          "type": "uint256"
        }
      ],
      "name": "getApproved",
      "outputs": [
        {
          "internalType": "address",
          "name": "",
          "type": "address"
        }
      ],
      "stateMutability": "view",
      "type": "function"
    },
    {
      "inputs": [],
      "name": "getBalance",
      "outputs": [
        {
          "internalType": "uint256",
          "name": "",
          "type": "uint256"
        }
      ],
      "stateMutability": "view",
      "type": "function"
    },
    {
      "inputs": [],
      "name": "getNftList",
      "outputs": [],
      "stateMutability": "nonpayable",
      "type": "function"
    },
    {
      "inputs": [
        {
          "internalType": "uint256",
          "name": "_tokenId",
          "type": "uint256"
        },
        {
          "internalType": "address",
          "name": "_to",
          "type": "address"
        }
      ],
      "name": "givesToken",
      "outputs": [],
      "stateMutability": "nonpayable",
      "type": "function"
    },
    {
      "inputs": [
        {
          "internalType": "address",
          "name": "owner",
          "type": "address"
        },
        {
          "internalType": "address",
          "name": "operator",
          "type": "address"
        }
      ],
      "name": "isApprovedForAll",
      "outputs": [
        {
          "internalType": "bool",
          "name": "",
          "type": "bool"
        }
      ],
      "stateMutability": "view",
      "type": "function"
    },
    {
      "inputs": [],
      "name": "mintTicket",
      "outputs": [],
      "stateMutability": "nonpayable",
      "type": "function"
    },
    {
      "inputs": [],
      "name": "mintedTokens",
      "outputs": [
        {
          "internalType": "uint256",
          "name": "",
          "type": "uint256"
        }
      ],
      "stateMutability": "view",
      "type": "function"
    },
    {
      "inputs": [],
      "name": "name",
      "outputs": [
        {
          "internalType": "string",
          "name": "",
          "type": "string"
        }
      ],
      "stateMutability": "view",
      "type": "function"
    },
    {
      "inputs": [],
      "name": "owner",
      "outputs": [
        {
          "internalType": "address",
          "name": "",
          "type": "address"
        }
      ],
      "stateMutability": "view",
      "type": "function"
    },
    {
      "inputs": [
        {
          "internalType": "uint256",
          "name": "tokenId",
          "type": "uint256"
        }
      ],
      "name": "ownerOf",
      "outputs": [
        {
          "internalType": "address",
          "name": "",
          "type": "address"
        }
      ],
      "stateMutability": "view",
      "type": "function"
    },
    {
      "inputs": [],
      "name": "pause",
      "outputs": [],
      "stateMutability": "nonpayable",
      "type": "function"
    },
    {
      "inputs": [],
      "name": "paused",
      "outputs": [
        {
          "internalType": "bool",
          "name": "",
          "type": "bool"
        }
      ],
      "stateMutability": "view",
      "type": "function"
    },
    {
      "inputs": [],
      "name": "receiveMoney",
      "outputs": [],
      "stateMutability": "payable",
      "type": "function"
    },
    {
      "inputs": [],
      "name": "renounceOwnership",
      "outputs": [],
      "stateMutability": "nonpayable",
      "type": "function"
    },
    {
      "inputs": [
        {
          "internalType": "address",
          "name": "from",
          "type": "address"
        },
        {
          "internalType": "address",
          "name": "to",
          "type": "address"
        },
        {
          "internalType": "uint256",
          "name": "tokenId",
          "type": "uint256"
        }
      ],
      "name": "safeTransferFrom",
      "outputs": [],
      "stateMutability": "nonpayable",
      "type": "function"
    },
    {
      "inputs": [
        {
          "internalType": "address",
          "name": "from",
          "type": "address"
        },
        {
          "internalType": "address",
          "name": "to",
          "type": "address"
        },
        {
          "internalType": "uint256",
          "name": "tokenId",
          "type": "uint256"
        },
        {
          "internalType": "bytes",
          "name": "data",
          "type": "bytes"
        }
      ],
      "name": "safeTransferFrom",
      "outputs": [],
      "stateMutability": "nonpayable",
      "type": "function"
    },
    {
      "inputs": [
        {
          "internalType": "address",
          "name": "_to",
          "type": "address"
        },
        {
          "internalType": "uint256",
          "name": "_amount",
          "type": "uint256"
        }
      ],
      "name": "sendMoney",
      "outputs": [],
      "stateMutability": "nonpayable",
      "type": "function"
    },
    {
      "inputs": [
        {
          "internalType": "address",
          "name": "operator",
          "type": "address"
        },
        {
          "internalType": "bool",
          "name": "approved",
          "type": "bool"
        }
      ],
      "name": "setApprovalForAll",
      "outputs": [],
      "stateMutability": "nonpayable",
      "type": "function"
    },
    {
      "inputs": [
        {
          "internalType": "uint256",
          "name": "_maxSupply",
          "type": "uint256"
        }
      ],
      "name": "setMaxSupply",
      "outputs": [],
      "stateMutability": "nonpayable",
      "type": "function"
    },
    {
      "inputs": [
        {
          "internalType": "bytes4",
          "name": "interfaceId",
          "type": "bytes4"
        }
      ],
      "name": "supportsInterface",
      "outputs": [
        {
          "internalType": "bool",
          "name": "",
          "type": "bool"
        }
      ],
      "stateMutability": "view",
      "type": "function"
    },
    {
      "inputs": [],
      "name": "symbol",
      "outputs": [
        {
          "internalType": "string",
          "name": "",
          "type": "string"
        }
      ],
      "stateMutability": "view",
      "type": "function"
    },
    {
      "inputs": [
        {
          "internalType": "uint256",
          "name": "index",
          "type": "uint256"
        }
      ],
      "name": "tokenByIndex",
      "outputs": [
        {
          "internalType": "uint256",
          "name": "",
          "type": "uint256"
        }
      ],
      "stateMutability": "view",
      "type": "function"
    },
    {
      "inputs": [
        {
          "internalType": "address",
          "name": "owner",
          "type": "address"
        },
        {
          "internalType": "uint256",
          "name": "index",
          "type": "uint256"
        }
      ],
      "name": "tokenOfOwnerByIndex",
      "outputs": [
        {
          "internalType": "uint256",
          "name": "",
          "type": "uint256"
        }
      ],
      "stateMutability": "view",
      "type": "function"
    },
    {
      "inputs": [
        {
          "internalType": "uint256",
          "name": "tokenId",
          "type": "uint256"
        }
      ],
      "name": "tokenURI",
      "outputs": [
        {
          "internalType": "string",
          "name": "",
          "type": "string"
        }
      ],
      "stateMutability": "view",
      "type": "function"
    },
    {
      "inputs": [],
      "name": "totalSupply",
      "outputs": [
        {
          "internalType": "uint256",
          "name": "",
          "type": "uint256"
        }
      ],
      "stateMutability": "view",
      "type": "function"
    },
    {
      "inputs": [
        {
          "internalType": "address",
          "name": "from",
          "type": "address"
        },
        {
          "internalType": "address",
          "name": "to",
          "type": "address"
        },
        {
          "internalType": "uint256",
          "name": "tokenId",
          "type": "uint256"
        }
      ],
      "name": "transferFrom",
      "outputs": [],
      "stateMutability": "nonpayable",
      "type": "function"
    },
    {
      "inputs": [
        {
          "internalType": "address",
          "name": "newOwner",
          "type": "address"
        }
      ],
      "name": "transferOwnership",
      "outputs": [],
      "stateMutability": "nonpayable",
      "type": "function"
    },
    {
      "inputs": [],
      "name": "unPause",
      "outputs": [],
      "stateMutability": "nonpayable",
      "type": "function"
    },
    {
      "stateMutability": "payable",
      "type": "receive"
    }
  ],
  "bytecode": "0x60806040526040518060600160405280602e815260200162004a74602e9139600c9080519060200190620000359291906200039b565b506040518060600160405280602e815260200162004a46602e9139600d9080519060200190620000679291906200039b565b506040518060600160405280602e815260200162004aa2602e9139600e9080519060200190620000999291906200039b565b50348015620000a757600080fd5b5060405162004ad038038062004ad08339818101604052810190620000cd919062000462565b6040518060400160405280600981526020017f5469636b65744e465400000000000000000000000000000000000000000000008152506040518060400160405280600381526020017f544b5400000000000000000000000000000000000000000000000000000000008152508160009080519060200190620001519291906200039b565b5080600190805190602001906200016a9291906200039b565b5050506200018d620001816200020160201b60201c565b6200020960201b60201c565b6000600b60146101000a81548160ff02191690831515021790555080601081905550620001fa6040518060400160405280601581526020017f436f6e747261637420696e7374616e7469617465640000000000000000000000815250620002cf60201b620011c81760201c565b50620005df565b600033905090565b6000600b60009054906101000a900473ffffffffffffffffffffffffffffffffffffffff16905081600b60006101000a81548173ffffffffffffffffffffffffffffffffffffffff021916908373ffffffffffffffffffffffffffffffffffffffff1602179055508173ffffffffffffffffffffffffffffffffffffffff168173ffffffffffffffffffffffffffffffffffffffff167f8be0079c531659141344cd1fd0a4f28419497f9722a3daafe3b4186f6b6457e060405160405180910390a35050565b6200036f81604051602401620002e69190620004cf565b6040516020818303038152906040527f41304fac000000000000000000000000000000000000000000000000000000007bffffffffffffffffffffffffffffffffffffffffffffffffffffffff19166020820180517bffffffffffffffffffffffffffffffffffffffffffffffffffffffff83818316178352505050506200037260201b60201c565b50565b60008151905060006a636f6e736f6c652e6c6f679050602083016000808483855afa5050505050565b828054620003a9906200054f565b90600052602060002090601f016020900481019282620003cd576000855562000419565b82601f10620003e857805160ff191683800117855562000419565b8280016001018555821562000419579182015b8281111562000418578251825591602001919060010190620003fb565b5b5090506200042891906200042c565b5090565b5b80821115620004475760008160009055506001016200042d565b5090565b6000815190506200045c81620005c5565b92915050565b6000602082840312156200047557600080fd5b600062000485848285016200044b565b91505092915050565b60006200049b82620004f3565b620004a78185620004fe565b9350620004b981856020860162000519565b620004c481620005b4565b840191505092915050565b60006020820190508181036000830152620004eb81846200048e565b905092915050565b600081519050919050565b600082825260208201905092915050565b6000819050919050565b60005b83811015620005395780820151818401526020810190506200051c565b8381111562000549576000848401525b50505050565b600060028204905060018216806200056857607f821691505b602082108114156200057f576200057e62000585565b5b50919050565b7f4e487b7100000000000000000000000000000000000000000000000000000000600052602260045260246000fd5b6000601f19601f8301169050919050565b620005d0816200050f565b8114620005dc57600080fd5b50565b61445780620005ef6000396000f3fe6080604052600436106101d15760003560e01c806370a08231116100f7578063a22cb46511610095578063e985e9c511610064578063e985e9c514610642578063ee4ae2c91461067f578063f2fde38b146106a8578063f7b188a5146106d1576101e0565b8063a22cb4651461059c578063b88d4fde146105c5578063c87b56dd146105ee578063e88539e31461062b576101e0565b8063889e47a7116100d1578063889e47a7146104f25780638d75fe051461051b5780638da5cb5b1461054657806395d89b4114610571576101e0565b806370a0823114610487578063715018a6146104c45780638456cb59146104db576101e0565b80632f745c591161016f5780635c975abb1161013e5780635c975abb146103ec5780636352211e146104175780636d26ec18146104545780636f8b44b01461045e576101e0565b80632f745c591461033257806342842e0e1461036f5780634f6ccce714610398578063573c80fa146103d5576101e0565b8063095ea7b3116101ab578063095ea7b31461028a57806312065fe0146102b357806318160ddd146102de57806323b872dd14610309576101e0565b806301ffc9a7146101e557806306fdde0314610222578063081812fc1461024d576101e0565b366101e0576101de6106e8565b005b600080fd5b3480156101f157600080fd5b5061020c600480360381019061020791906131af565b610752565b60405161021991906136e5565b60405180910390f35b34801561022e57600080fd5b50610237610764565b6040516102449190613700565b60405180910390f35b34801561025957600080fd5b50610274600480360381019061026f9190613201565b6107f6565b6040516102819190613639565b60405180910390f35b34801561029657600080fd5b506102b160048036038101906102ac9190613173565b61083c565b005b3480156102bf57600080fd5b506102c8610954565b6040516102d59190613a30565b60405180910390f35b3480156102ea57600080fd5b506102f3610966565b6040516103009190613a30565b60405180910390f35b34801561031557600080fd5b50610330600480360381019061032b919061306d565b610973565b005b34801561033e57600080fd5b5061035960048036038101906103549190613173565b6109d3565b6040516103669190613a30565b60405180910390f35b34801561037b57600080fd5b506103966004803603810190610391919061306d565b610a78565b005b3480156103a457600080fd5b506103bf60048036038101906103ba9190613201565b610a98565b6040516103cc9190613a30565b60405180910390f35b3480156103e157600080fd5b506103ea610b2f565b005b3480156103f857600080fd5b50610401610c1c565b60405161040e91906136e5565b60405180910390f35b34801561042357600080fd5b5061043e60048036038101906104399190613201565b610c33565b60405161044b9190613639565b60405180910390f35b61045c6106e8565b005b34801561046a57600080fd5b5061048560048036038101906104809190613201565b610ce5565b005b34801561049357600080fd5b506104ae60048036038101906104a99190613008565b610d43565b6040516104bb9190613a30565b60405180910390f35b3480156104d057600080fd5b506104d9610dfb565b005b3480156104e757600080fd5b506104f0610e0f565b005b3480156104fe57600080fd5b506105196004803603810190610514919061322a565b610e21565b005b34801561052757600080fd5b50610530610e78565b60405161053d9190613a30565b60405180910390f35b34801561055257600080fd5b5061055b610e7e565b6040516105689190613639565b60405180910390f35b34801561057d57600080fd5b50610586610ea8565b6040516105939190613700565b60405180910390f35b3480156105a857600080fd5b506105c360048036038101906105be9190613137565b610f3a565b005b3480156105d157600080fd5b506105ec60048036038101906105e791906130bc565b610f50565b005b3480156105fa57600080fd5b5061061560048036038101906106109190613201565b610fb2565b6040516106229190613700565b60405180910390f35b34801561063757600080fd5b50610640610fc4565b005b34801561064e57600080fd5b5061066960048036038101906106649190613031565b61104b565b60405161067691906136e5565b60405180910390f35b34801561068b57600080fd5b506106a660048036038101906106a19190613173565b6110df565b005b3480156106b457600080fd5b506106cf60048036038101906106ca9190613008565b611132565b005b3480156106dd57600080fd5b506106e66111b6565b005b6011546107006011543461126190919063ffffffff16565b1015610735577f4e487b7100000000000000000000000000000000000000000000000000000000600052600160045260246000fd5b61074a3460115461126190919063ffffffff16565b601181905550565b600061075d82611277565b9050919050565b60606000805461077390613c85565b80601f016020809104026020016040519081016040528092919081815260200182805461079f90613c85565b80156107ec5780601f106107c1576101008083540402835291602001916107ec565b820191906000526020600020905b8154815290600101906020018083116107cf57829003601f168201915b5050505050905090565b6000610801826112f1565b6004600083815260200190815260200160002060009054906101000a900473ffffffffffffffffffffffffffffffffffffffff169050919050565b600061084782610c33565b90508073ffffffffffffffffffffffffffffffffffffffff168373ffffffffffffffffffffffffffffffffffffffff1614156108b8576040517f08c379a00000000000000000000000000000000000000000000000000000000081526004016108af90613990565b60405180910390fd5b8073ffffffffffffffffffffffffffffffffffffffff166108d761133c565b73ffffffffffffffffffffffffffffffffffffffff16148061090657506109058161090061133c565b61104b565b5b610945576040517f08c379a000000000000000000000000000000000000000000000000000000000815260040161093c90613910565b60405180910390fd5b61094f8383611344565b505050565b600061095e6113fd565b601154905090565b6000600980549050905090565b61098461097e61133c565b8261147b565b6109c3576040517f08c379a00000000000000000000000000000000000000000000000000000000081526004016109ba90613a10565b60405180910390fd5b6109ce838383611510565b505050565b60006109de83610d43565b8210610a1f576040517f08c379a0000000000000000000000000000000000000000000000000000000008152600401610a16906137b0565b60405180910390fd5b600760008473ffffffffffffffffffffffffffffffffffffffff1673ffffffffffffffffffffffffffffffffffffffff168152602001908152602001600020600083815260200190815260200160002054905092915050565b610a9383838360405180602001604052806000815250610f50565b505050565b6000610aa2610966565b8210610ae3576040517f08c379a0000000000000000000000000000000000000000000000000000000008152600401610ada906139b0565b60405180910390fd5b60098281548110610b1d577f4e487b7100000000000000000000000000000000000000000000000000000000600052603260045260246000fd5b90600052602060002001549050919050565b610b37611777565b6000610b43600f6117c1565b9050610b686040518060600160405280602581526020016143fd6025913982336117cf565b610b72338261186e565b610b8581610b80600061188c565b611b36565b610b8f600f611baa565b610b97611bc0565b610bd86040518060400160405280600e81526020017f6d696e7465644e6674733a202573000000000000000000000000000000000000815250601254611c24565b7f64bd16642eed00863590d7320e06c0f31bb0468a971feede4e13313e3b2792243382601254601054604051610c1194939291906136a0565b60405180910390a150565b6000600b60149054906101000a900460ff16905090565b6000806002600084815260200190815260200160002060009054906101000a900473ffffffffffffffffffffffffffffffffffffffff169050600073ffffffffffffffffffffffffffffffffffffffff168173ffffffffffffffffffffffffffffffffffffffff161415610cdc576040517f08c379a0000000000000000000000000000000000000000000000000000000008152600401610cd390613970565b60405180910390fd5b80915050919050565b610ced611777565b610cf56113fd565b6010548111610d39576040517f08c379a0000000000000000000000000000000000000000000000000000000008152600401610d30906139f0565b60405180910390fd5b8060108190555050565b60008073ffffffffffffffffffffffffffffffffffffffff168273ffffffffffffffffffffffffffffffffffffffff161415610db4576040517f08c379a0000000000000000000000000000000000000000000000000000000008152600401610dab906138d0565b60405180910390fd5b600360008373ffffffffffffffffffffffffffffffffffffffff1673ffffffffffffffffffffffffffffffffffffffff168152602001908152602001600020549050919050565b610e036113fd565b610e0d6000611cc0565b565b610e176113fd565b610e1f611d86565b565b610e2a82611de9565b610e69576040517f08c379a0000000000000000000000000000000000000000000000000000000008152600401610e60906139d0565b60405180910390fd5b610e74338284610973565b5050565b60125481565b6000600b60009054906101000a900473ffffffffffffffffffffffffffffffffffffffff16905090565b606060018054610eb790613c85565b80601f0160208091040260200160405190810160405280929190818152602001828054610ee390613c85565b8015610f305780601f10610f0557610100808354040283529160200191610f30565b820191906000526020600020905b815481529060010190602001808311610f1357829003601f168201915b5050505050905090565b610f4c610f4561133c565b8383611e44565b5050565b610f61610f5b61133c565b8361147b565b610fa0576040517f08c379a0000000000000000000000000000000000000000000000000000000008152600401610f9790613a10565b60405180910390fd5b610fac84848484611fb1565b50505050565b6060610fbd8261200d565b9050919050565b610fcc611777565b6000610fd733610d43565b905060005b81811015611047576000610ff033836109d3565b90507f01723b1e195ca0b13f4f078e25fec60cd910e1fec2bd9e82b2c313876f9b35288161101d83610fb2565b60405161102b929190613a4b565b60405180910390a150808061103f90613ce8565b915050610fdc565b5050565b6000600560008473ffffffffffffffffffffffffffffffffffffffff1673ffffffffffffffffffffffffffffffffffffffff16815260200190815260200160002060008373ffffffffffffffffffffffffffffffffffffffff1673ffffffffffffffffffffffffffffffffffffffff16815260200190815260200160002060009054906101000a900460ff16905092915050565b6110e76113fd565b8173ffffffffffffffffffffffffffffffffffffffff166108fc829081150290604051600060405180830381858888f1935050505015801561112d573d6000803e3d6000fd5b505050565b61113a6113fd565b600073ffffffffffffffffffffffffffffffffffffffff168173ffffffffffffffffffffffffffffffffffffffff1614156111aa576040517f08c379a00000000000000000000000000000000000000000000000000000000081526004016111a1906137f0565b60405180910390fd5b6111b381611cc0565b50565b6111be6113fd565b6111c6612120565b565b61125e816040516024016111dc9190613700565b6040516020818303038152906040527f41304fac000000000000000000000000000000000000000000000000000000007bffffffffffffffffffffffffffffffffffffffffffffffffffffffff19166020820180517bffffffffffffffffffffffffffffffffffffffffffffffffffffffff8381831617835250505050612183565b50565b6000818361126f9190613b14565b905092915050565b60007f780e9d63000000000000000000000000000000000000000000000000000000007bffffffffffffffffffffffffffffffffffffffffffffffffffffffff1916827bffffffffffffffffffffffffffffffffffffffffffffffffffffffff191614806112ea57506112e9826121ac565b5b9050919050565b6112fa8161228e565b611339576040517f08c379a000000000000000000000000000000000000000000000000000000000815260040161133090613970565b60405180910390fd5b50565b600033905090565b816004600083815260200190815260200160002060006101000a81548173ffffffffffffffffffffffffffffffffffffffff021916908373ffffffffffffffffffffffffffffffffffffffff160217905550808273ffffffffffffffffffffffffffffffffffffffff166113b783610c33565b73ffffffffffffffffffffffffffffffffffffffff167f8c5be1e5ebec7d5bd14f71427d1e84f3dd0314c0f7b2291e5b200ac8c7c3b92560405160405180910390a45050565b61140561133c565b73ffffffffffffffffffffffffffffffffffffffff16611423610e7e565b73ffffffffffffffffffffffffffffffffffffffff1614611479576040517f08c379a000000000000000000000000000000000000000000000000000000000815260040161147090613950565b60405180910390fd5b565b60008061148783610c33565b90508073ffffffffffffffffffffffffffffffffffffffff168473ffffffffffffffffffffffffffffffffffffffff1614806114c957506114c8818561104b565b5b8061150757508373ffffffffffffffffffffffffffffffffffffffff166114ef846107f6565b73ffffffffffffffffffffffffffffffffffffffff16145b91505092915050565b8273ffffffffffffffffffffffffffffffffffffffff1661153082610c33565b73ffffffffffffffffffffffffffffffffffffffff1614611586576040517f08c379a000000000000000000000000000000000000000000000000000000000815260040161157d90613810565b60405180910390fd5b600073ffffffffffffffffffffffffffffffffffffffff168273ffffffffffffffffffffffffffffffffffffffff1614156115f6576040517f08c379a00000000000000000000000000000000000000000000000000000000081526004016115ed90613850565b60405180910390fd5b6116018383836122fa565b61160c600082611344565b6001600360008573ffffffffffffffffffffffffffffffffffffffff1673ffffffffffffffffffffffffffffffffffffffff168152602001908152602001600020600082825461165c9190613b9b565b925050819055506001600360008473ffffffffffffffffffffffffffffffffffffffff1673ffffffffffffffffffffffffffffffffffffffff16815260200190815260200160002060008282546116b39190613b14565b92505081905550816002600083815260200190815260200160002060006101000a81548173ffffffffffffffffffffffffffffffffffffffff021916908373ffffffffffffffffffffffffffffffffffffffff160217905550808273ffffffffffffffffffffffffffffffffffffffff168473ffffffffffffffffffffffffffffffffffffffff167fddf252ad1be2c89b69c2b068fc378daa952ba7f163c4a11628f55a4df523b3ef60405160405180910390a461177283838361230a565b505050565b61177f610c1c565b156117bf576040517f08c379a00000000000000000000000000000000000000000000000000000000081526004016117b6906138b0565b60405180910390fd5b565b600081600001549050919050565b6118698383836040516024016117e793929190613752565b6040516020818303038152906040527fe3849f79000000000000000000000000000000000000000000000000000000007bffffffffffffffffffffffffffffffffffffffffffffffffffffffff19166020820180517bffffffffffffffffffffffffffffffffffffffffffffffffffffffff8381831617835250505050612183565b505050565b61188882826040518060200160405280600081525061230f565b5050565b6060600160028111156118c8577f4e487b7100000000000000000000000000000000000000000000000000000000600052602160045260246000fd5b826002811115611901577f4e487b7100000000000000000000000000000000000000000000000000000000600052602160045260246000fd5b141561199957600d805461191490613c85565b80601f016020809104026020016040519081016040528092919081815260200182805461194090613c85565b801561198d5780601f106119625761010080835404028352916020019161198d565b820191906000526020600020905b81548152906001019060200180831161197057829003601f168201915b50505050509050611b31565b6002808111156119d2577f4e487b7100000000000000000000000000000000000000000000000000000000600052602160045260246000fd5b826002811115611a0b577f4e487b7100000000000000000000000000000000000000000000000000000000600052602160045260246000fd5b1415611aa357600e8054611a1e90613c85565b80601f0160208091040260200160405190810160405280929190818152602001828054611a4a90613c85565b8015611a975780601f10611a6c57610100808354040283529160200191611a97565b820191906000526020600020905b815481529060010190602001808311611a7a57829003601f168201915b50505050509050611b31565b600c8054611ab090613c85565b80601f0160208091040260200160405190810160405280929190818152602001828054611adc90613c85565b8015611b295780601f10611afe57610100808354040283529160200191611b29565b820191906000526020600020905b815481529060010190602001808311611b0c57829003601f168201915b505050505090505b919050565b611b3f8261228e565b611b7e576040517f08c379a0000000000000000000000000000000000000000000000000000000008152600401611b75906138f0565b60405180910390fd5b80600660008481526020019081526020016000209080519060200190611ba5929190612e94565b505050565b6001816000016000828254019250508190555050565b60105460125410611c06576040517f08c379a0000000000000000000000000000000000000000000000000000000008152600401611bfd90613890565b60405180910390fd5b611c1c600160125461126190919063ffffffff16565b601281905550565b611cbc8282604051602401611c3a929190613722565b6040516020818303038152906040527f9710a9d0000000000000000000000000000000000000000000000000000000007bffffffffffffffffffffffffffffffffffffffffffffffffffffffff19166020820180517bffffffffffffffffffffffffffffffffffffffffffffffffffffffff8381831617835250505050612183565b5050565b6000600b60009054906101000a900473ffffffffffffffffffffffffffffffffffffffff16905081600b60006101000a81548173ffffffffffffffffffffffffffffffffffffffff021916908373ffffffffffffffffffffffffffffffffffffffff1602179055508173ffffffffffffffffffffffffffffffffffffffff168173ffffffffffffffffffffffffffffffffffffffff167f8be0079c531659141344cd1fd0a4f28419497f9722a3daafe3b4186f6b6457e060405160405180910390a35050565b611d8e611777565b6001600b60146101000a81548160ff0219169083151502179055507f62e78cea01bee320cd4e420270b5ea74000d11b0c9f74754ebdbfc544b05a258611dd261133c565b604051611ddf9190613639565b60405180910390a1565b600080611df533610d43565b905060005b81811015611e38576000611e0e33836109d3565b905084811415611e245760019350505050611e3f565b508080611e3090613ce8565b915050611dfa565b5060009150505b919050565b8173ffffffffffffffffffffffffffffffffffffffff168373ffffffffffffffffffffffffffffffffffffffff161415611eb3576040517f08c379a0000000000000000000000000000000000000000000000000000000008152600401611eaa90613870565b60405180910390fd5b80600560008573ffffffffffffffffffffffffffffffffffffffff1673ffffffffffffffffffffffffffffffffffffffff16815260200190815260200160002060008473ffffffffffffffffffffffffffffffffffffffff1673ffffffffffffffffffffffffffffffffffffffff16815260200190815260200160002060006101000a81548160ff0219169083151502179055508173ffffffffffffffffffffffffffffffffffffffff168373ffffffffffffffffffffffffffffffffffffffff167f17307eab39ab6107e8899845ad3d59bd9653f200f220920489ca2b5937696c3183604051611fa491906136e5565b60405180910390a3505050565b611fbc848484611510565b611fc88484848461236a565b612007576040517f08c379a0000000000000000000000000000000000000000000000000000000008152600401611ffe906137d0565b60405180910390fd5b50505050565b6060612018826112f1565b600060066000848152602001908152602001600020805461203890613c85565b80601f016020809104026020016040519081016040528092919081815260200182805461206490613c85565b80156120b15780601f10612086576101008083540402835291602001916120b1565b820191906000526020600020905b81548152906001019060200180831161209457829003601f168201915b5050505050905060006120c2612501565b90506000815114156120d857819250505061211b565b60008251111561210d5780826040516020016120f5929190613615565b6040516020818303038152906040529250505061211b565b6121168461253e565b925050505b919050565b6121286125a6565b6000600b60146101000a81548160ff0219169083151502179055507f5db9ee0a495bf2e6ff9c91a7834c1ba4fdd244a5e8aa4e537bd38aeae4b073aa61216c61133c565b6040516121799190613639565b60405180910390a1565b60008151905060006a636f6e736f6c652e6c6f679050602083016000808483855afa5050505050565b60007f80ac58cd000000000000000000000000000000000000000000000000000000007bffffffffffffffffffffffffffffffffffffffffffffffffffffffff1916827bffffffffffffffffffffffffffffffffffffffffffffffffffffffff1916148061227757507f5b5e139f000000000000000000000000000000000000000000000000000000007bffffffffffffffffffffffffffffffffffffffffffffffffffffffff1916827bffffffffffffffffffffffffffffffffffffffffffffffffffffffff1916145b806122875750612286826125ef565b5b9050919050565b60008073ffffffffffffffffffffffffffffffffffffffff166002600084815260200190815260200160002060009054906101000a900473ffffffffffffffffffffffffffffffffffffffff1673ffffffffffffffffffffffffffffffffffffffff1614159050919050565b612305838383612659565b505050565b505050565b612319838361276d565b612326600084848461236a565b612365576040517f08c379a000000000000000000000000000000000000000000000000000000000815260040161235c906137d0565b60405180910390fd5b505050565b600061238b8473ffffffffffffffffffffffffffffffffffffffff16612947565b156124f4578373ffffffffffffffffffffffffffffffffffffffff1663150b7a026123b461133c565b8786866040518563ffffffff1660e01b81526004016123d69493929190613654565b602060405180830381600087803b1580156123f057600080fd5b505af192505050801561242157506040513d601f19601f8201168201806040525081019061241e91906131d8565b60015b6124a4573d8060008114612451576040519150601f19603f3d011682016040523d82523d6000602084013e612456565b606091505b5060008151141561249c576040517f08c379a0000000000000000000000000000000000000000000000000000000008152600401612493906137d0565b60405180910390fd5b805181602001fd5b63150b7a0260e01b7bffffffffffffffffffffffffffffffffffffffffffffffffffffffff1916817bffffffffffffffffffffffffffffffffffffffffffffffffffffffff1916149150506124f9565b600190505b949350505050565b60606040518060400160405280600781526020017f697066733a2f2f00000000000000000000000000000000000000000000000000815250905090565b6060612549826112f1565b6000612553612501565b90506000815111612573576040518060200160405280600081525061259e565b8061257d8461296a565b60405160200161258e929190613615565b6040516020818303038152906040525b915050919050565b6125ae610c1c565b6125ed576040517f08c379a00000000000000000000000000000000000000000000000000000000081526004016125e490613790565b60405180910390fd5b565b60007f01ffc9a7000000000000000000000000000000000000000000000000000000007bffffffffffffffffffffffffffffffffffffffffffffffffffffffff1916827bffffffffffffffffffffffffffffffffffffffffffffffffffffffff1916149050919050565b612664838383612b17565b600073ffffffffffffffffffffffffffffffffffffffff168373ffffffffffffffffffffffffffffffffffffffff1614156126a7576126a281612b1c565b6126e6565b8173ffffffffffffffffffffffffffffffffffffffff168373ffffffffffffffffffffffffffffffffffffffff16146126e5576126e48382612b65565b5b5b600073ffffffffffffffffffffffffffffffffffffffff168273ffffffffffffffffffffffffffffffffffffffff1614156127295761272481612cd2565b612768565b8273ffffffffffffffffffffffffffffffffffffffff168273ffffffffffffffffffffffffffffffffffffffff1614612767576127668282612e15565b5b5b505050565b600073ffffffffffffffffffffffffffffffffffffffff168273ffffffffffffffffffffffffffffffffffffffff1614156127dd576040517f08c379a00000000000000000000000000000000000000000000000000000000081526004016127d490613930565b60405180910390fd5b6127e68161228e565b15612826576040517f08c379a000000000000000000000000000000000000000000000000000000000815260040161281d90613830565b60405180910390fd5b612832600083836122fa565b6001600360008473ffffffffffffffffffffffffffffffffffffffff1673ffffffffffffffffffffffffffffffffffffffff16815260200190815260200160002060008282546128829190613b14565b92505081905550816002600083815260200190815260200160002060006101000a81548173ffffffffffffffffffffffffffffffffffffffff021916908373ffffffffffffffffffffffffffffffffffffffff160217905550808273ffffffffffffffffffffffffffffffffffffffff16600073ffffffffffffffffffffffffffffffffffffffff167fddf252ad1be2c89b69c2b068fc378daa952ba7f163c4a11628f55a4df523b3ef60405160405180910390a46129436000838361230a565b5050565b6000808273ffffffffffffffffffffffffffffffffffffffff163b119050919050565b606060008214156129b2576040518060400160405280600181526020017f30000000000000000000000000000000000000000000000000000000000000008152509050612b12565b600082905060005b600082146129e45780806129cd90613ce8565b915050600a826129dd9190613b6a565b91506129ba565b60008167ffffffffffffffff811115612a26577f4e487b7100000000000000000000000000000000000000000000000000000000600052604160045260246000fd5b6040519080825280601f01601f191660200182016040528015612a585781602001600182028036833780820191505090505b5090505b60008514612b0b57600182612a719190613b9b565b9150600a85612a809190613d31565b6030612a8c9190613b14565b60f81b818381518110612ac8577f4e487b7100000000000000000000000000000000000000000000000000000000600052603260045260246000fd5b60200101907effffffffffffffffffffffffffffffffffffffffffffffffffffffffffffff1916908160001a905350600a85612b049190613b6a565b9450612a5c565b8093505050505b919050565b505050565b600980549050600a600083815260200190815260200160002081905550600981908060018154018082558091505060019003906000526020600020016000909190919091505550565b60006001612b7284610d43565b612b7c9190613b9b565b9050600060086000848152602001908152602001600020549050818114612c61576000600760008673ffffffffffffffffffffffffffffffffffffffff1673ffffffffffffffffffffffffffffffffffffffff168152602001908152602001600020600084815260200190815260200160002054905080600760008773ffffffffffffffffffffffffffffffffffffffff1673ffffffffffffffffffffffffffffffffffffffff168152602001908152602001600020600084815260200190815260200160002081905550816008600083815260200190815260200160002081905550505b6008600084815260200190815260200160002060009055600760008573ffffffffffffffffffffffffffffffffffffffff1673ffffffffffffffffffffffffffffffffffffffff16815260200190815260200160002060008381526020019081526020016000206000905550505050565b60006001600980549050612ce69190613b9b565b90506000600a6000848152602001908152602001600020549050600060098381548110612d3c577f4e487b7100000000000000000000000000000000000000000000000000000000600052603260045260246000fd5b906000526020600020015490508060098381548110612d84577f4e487b7100000000000000000000000000000000000000000000000000000000600052603260045260246000fd5b906000526020600020018190555081600a600083815260200190815260200160002081905550600a6000858152602001908152602001600020600090556009805480612df9577f4e487b7100000000000000000000000000000000000000000000000000000000600052603160045260246000fd5b6001900381819060005260206000200160009055905550505050565b6000612e2083610d43565b905081600760008573ffffffffffffffffffffffffffffffffffffffff1673ffffffffffffffffffffffffffffffffffffffff168152602001908152602001600020600083815260200190815260200160002081905550806008600084815260200190815260200160002081905550505050565b828054612ea090613c85565b90600052602060002090601f016020900481019282612ec25760008555612f09565b82601f10612edb57805160ff1916838001178555612f09565b82800160010185558215612f09579182015b82811115612f08578251825591602001919060010190612eed565b5b509050612f169190612f1a565b5090565b5b80821115612f33576000816000905550600101612f1b565b5090565b6000612f4a612f4584613aa0565b613a7b565b905082815260208101848484011115612f6257600080fd5b612f6d848285613c43565b509392505050565b600081359050612f84816143a0565b92915050565b600081359050612f99816143b7565b92915050565b600081359050612fae816143ce565b92915050565b600081519050612fc3816143ce565b92915050565b600082601f830112612fda57600080fd5b8135612fea848260208601612f37565b91505092915050565b600081359050613002816143e5565b92915050565b60006020828403121561301a57600080fd5b600061302884828501612f75565b91505092915050565b6000806040838503121561304457600080fd5b600061305285828601612f75565b925050602061306385828601612f75565b9150509250929050565b60008060006060848603121561308257600080fd5b600061309086828701612f75565b93505060206130a186828701612f75565b92505060406130b286828701612ff3565b9150509250925092565b600080600080608085870312156130d257600080fd5b60006130e087828801612f75565b94505060206130f187828801612f75565b935050604061310287828801612ff3565b925050606085013567ffffffffffffffff81111561311f57600080fd5b61312b87828801612fc9565b91505092959194509250565b6000806040838503121561314a57600080fd5b600061315885828601612f75565b925050602061316985828601612f8a565b9150509250929050565b6000806040838503121561318657600080fd5b600061319485828601612f75565b92505060206131a585828601612ff3565b9150509250929050565b6000602082840312156131c157600080fd5b60006131cf84828501612f9f565b91505092915050565b6000602082840312156131ea57600080fd5b60006131f884828501612fb4565b91505092915050565b60006020828403121561321357600080fd5b600061322184828501612ff3565b91505092915050565b6000806040838503121561323d57600080fd5b600061324b85828601612ff3565b925050602061325c85828601612f75565b9150509250929050565b61326f81613bcf565b82525050565b61327e81613be1565b82525050565b600061328f82613ad1565b6132998185613ae7565b93506132a9818560208601613c52565b6132b281613e1e565b840191505092915050565b60006132c882613adc565b6132d28185613af8565b93506132e2818560208601613c52565b6132eb81613e1e565b840191505092915050565b600061330182613adc565b61330b8185613b09565b935061331b818560208601613c52565b80840191505092915050565b6000613334601483613af8565b915061333f82613e2f565b602082019050919050565b6000613357602b83613af8565b915061336282613e58565b604082019050919050565b600061337a603283613af8565b915061338582613ea7565b604082019050919050565b600061339d602683613af8565b91506133a882613ef6565b604082019050919050565b60006133c0602583613af8565b91506133cb82613f45565b604082019050919050565b60006133e3601c83613af8565b91506133ee82613f94565b602082019050919050565b6000613406602483613af8565b915061341182613fbd565b604082019050919050565b6000613429601983613af8565b91506134348261400c565b602082019050919050565b600061344c602983613af8565b915061345782614035565b604082019050919050565b600061346f601083613af8565b915061347a82614084565b602082019050919050565b6000613492602983613af8565b915061349d826140ad565b604082019050919050565b60006134b5602e83613af8565b91506134c0826140fc565b604082019050919050565b60006134d8603e83613af8565b91506134e38261414b565b604082019050919050565b60006134fb602083613af8565b91506135068261419a565b602082019050919050565b600061351e602083613af8565b9150613529826141c3565b602082019050919050565b6000613541601883613af8565b915061354c826141ec565b602082019050919050565b6000613564602183613af8565b915061356f82614215565b604082019050919050565b6000613587602c83613af8565b915061359282614264565b604082019050919050565b60006135aa602383613af8565b91506135b5826142b3565b604082019050919050565b60006135cd603883613af8565b91506135d882614302565b604082019050919050565b60006135f0602e83613af8565b91506135fb82614351565b604082019050919050565b61360f81613c39565b82525050565b600061362182856132f6565b915061362d82846132f6565b91508190509392505050565b600060208201905061364e6000830184613266565b92915050565b60006080820190506136696000830187613266565b6136766020830186613266565b6136836040830185613606565b81810360608301526136958184613284565b905095945050505050565b60006080820190506136b56000830187613266565b6136c26020830186613606565b6136cf6040830185613606565b6136dc6060830184613606565b95945050505050565b60006020820190506136fa6000830184613275565b92915050565b6000602082019050818103600083015261371a81846132bd565b905092915050565b6000604082019050818103600083015261373c81856132bd565b905061374b6020830184613606565b9392505050565b6000606082019050818103600083015261376c81866132bd565b905061377b6020830185613606565b6137886040830184613266565b949350505050565b600060208201905081810360008301526137a981613327565b9050919050565b600060208201905081810360008301526137c98161334a565b9050919050565b600060208201905081810360008301526137e98161336d565b9050919050565b6000602082019050818103600083015261380981613390565b9050919050565b60006020820190508181036000830152613829816133b3565b9050919050565b60006020820190508181036000830152613849816133d6565b9050919050565b60006020820190508181036000830152613869816133f9565b9050919050565b600060208201905081810360008301526138898161341c565b9050919050565b600060208201905081810360008301526138a98161343f565b9050919050565b600060208201905081810360008301526138c981613462565b9050919050565b600060208201905081810360008301526138e981613485565b9050919050565b60006020820190508181036000830152613909816134a8565b9050919050565b60006020820190508181036000830152613929816134cb565b9050919050565b60006020820190508181036000830152613949816134ee565b9050919050565b6000602082019050818103600083015261396981613511565b9050919050565b6000602082019050818103600083015261398981613534565b9050919050565b600060208201905081810360008301526139a981613557565b9050919050565b600060208201905081810360008301526139c98161357a565b9050919050565b600060208201905081810360008301526139e98161359d565b9050919050565b60006020820190508181036000830152613a09816135c0565b9050919050565b60006020820190508181036000830152613a29816135e3565b9050919050565b6000602082019050613a456000830184613606565b92915050565b6000604082019050613a606000830185613606565b8181036020830152613a7281846132bd565b90509392505050565b6000613a85613a96565b9050613a918282613cb7565b919050565b6000604051905090565b600067ffffffffffffffff821115613abb57613aba613def565b5b613ac482613e1e565b9050602081019050919050565b600081519050919050565b600081519050919050565b600082825260208201905092915050565b600082825260208201905092915050565b600081905092915050565b6000613b1f82613c39565b9150613b2a83613c39565b9250827fffffffffffffffffffffffffffffffffffffffffffffffffffffffffffffffff03821115613b5f57613b5e613d62565b5b828201905092915050565b6000613b7582613c39565b9150613b8083613c39565b925082613b9057613b8f613d91565b5b828204905092915050565b6000613ba682613c39565b9150613bb183613c39565b925082821015613bc457613bc3613d62565b5b828203905092915050565b6000613bda82613c19565b9050919050565b60008115159050919050565b60007fffffffff0000000000000000000000000000000000000000000000000000000082169050919050565b600073ffffffffffffffffffffffffffffffffffffffff82169050919050565b6000819050919050565b82818337600083830152505050565b60005b83811015613c70578082015181840152602081019050613c55565b83811115613c7f576000848401525b50505050565b60006002820490506001821680613c9d57607f821691505b60208210811415613cb157613cb0613dc0565b5b50919050565b613cc082613e1e565b810181811067ffffffffffffffff82111715613cdf57613cde613def565b5b80604052505050565b6000613cf382613c39565b91507fffffffffffffffffffffffffffffffffffffffffffffffffffffffffffffffff821415613d2657613d25613d62565b5b600182019050919050565b6000613d3c82613c39565b9150613d4783613c39565b925082613d5757613d56613d91565b5b828206905092915050565b7f4e487b7100000000000000000000000000000000000000000000000000000000600052601160045260246000fd5b7f4e487b7100000000000000000000000000000000000000000000000000000000600052601260045260246000fd5b7f4e487b7100000000000000000000000000000000000000000000000000000000600052602260045260246000fd5b7f4e487b7100000000000000000000000000000000000000000000000000000000600052604160045260246000fd5b6000601f19601f8301169050919050565b7f5061757361626c653a206e6f7420706175736564000000000000000000000000600082015250565b7f455243373231456e756d657261626c653a206f776e657220696e646578206f7560008201527f74206f6620626f756e6473000000000000000000000000000000000000000000602082015250565b7f4552433732313a207472616e7366657220746f206e6f6e20455243373231526560008201527f63656976657220696d706c656d656e7465720000000000000000000000000000602082015250565b7f4f776e61626c653a206e6577206f776e657220697320746865207a65726f206160008201527f6464726573730000000000000000000000000000000000000000000000000000602082015250565b7f4552433732313a207472616e736665722066726f6d20696e636f72726563742060008201527f6f776e6572000000000000000000000000000000000000000000000000000000602082015250565b7f4552433732313a20746f6b656e20616c7265616479206d696e74656400000000600082015250565b7f4552433732313a207472616e7366657220746f20746865207a65726f2061646460008201527f7265737300000000000000000000000000000000000000000000000000000000602082015250565b7f4552433732313a20617070726f766520746f2063616c6c657200000000000000600082015250565b7f4d696e7461626c65206e66747320686176652072656163686564206d6178696d60008201527f756d20737570706c790000000000000000000000000000000000000000000000602082015250565b7f5061757361626c653a2070617573656400000000000000000000000000000000600082015250565b7f4552433732313a2061646472657373207a65726f206973206e6f74206120766160008201527f6c6964206f776e65720000000000000000000000000000000000000000000000602082015250565b7f45524337323155524953746f726167653a2055524920736574206f66206e6f6e60008201527f6578697374656e7420746f6b656e000000000000000000000000000000000000602082015250565b7f4552433732313a20617070726f76652063616c6c6572206973206e6f7420746f60008201527f6b656e206f776e6572206e6f7220617070726f76656420666f7220616c6c0000602082015250565b7f4552433732313a206d696e7420746f20746865207a65726f2061646472657373600082015250565b7f4f776e61626c653a2063616c6c6572206973206e6f7420746865206f776e6572600082015250565b7f4552433732313a20696e76616c696420746f6b656e2049440000000000000000600082015250565b7f4552433732313a20617070726f76616c20746f2063757272656e74206f776e6560008201527f7200000000000000000000000000000000000000000000000000000000000000602082015250565b7f455243373231456e756d657261626c653a20676c6f62616c20696e646578206f60008201527f7574206f6620626f756e64730000000000000000000000000000000000000000602082015250565b7f596f7520617265206e6f7420746865206f776e6572206f66207468697320746f60008201527f6b656e0000000000000000000000000000000000000000000000000000000000602082015250565b7f4e6577206d6178696d756d20737570706c79206d75737420626520677265617460008201527f6572207468616e207468652070726576696f7573206f6e650000000000000000602082015250565b7f4552433732313a2063616c6c6572206973206e6f7420746f6b656e206f776e6560008201527f72206e6f7220617070726f766564000000000000000000000000000000000000602082015250565b6143a981613bcf565b81146143b457600080fd5b50565b6143c081613be1565b81146143cb57600080fd5b50565b6143d781613bed565b81146143e257600080fd5b50565b6143ee81613c39565b81146143f957600080fd5b5056fe416e204e465420772f20494420257320686173206265656e206d696e74656420746f202573a2646970667358221220395f96e32768c8e3e0af87bf41f57feb116e737e88145bfb575416ed2820c55564736f6c63430008010033516d57685751613950614533573537476e4a62596a53677561716a564d6864715a6f4b4338516d47743932525950516d56636f5a4e52786f6a71366d6438366a395361374c5162576558623737376b4b384c47346772314165434d64516d526b69684d6d715366426d6a4b747336354d517668377857777069775372465432636a37423148446a723758",
  "linkReferences": {},
  "deployedLinkReferences": {}
}