{
  "_format": "hh-sol-artifact-1",
  "contractName": "TicketNFTGenerator",
  "sourceName": "contracts/TicketNFTGenerator.sol",
  "abi": [
    {
      "inputs": [
        {
          "internalType": "uint256",
          "name": "_maxSupply",
          "type": "uint256"
        },
        {
          "internalType": "uint256",
          "name": "_initialMintPrice",
          "type": "uint256"
        },
        {
          "internalType": "string",
          "name": "_urlCommon",
          "type": "string"
        },
        {
          "internalType": "string",
          "name": "_urlRare",
          "type": "string"
        },
        {
          "internalType": "string",
          "name": "_urlSuperRare",
          "type": "string"
        },
        {
          "internalType": "uint256",
          "name": "_upperLimitCommon",
          "type": "uint256"
        },
        {
          "internalType": "uint256",
          "name": "_upperLimitRare",
          "type": "uint256"
        },
        {
          "internalType": "uint64",
          "name": "_subscriptionId",
          "type": "uint64"
        },
        {
          "internalType": "address",
          "name": "_vrfCoordinator",
          "type": "address"
        },
        {
          "internalType": "bytes32",
          "name": "_keyHash",
          "type": "bytes32"
        }
      ],
      "stateMutability": "nonpayable",
      "type": "constructor"
    },
    {
      "inputs": [
        {
          "internalType": "address",
          "name": "have",
          "type": "address"
        },
        {
          "internalType": "address",
          "name": "want",
          "type": "address"
        }
      ],
      "name": "OnlyCoordinatorCanFulfill",
      "type": "error"
    },
    {
      "anonymous": false,
      "inputs": [
        {
          "indexed": true,
          "internalType": "address",
          "name": "owner",
          "type": "address"
        },
        {
          "indexed": true,
          "internalType": "address",
          "name": "approved",
          "type": "address"
        },
        {
          "indexed": true,
          "internalType": "uint256",
          "name": "tokenId",
          "type": "uint256"
        }
      ],
      "name": "Approval",
      "type": "event"
    },
    {
      "anonymous": false,
      "inputs": [
        {
          "indexed": true,
          "internalType": "address",
          "name": "owner",
          "type": "address"
        },
        {
          "indexed": true,
          "internalType": "address",
          "name": "operator",
          "type": "address"
        },
        {
          "indexed": false,
          "internalType": "bool",
          "name": "approved",
          "type": "bool"
        }
      ],
      "name": "ApprovalForAll",
      "type": "event"
    },
    {
      "anonymous": false,
      "inputs": [
        {
          "indexed": true,
          "internalType": "address",
          "name": "previousOwner",
          "type": "address"
        },
        {
          "indexed": true,
          "internalType": "address",
          "name": "newOwner",
          "type": "address"
        }
      ],
      "name": "OwnershipTransferred",
      "type": "event"
    },
    {
      "anonymous": false,
      "inputs": [
        {
          "indexed": false,
          "internalType": "address",
          "name": "account",
          "type": "address"
        }
      ],
      "name": "Paused",
      "type": "event"
    },
    {
      "anonymous": false,
      "inputs": [
        {
          "indexed": false,
          "internalType": "address",
          "name": "sender",
          "type": "address"
        },
        {
          "indexed": false,
          "internalType": "uint256",
          "name": "tokenId",
          "type": "uint256"
        },
        {
          "indexed": false,
          "internalType": "uint256",
          "name": "tokenCounter",
          "type": "uint256"
        },
        {
          "indexed": false,
          "internalType": "uint256",
          "name": "maxSupply",
          "type": "uint256"
        }
      ],
      "name": "TicketMinted",
      "type": "event"
    },
    {
      "anonymous": false,
      "inputs": [],
      "name": "TicketRandomnessGenerated",
      "type": "event"
    },
    {
      "anonymous": false,
      "inputs": [
        {
          "indexed": false,
          "internalType": "uint256",
          "name": "tokenId",
          "type": "uint256"
        },
        {
          "indexed": false,
          "internalType": "address",
          "name": "from",
          "type": "address"
        },
        {
          "indexed": false,
          "internalType": "address",
          "name": "to",
          "type": "address"
        }
      ],
      "name": "TicketSent",
      "type": "event"
    },
    {
      "anonymous": false,
      "inputs": [
        {
          "indexed": false,
          "internalType": "uint256",
          "name": "tokenId",
          "type": "uint256"
        },
        {
          "indexed": false,
          "internalType": "string",
          "name": "tokenUrl",
          "type": "string"
        }
      ],
      "name": "TicketToShow",
      "type": "event"
    },
    {
      "anonymous": false,
      "inputs": [
        {
          "indexed": true,
          "internalType": "address",
          "name": "from",
          "type": "address"
        },
        {
          "indexed": true,
          "internalType": "address",
          "name": "to",
          "type": "address"
        },
        {
          "indexed": true,
          "internalType": "uint256",
          "name": "tokenId",
          "type": "uint256"
        }
      ],
      "name": "Transfer",
      "type": "event"
    },
    {
      "anonymous": false,
      "inputs": [
        {
          "indexed": false,
          "internalType": "address",
          "name": "account",
          "type": "address"
        }
      ],
      "name": "Unpaused",
      "type": "event"
    },
    {
      "inputs": [
        {
          "internalType": "address",
          "name": "to",
          "type": "address"
        },
        {
          "internalType": "uint256",
          "name": "tokenId",
          "type": "uint256"
        }
      ],
      "name": "approve",
      "outputs": [],
      "stateMutability": "nonpayable",
      "type": "function"
    },
    {
      "inputs": [
        {
          "internalType": "address",
          "name": "owner",
          "type": "address"
        }
      ],
      "name": "balanceOf",
      "outputs": [
        {
          "internalType": "uint256",
          "name": "",
          "type": "uint256"
        }
      ],
      "stateMutability": "view",
      "type": "function"
    },
    {
      "inputs": [
        {
          "internalType": "uint256",
          "name": "tokenId",
          "type": "uint256"
        }
      ],
      "name": "getApproved",
      "outputs": [
        {
          "internalType": "address",
          "name": "",
          "type": "address"
        }
      ],
      "stateMutability": "view",
      "type": "function"
    },
    {
      "inputs": [],
      "name": "getBalance",
      "outputs": [
        {
          "internalType": "uint256",
          "name": "",
          "type": "uint256"
        }
      ],
      "stateMutability": "view",
      "type": "function"
    },
    {
      "inputs": [],
      "name": "getMaxSupply",
      "outputs": [
        {
          "internalType": "uint256",
          "name": "",
          "type": "uint256"
        }
      ],
      "stateMutability": "view",
      "type": "function"
    },
    {
      "inputs": [],
      "name": "getMintPrice",
      "outputs": [
        {
          "internalType": "uint256",
          "name": "",
          "type": "uint256"
        }
      ],
      "stateMutability": "view",
      "type": "function"
    },
    {
      "inputs": [],
      "name": "getRandomNumber",
      "outputs": [
        {
          "internalType": "uint256",
          "name": "",
          "type": "uint256"
        }
      ],
      "stateMutability": "view",
      "type": "function"
    },
    {
      "inputs": [],
      "name": "getTokenCounter",
      "outputs": [
        {
          "internalType": "uint256",
          "name": "",
          "type": "uint256"
        }
      ],
      "stateMutability": "view",
      "type": "function"
    },
    {
      "inputs": [
        {
          "internalType": "uint256",
          "name": "_tokenId",
          "type": "uint256"
        },
        {
          "internalType": "address",
          "name": "_to",
          "type": "address"
        }
      ],
      "name": "givesToken",
      "outputs": [],
      "stateMutability": "nonpayable",
      "type": "function"
    },
    {
      "inputs": [
        {
          "internalType": "address",
          "name": "owner",
          "type": "address"
        },
        {
          "internalType": "address",
          "name": "operator",
          "type": "address"
        }
      ],
      "name": "isApprovedForAll",
      "outputs": [
        {
          "internalType": "bool",
          "name": "",
          "type": "bool"
        }
      ],
      "stateMutability": "view",
      "type": "function"
    },
    {
      "inputs": [
        {
          "internalType": "uint256",
          "name": "_tokenId",
          "type": "uint256"
        }
      ],
      "name": "isTokenOwned",
      "outputs": [
        {
          "internalType": "bool",
          "name": "",
          "type": "bool"
        }
      ],
      "stateMutability": "view",
      "type": "function"
    },
    {
      "inputs": [],
      "name": "mintPrice",
      "outputs": [
        {
          "internalType": "uint256",
          "name": "",
          "type": "uint256"
        }
      ],
      "stateMutability": "view",
      "type": "function"
    },
    {
      "inputs": [],
      "name": "mintTicket",
      "outputs": [],
      "stateMutability": "payable",
      "type": "function"
    },
    {
      "inputs": [],
      "name": "name",
      "outputs": [
        {
          "internalType": "string",
          "name": "",
          "type": "string"
        }
      ],
      "stateMutability": "view",
      "type": "function"
    },
    {
      "inputs": [],
      "name": "owner",
      "outputs": [
        {
          "internalType": "address",
          "name": "",
          "type": "address"
        }
      ],
      "stateMutability": "view",
      "type": "function"
    },
    {
      "inputs": [
        {
          "internalType": "uint256",
          "name": "tokenId",
          "type": "uint256"
        }
      ],
      "name": "ownerOf",
      "outputs": [
        {
          "internalType": "address",
          "name": "",
          "type": "address"
        }
      ],
      "stateMutability": "view",
      "type": "function"
    },
    {
      "inputs": [],
      "name": "pause",
      "outputs": [],
      "stateMutability": "nonpayable",
      "type": "function"
    },
    {
      "inputs": [],
      "name": "paused",
      "outputs": [
        {
          "internalType": "bool",
          "name": "",
          "type": "bool"
        }
      ],
      "stateMutability": "view",
      "type": "function"
    },
    {
      "inputs": [
        {
          "internalType": "uint256",
          "name": "requestId",
          "type": "uint256"
        },
        {
          "internalType": "uint256[]",
          "name": "randomWords",
          "type": "uint256[]"
        }
      ],
      "name": "rawFulfillRandomWords",
      "outputs": [],
      "stateMutability": "nonpayable",
      "type": "function"
    },
    {
      "inputs": [],
      "name": "receiveMoney",
      "outputs": [],
      "stateMutability": "payable",
      "type": "function"
    },
    {
      "inputs": [],
      "name": "renounceOwnership",
      "outputs": [],
      "stateMutability": "nonpayable",
      "type": "function"
    },
    {
      "inputs": [],
      "name": "requestRandomWords",
      "outputs": [],
      "stateMutability": "nonpayable",
      "type": "function"
    },
    {
      "inputs": [
        {
          "internalType": "address",
          "name": "from",
          "type": "address"
        },
        {
          "internalType": "address",
          "name": "to",
          "type": "address"
        },
        {
          "internalType": "uint256",
          "name": "tokenId",
          "type": "uint256"
        }
      ],
      "name": "safeTransferFrom",
      "outputs": [],
      "stateMutability": "nonpayable",
      "type": "function"
    },
    {
      "inputs": [
        {
          "internalType": "address",
          "name": "from",
          "type": "address"
        },
        {
          "internalType": "address",
          "name": "to",
          "type": "address"
        },
        {
          "internalType": "uint256",
          "name": "tokenId",
          "type": "uint256"
        },
        {
          "internalType": "bytes",
          "name": "data",
          "type": "bytes"
        }
      ],
      "name": "safeTransferFrom",
      "outputs": [],
      "stateMutability": "nonpayable",
      "type": "function"
    },
    {
      "inputs": [
        {
          "internalType": "address",
          "name": "_to",
          "type": "address"
        },
        {
          "internalType": "uint256",
          "name": "_amount",
          "type": "uint256"
        }
      ],
      "name": "sendMoney",
      "outputs": [],
      "stateMutability": "nonpayable",
      "type": "function"
    },
    {
      "inputs": [
        {
          "internalType": "address",
          "name": "operator",
          "type": "address"
        },
        {
          "internalType": "bool",
          "name": "approved",
          "type": "bool"
        }
      ],
      "name": "setApprovalForAll",
      "outputs": [],
      "stateMutability": "nonpayable",
      "type": "function"
    },
    {
      "inputs": [
        {
          "internalType": "uint256",
          "name": "_maxSupply",
          "type": "uint256"
        }
      ],
      "name": "setMaxSupply",
      "outputs": [],
      "stateMutability": "nonpayable",
      "type": "function"
    },
    {
      "inputs": [
        {
          "internalType": "uint256",
          "name": "_mintPrice",
          "type": "uint256"
        }
      ],
      "name": "setMintPrice",
      "outputs": [],
      "stateMutability": "nonpayable",
      "type": "function"
    },
    {
      "inputs": [
        {
          "internalType": "bytes4",
          "name": "interfaceId",
          "type": "bytes4"
        }
      ],
      "name": "supportsInterface",
      "outputs": [
        {
          "internalType": "bool",
          "name": "",
          "type": "bool"
        }
      ],
      "stateMutability": "view",
      "type": "function"
    },
    {
      "inputs": [],
      "name": "symbol",
      "outputs": [
        {
          "internalType": "string",
          "name": "",
          "type": "string"
        }
      ],
      "stateMutability": "view",
      "type": "function"
    },
    {
      "inputs": [
        {
          "internalType": "uint256",
          "name": "index",
          "type": "uint256"
        }
      ],
      "name": "tokenByIndex",
      "outputs": [
        {
          "internalType": "uint256",
          "name": "",
          "type": "uint256"
        }
      ],
      "stateMutability": "view",
      "type": "function"
    },
    {
      "inputs": [
        {
          "internalType": "address",
          "name": "owner",
          "type": "address"
        },
        {
          "internalType": "uint256",
          "name": "index",
          "type": "uint256"
        }
      ],
      "name": "tokenOfOwnerByIndex",
      "outputs": [
        {
          "internalType": "uint256",
          "name": "",
          "type": "uint256"
        }
      ],
      "stateMutability": "view",
      "type": "function"
    },
    {
      "inputs": [
        {
          "internalType": "uint256",
          "name": "tokenId",
          "type": "uint256"
        }
      ],
      "name": "tokenURI",
      "outputs": [
        {
          "internalType": "string",
          "name": "",
          "type": "string"
        }
      ],
      "stateMutability": "view",
      "type": "function"
    },
    {
      "inputs": [
        {
          "internalType": "uint256",
          "name": "_tokenId",
          "type": "uint256"
        }
      ],
      "name": "tokenURIIfOwned",
      "outputs": [
        {
          "internalType": "string",
          "name": "",
          "type": "string"
        }
      ],
      "stateMutability": "view",
      "type": "function"
    },
    {
      "inputs": [],
      "name": "totalSupply",
      "outputs": [
        {
          "internalType": "uint256",
          "name": "",
          "type": "uint256"
        }
      ],
      "stateMutability": "view",
      "type": "function"
    },
    {
      "inputs": [
        {
          "internalType": "address",
          "name": "from",
          "type": "address"
        },
        {
          "internalType": "address",
          "name": "to",
          "type": "address"
        },
        {
          "internalType": "uint256",
          "name": "tokenId",
          "type": "uint256"
        }
      ],
      "name": "transferFrom",
      "outputs": [],
      "stateMutability": "nonpayable",
      "type": "function"
    },
    {
      "inputs": [
        {
          "internalType": "address",
          "name": "newOwner",
          "type": "address"
        }
      ],
      "name": "transferOwnership",
      "outputs": [],
      "stateMutability": "nonpayable",
      "type": "function"
    },
    {
      "inputs": [],
      "name": "unPause",
      "outputs": [],
      "stateMutability": "nonpayable",
      "type": "function"
    },
    {
      "stateMutability": "payable",
      "type": "receive"
    }
  ],
  "bytecode": "0x60a06040523480156200001157600080fd5b506040516200570a3803806200570a833981810160405281019062000037919062000758565b601160000160089054906101000a900473ffffffffffffffffffffffffffffffffffffffff166040518060400160405280600981526020017f5469636b65744e465400000000000000000000000000000000000000000000008152506040518060400160405280600381526020017f544b5400000000000000000000000000000000000000000000000000000000008152508160009080519060200190620000e1929190620005ce565b508060019080519060200190620000fa929190620005ce565b5050506200011d620001116200043460201b60201c565b6200043c60201b60201c565b6000600b60146101000a81548160ff0219169083151502179055508073ffffffffffffffffffffffffffffffffffffffff1660808173ffffffffffffffffffffffffffffffffffffffff1660601b815250505089601481905550886015819055506040518060a0016040528089815260200188815260200187815260200186815260200185815250600c6000820151816000019080519060200190620001c5929190620005ce565b506020820151816001019080519060200190620001e4929190620005ce565b50604082015181600201908051906020019062000203929190620005ce565b5060608201518160030155608082015181600401559050506040518060c001604052808467ffffffffffffffff1681526020018373ffffffffffffffffffffffffffffffffffffffff168152602001828152602001622625a063ffffffff168152602001600361ffff168152602001600163ffffffff16815250601160008201518160000160006101000a81548167ffffffffffffffff021916908367ffffffffffffffff16021790555060208201518160000160086101000a81548173ffffffffffffffffffffffffffffffffffffffff021916908373ffffffffffffffffffffffffffffffffffffffff1602179055506040820151816001015560608201518160020160006101000a81548163ffffffff021916908363ffffffff16021790555060808201518160020160046101000a81548161ffff021916908361ffff16021790555060a08201518160020160066101000a81548163ffffffff021916908363ffffffff160217905550905050601160000160089054906101000a900473ffffffffffffffffffffffffffffffffffffffff16601a60006101000a81548173ffffffffffffffffffffffffffffffffffffffff021916908373ffffffffffffffffffffffffffffffffffffffff160217905550620004246040518060400160405280601581526020017f436f6e747261637420696e7374616e74696174656400000000000000000000008152506200050260201b620016c11760201c565b5050505050505050505062000b74565b600033905090565b6000600b60009054906101000a900473ffffffffffffffffffffffffffffffffffffffff16905081600b60006101000a81548173ffffffffffffffffffffffffffffffffffffffff021916908373ffffffffffffffffffffffffffffffffffffffff1602179055508173ffffffffffffffffffffffffffffffffffffffff168173ffffffffffffffffffffffffffffffffffffffff167f8be0079c531659141344cd1fd0a4f28419497f9722a3daafe3b4186f6b6457e060405160405180910390a35050565b620005a281604051602401620005199190620008ec565b6040516020818303038152906040527f41304fac000000000000000000000000000000000000000000000000000000007bffffffffffffffffffffffffffffffffffffffffffffffffffffffff19166020820180517bffffffffffffffffffffffffffffffffffffffffffffffffffffffff8381831617835250505050620005a560201b60201c565b50565b60008151905060006a636f6e736f6c652e6c6f679050602083016000808483855afa5050505050565b828054620005dc9062000a1d565b90600052602060002090601f0160209004810192826200060057600085556200064c565b82601f106200061b57805160ff19168380011785556200064c565b828001600101855582156200064c579182015b828111156200064b5782518255916020019190600101906200062e565b5b5090506200065b91906200065f565b5090565b5b808211156200067a57600081600090555060010162000660565b5090565b6000620006956200068f8462000939565b62000910565b905082815260208101848484011115620006b457620006b362000aec565b5b620006c1848285620009e7565b509392505050565b600081519050620006da8162000b0c565b92915050565b600081519050620006f18162000b26565b92915050565b600082601f8301126200070f576200070e62000ae7565b5b8151620007218482602086016200067e565b91505092915050565b6000815190506200073b8162000b40565b92915050565b600081519050620007528162000b5a565b92915050565b6000806000806000806000806000806101408b8d0312156200077f576200077e62000af6565b5b60006200078f8d828e016200072a565b9a50506020620007a28d828e016200072a565b99505060408b015167ffffffffffffffff811115620007c657620007c562000af1565b5b620007d48d828e01620006f7565b98505060608b015167ffffffffffffffff811115620007f857620007f762000af1565b5b620008068d828e01620006f7565b97505060808b015167ffffffffffffffff8111156200082a576200082962000af1565b5b620008388d828e01620006f7565b96505060a06200084b8d828e016200072a565b95505060c06200085e8d828e016200072a565b94505060e0620008718d828e0162000741565b935050610100620008858d828e01620006c9565b925050610120620008998d828e01620006e0565b9150509295989b9194979a5092959850565b6000620008b8826200096f565b620008c481856200097a565b9350620008d6818560208601620009e7565b620008e18162000afb565b840191505092915050565b60006020820190508181036000830152620009088184620008ab565b905092915050565b60006200091c6200092f565b90506200092a828262000a53565b919050565b6000604051905090565b600067ffffffffffffffff82111562000957576200095662000ab8565b5b620009628262000afb565b9050602081019050919050565b600081519050919050565b600082825260208201905092915050565b60006200099882620009a9565b9050919050565b6000819050919050565b600073ffffffffffffffffffffffffffffffffffffffff82169050919050565b6000819050919050565b600067ffffffffffffffff82169050919050565b60005b8381101562000a07578082015181840152602081019050620009ea565b8381111562000a17576000848401525b50505050565b6000600282049050600182168062000a3657607f821691505b6020821081141562000a4d5762000a4c62000a89565b5b50919050565b62000a5e8262000afb565b810181811067ffffffffffffffff8211171562000a805762000a7f62000ab8565b5b80604052505050565b7f4e487b7100000000000000000000000000000000000000000000000000000000600052602260045260246000fd5b7f4e487b7100000000000000000000000000000000000000000000000000000000600052604160045260246000fd5b600080fd5b600080fd5b600080fd5b600080fd5b6000601f19601f8301169050919050565b62000b17816200098b565b811462000b2357600080fd5b50565b62000b31816200099f565b811462000b3d57600080fd5b50565b62000b4b81620009c9565b811462000b5757600080fd5b50565b62000b6581620009d3565b811462000b7157600080fd5b50565b60805160601c614b7062000b9a60003960008181610b120152610b660152614b706000f3fe6080604052600436106102295760003560e01c806370a0823111610123578063abc6184c116100ab578063e985e9c51161006f578063e985e9c5146107dc578063ee4ae2c914610819578063f2fde38b14610842578063f4a0a5281461086b578063f7b188a51461089457610238565b8063abc6184c146106f7578063b88d4fde14610734578063c87b56dd1461075d578063dbdff2c11461079a578063e0c86289146107c557610238565b80638da5cb5b116100f25780638da5cb5b1461061057806395d89b411461063b578063a188342f14610666578063a22cb465146106a3578063a7f93ebd146106cc57610238565b806370a082311461057c578063715018a6146105b95780638456cb59146105d0578063889e47a7146105e757610238565b806342842e0e116101b15780636352211e116101755780636352211e146104b65780636817c76c146104f35780636d26ec181461051e5780636e02007d146105285780636f8b44b01461055357610238565b806342842e0e146103f05780634c0f38c2146104195780634f6ccce714610444578063573c80fa146104815780635c975abb1461048b57610238565b806312065fe0116101f857806312065fe01461030b57806318160ddd146103365780631fe543e31461036157806323b872dd1461038a5780632f745c59146103b357610238565b806301ffc9a71461023d57806306fdde031461027a578063081812fc146102a5578063095ea7b3146102e257610238565b36610238576102366108ab565b005b600080fd5b34801561024957600080fd5b50610264600480360381019061025f9190613662565b6108ef565b6040516102719190613c96565b60405180910390f35b34801561028657600080fd5b5061028f610901565b60405161029c9190613d04565b60405180910390f35b3480156102b157600080fd5b506102cc60048036038101906102c791906136bc565b610993565b6040516102d99190613bc1565b60405180910390f35b3480156102ee57600080fd5b5061030960048036038101906103049190613622565b6109d9565b005b34801561031757600080fd5b50610320610af1565b60405161032d9190614034565b60405180910390f35b34801561034257600080fd5b5061034b610b03565b6040516103589190614034565b60405180910390f35b34801561036d57600080fd5b5061038860048036038101906103839190613756565b610b10565b005b34801561039657600080fd5b506103b160048036038101906103ac919061350c565b610bd0565b005b3480156103bf57600080fd5b506103da60048036038101906103d59190613622565b610c30565b6040516103e79190614034565b60405180910390f35b3480156103fc57600080fd5b506104176004803603810190610412919061350c565b610cd5565b005b34801561042557600080fd5b5061042e610cf5565b60405161043b9190614034565b60405180910390f35b34801561045057600080fd5b5061046b600480360381019061046691906136bc565b610d07565b6040516104789190614034565b60405180910390f35b610489610d78565b005b34801561049757600080fd5b506104a0610f3d565b6040516104ad9190613c96565b60405180910390f35b3480156104c257600080fd5b506104dd60048036038101906104d891906136bc565b610f54565b6040516104ea9190613bc1565b60405180910390f35b3480156104ff57600080fd5b50610508611006565b6040516105159190614034565b60405180910390f35b6105266108ab565b005b34801561053457600080fd5b5061053d61100c565b60405161054a9190614034565b60405180910390f35b34801561055f57600080fd5b5061057a600480360381019061057591906136bc565b611025565b005b34801561058857600080fd5b506105a3600480360381019061059e919061349f565b611083565b6040516105b09190614034565b60405180910390f35b3480156105c557600080fd5b506105ce61113b565b005b3480156105dc57600080fd5b506105e561114f565b005b3480156105f357600080fd5b5061060e60048036038101906106099190613716565b611161565b005b34801561061c57600080fd5b506106256111ab565b6040516106329190613bc1565b60405180910390f35b34801561064757600080fd5b506106506111d5565b60405161065d9190613d04565b60405180910390f35b34801561067257600080fd5b5061068d600480360381019061068891906136bc565b611267565b60405161069a9190613d04565b60405180910390f35b3480156106af57600080fd5b506106ca60048036038101906106c591906135e2565b61129f565b005b3480156106d857600080fd5b506106e16112b5565b6040516106ee9190614034565b60405180910390f35b34801561070357600080fd5b5061071e600480360381019061071991906136bc565b6112c7565b60405161072b9190613c96565b60405180910390f35b34801561074057600080fd5b5061075b6004803603810190610756919061355f565b6112da565b005b34801561076957600080fd5b50610784600480360381019061077f91906136bc565b61133c565b6040516107919190613d04565b60405180910390f35b3480156107a657600080fd5b506107af61134e565b6040516107bc9190614034565b60405180910390f35b3480156107d157600080fd5b506107da61139d565b005b3480156107e857600080fd5b5061080360048036038101906107fe91906134cc565b611532565b6040516108109190613c96565b60405180910390f35b34801561082557600080fd5b50610840600480360381019061083b9190613622565b6115c6565b005b34801561084e57600080fd5b506108696004803603810190610864919061349f565b611619565b005b34801561087757600080fd5b50610892600480360381019061088d91906136bc565b61169d565b005b3480156108a057600080fd5b506108a96116af565b005b6017546108c36017543461175a90919063ffffffff16565b10156108d2576108d16143d5565b5b6108e73460175461175a90919063ffffffff16565b601781905550565b60006108fa82611770565b9050919050565b606060008054610910906142f8565b80601f016020809104026020016040519081016040528092919081815260200182805461093c906142f8565b80156109895780601f1061095e57610100808354040283529160200191610989565b820191906000526020600020905b81548152906001019060200180831161096c57829003601f168201915b5050505050905090565b600061099e826117ea565b6004600083815260200190815260200160002060009054906101000a900473ffffffffffffffffffffffffffffffffffffffff169050919050565b60006109e482610f54565b90508073ffffffffffffffffffffffffffffffffffffffff168373ffffffffffffffffffffffffffffffffffffffff161415610a55576040517f08c379a0000000000000000000000000000000000000000000000000000000008152600401610a4c90613fb4565b60405180910390fd5b8073ffffffffffffffffffffffffffffffffffffffff16610a74611835565b73ffffffffffffffffffffffffffffffffffffffff161480610aa35750610aa281610a9d611835565b611532565b5b610ae2576040517f08c379a0000000000000000000000000000000000000000000000000000000008152600401610ad990613f34565b60405180910390fd5b610aec838361183d565b505050565b6000610afb6118f6565b601754905090565b6000600980549050905090565b7f000000000000000000000000000000000000000000000000000000000000000073ffffffffffffffffffffffffffffffffffffffff163373ffffffffffffffffffffffffffffffffffffffff1614610bc257337f00000000000000000000000000000000000000000000000000000000000000006040517f1cf993f4000000000000000000000000000000000000000000000000000000008152600401610bb9929190613bdc565b60405180910390fd5b610bcc8282611974565b5050565b610be1610bdb611835565b82611a0a565b610c20576040517f08c379a0000000000000000000000000000000000000000000000000000000008152600401610c1790614014565b60405180910390fd5b610c2b838383611a9f565b505050565b6000610c3b83611083565b8210610c7c576040517f08c379a0000000000000000000000000000000000000000000000000000000008152600401610c7390613db4565b60405180910390fd5b600760008473ffffffffffffffffffffffffffffffffffffffff1673ffffffffffffffffffffffffffffffffffffffff168152602001908152602001600020600083815260200190815260200160002054905092915050565b610cf0838383604051806020016040528060008152506112da565b505050565b6000610cff611d06565b601454905090565b6000610d11610b03565b8210610d52576040517f08c379a0000000000000000000000000000000000000000000000000000000008152600401610d4990613fd4565b60405180910390fd5b60098281548110610d6657610d656144c0565b5b90600052602060002001549050919050565b610d80611d06565b601554341015610dc5576040517f08c379a0000000000000000000000000000000000000000000000000000000008152600401610dbc90613e54565b60405180910390fd5b6000610dd16016611d50565b9050610df6604051806060016040528060258152602001614b16602591398233611d5e565b610e003382611dfd565b600080601c60003373ffffffffffffffffffffffffffffffffffffffff1673ffffffffffffffffffffffffffffffffffffffff1681526020019081526020016000205414610e8b57601c60003373ffffffffffffffffffffffffffffffffffffffff1673ffffffffffffffffffffffffffffffffffffffff1681526020019081526020016000205490505b610ea582610ea0610e9b84611e1b565b611e3d565b61202b565b610eaf601661209f565b610eb76120b5565b610ef86040518060400160405280600e81526020017f6d696e7465644e6674733a202573000000000000000000000000000000000000815250601854612119565b7f64bd16642eed00863590d7320e06c0f31bb0468a971feede4e13313e3b2792243383601854601454604051610f319493929190613c51565b60405180910390a15050565b6000600b60149054906101000a900460ff16905090565b6000806002600084815260200190815260200160002060009054906101000a900473ffffffffffffffffffffffffffffffffffffffff169050600073ffffffffffffffffffffffffffffffffffffffff168173ffffffffffffffffffffffffffffffffffffffff161415610ffd576040517f08c379a0000000000000000000000000000000000000000000000000000000008152600401610ff490613f94565b60405180910390fd5b80915050919050565b60155481565b6000611016611d06565b6110206016611d50565b905090565b61102d611d06565b6110356118f6565b6014548111611079576040517f08c379a000000000000000000000000000000000000000000000000000000000815260040161107090613ff4565b60405180910390fd5b8060148190555050565b60008073ffffffffffffffffffffffffffffffffffffffff168273ffffffffffffffffffffffffffffffffffffffff1614156110f4576040517f08c379a00000000000000000000000000000000000000000000000000000000081526004016110eb90613ef4565b60405180910390fd5b600360008373ffffffffffffffffffffffffffffffffffffffff1673ffffffffffffffffffffffffffffffffffffffff168152602001908152602001600020549050919050565b6111436118f6565b61114d60006121b5565b565b6111576118f6565b61115f61227b565b565b61116c338284610bd0565b7fdba6731bbbfcff209246a4aee1d833836d6766f6515735cda63c0170318fc05182338360405161119f9392919061404f565b60405180910390a15050565b6000600b60009054906101000a900473ffffffffffffffffffffffffffffffffffffffff16905090565b6060600180546111e4906142f8565b80601f0160208091040260200160405190810160405280929190818152602001828054611210906142f8565b801561125d5780601f106112325761010080835404028352916020019161125d565b820191906000526020600020905b81548152906001019060200180831161124057829003601f168201915b5050505050905090565b6060611272826112c7565b1561128757611280826122de565b905061129a565b6040518060200160405280600081525090505b919050565b6112b16112aa611835565b83836123f1565b5050565b60006112bf611d06565b601554905090565b60006112d33383611a0a565b9050919050565b6112eb6112e5611835565b83611a0a565b61132a576040517f08c379a000000000000000000000000000000000000000000000000000000000815260040161132190614014565b60405180910390fd5b6113368484848461255e565b50505050565b6060611347826122de565b9050919050565b6000611398601c60003373ffffffffffffffffffffffffffffffffffffffff1673ffffffffffffffffffffffffffffffffffffffff16815260200190815260200160002054611e1b565b905090565b6000601a60009054906101000a900473ffffffffffffffffffffffffffffffffffffffff1673ffffffffffffffffffffffffffffffffffffffff16635d3b1d30601160010154601160000160009054906101000a900467ffffffffffffffff16601160020160049054906101000a900461ffff16601160020160009054906101000a900463ffffffff16601160020160069054906101000a900463ffffffff166040518663ffffffff1660e01b815260040161145d959493929190613cb1565b602060405180830381600087803b15801561147757600080fd5b505af115801561148b573d6000803e3d6000fd5b505050506040513d601f19601f820116820180604052508101906114af91906136e9565b905033601b600083815260200190815260200160002060006101000a81548173ffffffffffffffffffffffffffffffffffffffff021916908373ffffffffffffffffffffffffffffffffffffffff1602179055507f91e24f53c60e8be42843efd8e1af91ddb6857a39a412185cd11aefcf28d4bf6e60405160405180910390a150565b6000600560008473ffffffffffffffffffffffffffffffffffffffff1673ffffffffffffffffffffffffffffffffffffffff16815260200190815260200160002060008373ffffffffffffffffffffffffffffffffffffffff1673ffffffffffffffffffffffffffffffffffffffff16815260200190815260200160002060009054906101000a900460ff16905092915050565b6115ce6118f6565b8173ffffffffffffffffffffffffffffffffffffffff166108fc829081150290604051600060405180830381858888f19350505050158015611614573d6000803e3d6000fd5b505050565b6116216118f6565b600073ffffffffffffffffffffffffffffffffffffffff168173ffffffffffffffffffffffffffffffffffffffff161415611691576040517f08c379a000000000000000000000000000000000000000000000000000000000815260040161168890613df4565b60405180910390fd5b61169a816121b5565b50565b6116a56118f6565b8060158190555050565b6116b76118f6565b6116bf6125ba565b565b611757816040516024016116d59190613d04565b6040516020818303038152906040527f41304fac000000000000000000000000000000000000000000000000000000007bffffffffffffffffffffffffffffffffffffffffffffffffffffffff19166020820180517bffffffffffffffffffffffffffffffffffffffffffffffffffffffff838183161783525050505061261d565b50565b60008183611768919061414b565b905092915050565b60007f780e9d63000000000000000000000000000000000000000000000000000000007bffffffffffffffffffffffffffffffffffffffffffffffffffffffff1916827bffffffffffffffffffffffffffffffffffffffffffffffffffffffff191614806117e357506117e282612646565b5b9050919050565b6117f381612728565b611832576040517f08c379a000000000000000000000000000000000000000000000000000000000815260040161182990613f94565b60405180910390fd5b50565b600033905090565b816004600083815260200190815260200160002060006101000a81548173ffffffffffffffffffffffffffffffffffffffff021916908373ffffffffffffffffffffffffffffffffffffffff160217905550808273ffffffffffffffffffffffffffffffffffffffff166118b083610f54565b73ffffffffffffffffffffffffffffffffffffffff167f8c5be1e5ebec7d5bd14f71427d1e84f3dd0314c0f7b2291e5b200ac8c7c3b92560405160405180910390a45050565b6118fe611835565b73ffffffffffffffffffffffffffffffffffffffff1661191c6111ab565b73ffffffffffffffffffffffffffffffffffffffff1614611972576040517f08c379a000000000000000000000000000000000000000000000000000000000815260040161196990613f74565b60405180910390fd5b565b80600081518110611988576119876144c0565b5b6020026020010151601c6000601b600086815260200190815260200160002060009054906101000a900473ffffffffffffffffffffffffffffffffffffffff1673ffffffffffffffffffffffffffffffffffffffff1673ffffffffffffffffffffffffffffffffffffffff168152602001908152602001600020819055505050565b600080611a1683610f54565b90508073ffffffffffffffffffffffffffffffffffffffff168473ffffffffffffffffffffffffffffffffffffffff161480611a585750611a578185611532565b5b80611a9657508373ffffffffffffffffffffffffffffffffffffffff16611a7e84610993565b73ffffffffffffffffffffffffffffffffffffffff16145b91505092915050565b8273ffffffffffffffffffffffffffffffffffffffff16611abf82610f54565b73ffffffffffffffffffffffffffffffffffffffff1614611b15576040517f08c379a0000000000000000000000000000000000000000000000000000000008152600401611b0c90613e14565b60405180910390fd5b600073ffffffffffffffffffffffffffffffffffffffff168273ffffffffffffffffffffffffffffffffffffffff161415611b85576040517f08c379a0000000000000000000000000000000000000000000000000000000008152600401611b7c90613e74565b60405180910390fd5b611b90838383612794565b611b9b60008261183d565b6001600360008573ffffffffffffffffffffffffffffffffffffffff1673ffffffffffffffffffffffffffffffffffffffff1681526020019081526020016000206000828254611beb91906141d2565b925050819055506001600360008473ffffffffffffffffffffffffffffffffffffffff1673ffffffffffffffffffffffffffffffffffffffff1681526020019081526020016000206000828254611c42919061414b565b92505081905550816002600083815260200190815260200160002060006101000a81548173ffffffffffffffffffffffffffffffffffffffff021916908373ffffffffffffffffffffffffffffffffffffffff160217905550808273ffffffffffffffffffffffffffffffffffffffff168473ffffffffffffffffffffffffffffffffffffffff167fddf252ad1be2c89b69c2b068fc378daa952ba7f163c4a11628f55a4df523b3ef60405160405180910390a4611d018383836127a4565b505050565b611d0e610f3d565b15611d4e576040517f08c379a0000000000000000000000000000000000000000000000000000000008152600401611d4590613ed4565b60405180910390fd5b565b600081600001549050919050565b611df8838383604051602401611d7693929190613d56565b6040516020818303038152906040527fe3849f79000000000000000000000000000000000000000000000000000000007bffffffffffffffffffffffffffffffffffffffffffffffffffffffff19166020820180517bffffffffffffffffffffffffffffffffffffffffffffffffffffffff838183161783525050505061261d565b505050565b611e178282604051806020016040528060008152506127a9565b5050565b60006001606483611e2c91906143a4565b611e36919061414b565b9050919050565b6060600c600301548210158015611e595750600c600401548211155b15611ef357600c6001018054611e6e906142f8565b80601f0160208091040260200160405190810160405280929190818152602001828054611e9a906142f8565b8015611ee75780601f10611ebc57610100808354040283529160200191611ee7565b820191906000526020600020905b815481529060010190602001808311611eca57829003601f168201915b50505050509050612026565b600c60040154821115611f9557600c6002018054611f10906142f8565b80601f0160208091040260200160405190810160405280929190818152602001828054611f3c906142f8565b8015611f895780601f10611f5e57610100808354040283529160200191611f89565b820191906000526020600020905b815481529060010190602001808311611f6c57829003601f168201915b50505050509050612026565b600c6000018054611fa5906142f8565b80601f0160208091040260200160405190810160405280929190818152602001828054611fd1906142f8565b801561201e5780601f10611ff35761010080835404028352916020019161201e565b820191906000526020600020905b81548152906001019060200180831161200157829003601f168201915b505050505090505b919050565b61203482612728565b612073576040517f08c379a000000000000000000000000000000000000000000000000000000000815260040161206a90613f14565b60405180910390fd5b8060066000848152602001908152602001600020908051906020019061209a929190613270565b505050565b6001816000016000828254019250508190555050565b601454601854106120fb576040517f08c379a00000000000000000000000000000000000000000000000000000000081526004016120f290613eb4565b60405180910390fd5b612111600160185461175a90919063ffffffff16565b601881905550565b6121b1828260405160240161212f929190613d26565b6040516020818303038152906040527f9710a9d0000000000000000000000000000000000000000000000000000000007bffffffffffffffffffffffffffffffffffffffffffffffffffffffff19166020820180517bffffffffffffffffffffffffffffffffffffffffffffffffffffffff838183161783525050505061261d565b5050565b6000600b60009054906101000a900473ffffffffffffffffffffffffffffffffffffffff16905081600b60006101000a81548173ffffffffffffffffffffffffffffffffffffffff021916908373ffffffffffffffffffffffffffffffffffffffff1602179055508173ffffffffffffffffffffffffffffffffffffffff168173ffffffffffffffffffffffffffffffffffffffff167f8be0079c531659141344cd1fd0a4f28419497f9722a3daafe3b4186f6b6457e060405160405180910390a35050565b612283611d06565b6001600b60146101000a81548160ff0219169083151502179055507f62e78cea01bee320cd4e420270b5ea74000d11b0c9f74754ebdbfc544b05a2586122c7611835565b6040516122d49190613bc1565b60405180910390a1565b60606122e9826117ea565b6000600660008481526020019081526020016000208054612309906142f8565b80601f0160208091040260200160405190810160405280929190818152602001828054612335906142f8565b80156123825780601f1061235757610100808354040283529160200191612382565b820191906000526020600020905b81548152906001019060200180831161236557829003601f168201915b505050505090506000612393612804565b90506000815114156123a95781925050506123ec565b6000825111156123de5780826040516020016123c6929190613b9d565b604051602081830303815290604052925050506123ec565b6123e784612841565b925050505b919050565b8173ffffffffffffffffffffffffffffffffffffffff168373ffffffffffffffffffffffffffffffffffffffff161415612460576040517f08c379a000000000000000000000000000000000000000000000000000000000815260040161245790613e94565b60405180910390fd5b80600560008573ffffffffffffffffffffffffffffffffffffffff1673ffffffffffffffffffffffffffffffffffffffff16815260200190815260200160002060008473ffffffffffffffffffffffffffffffffffffffff1673ffffffffffffffffffffffffffffffffffffffff16815260200190815260200160002060006101000a81548160ff0219169083151502179055508173ffffffffffffffffffffffffffffffffffffffff168373ffffffffffffffffffffffffffffffffffffffff167f17307eab39ab6107e8899845ad3d59bd9653f200f220920489ca2b5937696c31836040516125519190613c96565b60405180910390a3505050565b612569848484611a9f565b612575848484846128a9565b6125b4576040517f08c379a00000000000000000000000000000000000000000000000000000000081526004016125ab90613dd4565b60405180910390fd5b50505050565b6125c2612a40565b6000600b60146101000a81548160ff0219169083151502179055507f5db9ee0a495bf2e6ff9c91a7834c1ba4fdd244a5e8aa4e537bd38aeae4b073aa612606611835565b6040516126139190613bc1565b60405180910390a1565b60008151905060006a636f6e736f6c652e6c6f679050602083016000808483855afa5050505050565b60007f80ac58cd000000000000000000000000000000000000000000000000000000007bffffffffffffffffffffffffffffffffffffffffffffffffffffffff1916827bffffffffffffffffffffffffffffffffffffffffffffffffffffffff1916148061271157507f5b5e139f000000000000000000000000000000000000000000000000000000007bffffffffffffffffffffffffffffffffffffffffffffffffffffffff1916827bffffffffffffffffffffffffffffffffffffffffffffffffffffffff1916145b80612721575061272082612a89565b5b9050919050565b60008073ffffffffffffffffffffffffffffffffffffffff166002600084815260200190815260200160002060009054906101000a900473ffffffffffffffffffffffffffffffffffffffff1673ffffffffffffffffffffffffffffffffffffffff1614159050919050565b61279f838383612af3565b505050565b505050565b6127b38383612c07565b6127c060008484846128a9565b6127ff576040517f08c379a00000000000000000000000000000000000000000000000000000000081526004016127f690613dd4565b60405180910390fd5b505050565b60606040518060400160405280600781526020017f697066733a2f2f00000000000000000000000000000000000000000000000000815250905090565b606061284c826117ea565b6000612856612804565b9050600081511161287657604051806020016040528060008152506128a1565b8061288084612de1565b604051602001612891929190613b9d565b6040516020818303038152906040525b915050919050565b60006128ca8473ffffffffffffffffffffffffffffffffffffffff16612f42565b15612a33578373ffffffffffffffffffffffffffffffffffffffff1663150b7a026128f3611835565b8786866040518563ffffffff1660e01b81526004016129159493929190613c05565b602060405180830381600087803b15801561292f57600080fd5b505af192505050801561296057506040513d601f19601f8201168201806040525081019061295d919061368f565b60015b6129e3573d8060008114612990576040519150601f19603f3d011682016040523d82523d6000602084013e612995565b606091505b506000815114156129db576040517f08c379a00000000000000000000000000000000000000000000000000000000081526004016129d290613dd4565b60405180910390fd5b805181602001fd5b63150b7a0260e01b7bffffffffffffffffffffffffffffffffffffffffffffffffffffffff1916817bffffffffffffffffffffffffffffffffffffffffffffffffffffffff191614915050612a38565b600190505b949350505050565b612a48610f3d565b612a87576040517f08c379a0000000000000000000000000000000000000000000000000000000008152600401612a7e90613d94565b60405180910390fd5b565b60007f01ffc9a7000000000000000000000000000000000000000000000000000000007bffffffffffffffffffffffffffffffffffffffffffffffffffffffff1916827bffffffffffffffffffffffffffffffffffffffffffffffffffffffff1916149050919050565b612afe838383612f65565b600073ffffffffffffffffffffffffffffffffffffffff168373ffffffffffffffffffffffffffffffffffffffff161415612b4157612b3c81612f6a565b612b80565b8173ffffffffffffffffffffffffffffffffffffffff168373ffffffffffffffffffffffffffffffffffffffff1614612b7f57612b7e8382612fb3565b5b5b600073ffffffffffffffffffffffffffffffffffffffff168273ffffffffffffffffffffffffffffffffffffffff161415612bc357612bbe81613120565b612c02565b8273ffffffffffffffffffffffffffffffffffffffff168273ffffffffffffffffffffffffffffffffffffffff1614612c0157612c0082826131f1565b5b5b505050565b600073ffffffffffffffffffffffffffffffffffffffff168273ffffffffffffffffffffffffffffffffffffffff161415612c77576040517f08c379a0000000000000000000000000000000000000000000000000000000008152600401612c6e90613f54565b60405180910390fd5b612c8081612728565b15612cc0576040517f08c379a0000000000000000000000000000000000000000000000000000000008152600401612cb790613e34565b60405180910390fd5b612ccc60008383612794565b6001600360008473ffffffffffffffffffffffffffffffffffffffff1673ffffffffffffffffffffffffffffffffffffffff1681526020019081526020016000206000828254612d1c919061414b565b92505081905550816002600083815260200190815260200160002060006101000a81548173ffffffffffffffffffffffffffffffffffffffff021916908373ffffffffffffffffffffffffffffffffffffffff160217905550808273ffffffffffffffffffffffffffffffffffffffff16600073ffffffffffffffffffffffffffffffffffffffff167fddf252ad1be2c89b69c2b068fc378daa952ba7f163c4a11628f55a4df523b3ef60405160405180910390a4612ddd600083836127a4565b5050565b60606000821415612e29576040518060400160405280600181526020017f30000000000000000000000000000000000000000000000000000000000000008152509050612f3d565b600082905060005b60008214612e5b578080612e449061435b565b915050600a82612e5491906141a1565b9150612e31565b60008167ffffffffffffffff811115612e7757612e766144ef565b5b6040519080825280601f01601f191660200182016040528015612ea95781602001600182028036833780820191505090505b5090505b60008514612f3657600182612ec291906141d2565b9150600a85612ed191906143a4565b6030612edd919061414b565b60f81b818381518110612ef357612ef26144c0565b5b60200101907effffffffffffffffffffffffffffffffffffffffffffffffffffffffffffff1916908160001a905350600a85612f2f91906141a1565b9450612ead565b8093505050505b919050565b6000808273ffffffffffffffffffffffffffffffffffffffff163b119050919050565b505050565b600980549050600a600083815260200190815260200160002081905550600981908060018154018082558091505060019003906000526020600020016000909190919091505550565b60006001612fc084611083565b612fca91906141d2565b90506000600860008481526020019081526020016000205490508181146130af576000600760008673ffffffffffffffffffffffffffffffffffffffff1673ffffffffffffffffffffffffffffffffffffffff168152602001908152602001600020600084815260200190815260200160002054905080600760008773ffffffffffffffffffffffffffffffffffffffff1673ffffffffffffffffffffffffffffffffffffffff168152602001908152602001600020600084815260200190815260200160002081905550816008600083815260200190815260200160002081905550505b6008600084815260200190815260200160002060009055600760008573ffffffffffffffffffffffffffffffffffffffff1673ffffffffffffffffffffffffffffffffffffffff16815260200190815260200160002060008381526020019081526020016000206000905550505050565b6000600160098054905061313491906141d2565b90506000600a6000848152602001908152602001600020549050600060098381548110613164576131636144c0565b5b906000526020600020015490508060098381548110613186576131856144c0565b5b906000526020600020018190555081600a600083815260200190815260200160002081905550600a60008581526020019081526020016000206000905560098054806131d5576131d4614491565b5b6001900381819060005260206000200160009055905550505050565b60006131fc83611083565b905081600760008573ffffffffffffffffffffffffffffffffffffffff1673ffffffffffffffffffffffffffffffffffffffff168152602001908152602001600020600083815260200190815260200160002081905550806008600084815260200190815260200160002081905550505050565b82805461327c906142f8565b90600052602060002090601f01602090048101928261329e57600085556132e5565b82601f106132b757805160ff19168380011785556132e5565b828001600101855582156132e5579182015b828111156132e45782518255916020019190600101906132c9565b5b5090506132f291906132f6565b5090565b5b8082111561330f5760008160009055506001016132f7565b5090565b6000613326613321846140ab565b614086565b9050808382526020820190508285602086028201111561334957613348614523565b5b60005b85811015613379578161335f8882613475565b84526020840193506020830192505060018101905061334c565b5050509392505050565b6000613396613391846140d7565b614086565b9050828152602081018484840111156133b2576133b1614528565b5b6133bd8482856142b6565b509392505050565b6000813590506133d481614ab9565b92915050565b600082601f8301126133ef576133ee61451e565b5b81356133ff848260208601613313565b91505092915050565b60008135905061341781614ad0565b92915050565b60008135905061342c81614ae7565b92915050565b60008151905061344181614ae7565b92915050565b600082601f83011261345c5761345b61451e565b5b813561346c848260208601613383565b91505092915050565b60008135905061348481614afe565b92915050565b60008151905061349981614afe565b92915050565b6000602082840312156134b5576134b4614532565b5b60006134c3848285016133c5565b91505092915050565b600080604083850312156134e3576134e2614532565b5b60006134f1858286016133c5565b9250506020613502858286016133c5565b9150509250929050565b60008060006060848603121561352557613524614532565b5b6000613533868287016133c5565b9350506020613544868287016133c5565b925050604061355586828701613475565b9150509250925092565b6000806000806080858703121561357957613578614532565b5b6000613587878288016133c5565b9450506020613598878288016133c5565b93505060406135a987828801613475565b925050606085013567ffffffffffffffff8111156135ca576135c961452d565b5b6135d687828801613447565b91505092959194509250565b600080604083850312156135f9576135f8614532565b5b6000613607858286016133c5565b925050602061361885828601613408565b9150509250929050565b6000806040838503121561363957613638614532565b5b6000613647858286016133c5565b925050602061365885828601613475565b9150509250929050565b60006020828403121561367857613677614532565b5b60006136868482850161341d565b91505092915050565b6000602082840312156136a5576136a4614532565b5b60006136b384828501613432565b91505092915050565b6000602082840312156136d2576136d1614532565b5b60006136e084828501613475565b91505092915050565b6000602082840312156136ff576136fe614532565b5b600061370d8482850161348a565b91505092915050565b6000806040838503121561372d5761372c614532565b5b600061373b85828601613475565b925050602061374c858286016133c5565b9150509250929050565b6000806040838503121561376d5761376c614532565b5b600061377b85828601613475565b925050602083013567ffffffffffffffff81111561379c5761379b61452d565b5b6137a8858286016133da565b9150509250929050565b6137bb81614206565b82525050565b6137ca81614218565b82525050565b6137d981614224565b82525050565b60006137ea82614108565b6137f4818561411e565b93506138048185602086016142c5565b61380d81614537565b840191505092915050565b600061382382614113565b61382d818561412f565b935061383d8185602086016142c5565b61384681614537565b840191505092915050565b600061385c82614113565b6138668185614140565b93506138768185602086016142c5565b80840191505092915050565b600061388f60148361412f565b915061389a82614548565b602082019050919050565b60006138b2602b8361412f565b91506138bd82614571565b604082019050919050565b60006138d560328361412f565b91506138e0826145c0565b604082019050919050565b60006138f860268361412f565b91506139038261460f565b604082019050919050565b600061391b60258361412f565b91506139268261465e565b604082019050919050565b600061393e601c8361412f565b9150613949826146ad565b602082019050919050565b600061396160288361412f565b915061396c826146d6565b604082019050919050565b600061398460248361412f565b915061398f82614725565b604082019050919050565b60006139a760198361412f565b91506139b282614774565b602082019050919050565b60006139ca60298361412f565b91506139d58261479d565b604082019050919050565b60006139ed60108361412f565b91506139f8826147ec565b602082019050919050565b6000613a1060298361412f565b9150613a1b82614815565b604082019050919050565b6000613a33602e8361412f565b9150613a3e82614864565b604082019050919050565b6000613a56603e8361412f565b9150613a61826148b3565b604082019050919050565b6000613a7960208361412f565b9150613a8482614902565b602082019050919050565b6000613a9c60208361412f565b9150613aa78261492b565b602082019050919050565b6000613abf60188361412f565b9150613aca82614954565b602082019050919050565b6000613ae260218361412f565b9150613aed8261497d565b604082019050919050565b6000613b05602c8361412f565b9150613b10826149cc565b604082019050919050565b6000613b2860388361412f565b9150613b3382614a1b565b604082019050919050565b6000613b4b602e8361412f565b9150613b5682614a6a565b604082019050919050565b613b6a8161425a565b82525050565b613b7981614288565b82525050565b613b8881614292565b82525050565b613b97816142a2565b82525050565b6000613ba98285613851565b9150613bb58284613851565b91508190509392505050565b6000602082019050613bd660008301846137b2565b92915050565b6000604082019050613bf160008301856137b2565b613bfe60208301846137b2565b9392505050565b6000608082019050613c1a60008301876137b2565b613c2760208301866137b2565b613c346040830185613b70565b8181036060830152613c4681846137df565b905095945050505050565b6000608082019050613c6660008301876137b2565b613c736020830186613b70565b613c806040830185613b70565b613c8d6060830184613b70565b95945050505050565b6000602082019050613cab60008301846137c1565b92915050565b600060a082019050613cc660008301886137d0565b613cd36020830187613b8e565b613ce06040830186613b61565b613ced6060830185613b7f565b613cfa6080830184613b7f565b9695505050505050565b60006020820190508181036000830152613d1e8184613818565b905092915050565b60006040820190508181036000830152613d408185613818565b9050613d4f6020830184613b70565b9392505050565b60006060820190508181036000830152613d708186613818565b9050613d7f6020830185613b70565b613d8c60408301846137b2565b949350505050565b60006020820190508181036000830152613dad81613882565b9050919050565b60006020820190508181036000830152613dcd816138a5565b9050919050565b60006020820190508181036000830152613ded816138c8565b9050919050565b60006020820190508181036000830152613e0d816138eb565b9050919050565b60006020820190508181036000830152613e2d8161390e565b9050919050565b60006020820190508181036000830152613e4d81613931565b9050919050565b60006020820190508181036000830152613e6d81613954565b9050919050565b60006020820190508181036000830152613e8d81613977565b9050919050565b60006020820190508181036000830152613ead8161399a565b9050919050565b60006020820190508181036000830152613ecd816139bd565b9050919050565b60006020820190508181036000830152613eed816139e0565b9050919050565b60006020820190508181036000830152613f0d81613a03565b9050919050565b60006020820190508181036000830152613f2d81613a26565b9050919050565b60006020820190508181036000830152613f4d81613a49565b9050919050565b60006020820190508181036000830152613f6d81613a6c565b9050919050565b60006020820190508181036000830152613f8d81613a8f565b9050919050565b60006020820190508181036000830152613fad81613ab2565b9050919050565b60006020820190508181036000830152613fcd81613ad5565b9050919050565b60006020820190508181036000830152613fed81613af8565b9050919050565b6000602082019050818103600083015261400d81613b1b565b9050919050565b6000602082019050818103600083015261402d81613b3e565b9050919050565b60006020820190506140496000830184613b70565b92915050565b60006060820190506140646000830186613b70565b61407160208301856137b2565b61407e60408301846137b2565b949350505050565b60006140906140a1565b905061409c828261432a565b919050565b6000604051905090565b600067ffffffffffffffff8211156140c6576140c56144ef565b5b602082029050602081019050919050565b600067ffffffffffffffff8211156140f2576140f16144ef565b5b6140fb82614537565b9050602081019050919050565b600081519050919050565b600081519050919050565b600082825260208201905092915050565b600082825260208201905092915050565b600081905092915050565b600061415682614288565b915061416183614288565b9250827fffffffffffffffffffffffffffffffffffffffffffffffffffffffffffffffff0382111561419657614195614404565b5b828201905092915050565b60006141ac82614288565b91506141b783614288565b9250826141c7576141c6614433565b5b828204905092915050565b60006141dd82614288565b91506141e883614288565b9250828210156141fb576141fa614404565b5b828203905092915050565b600061421182614268565b9050919050565b60008115159050919050565b6000819050919050565b60007fffffffff0000000000000000000000000000000000000000000000000000000082169050919050565b600061ffff82169050919050565b600073ffffffffffffffffffffffffffffffffffffffff82169050919050565b6000819050919050565b600063ffffffff82169050919050565b600067ffffffffffffffff82169050919050565b82818337600083830152505050565b60005b838110156142e35780820151818401526020810190506142c8565b838111156142f2576000848401525b50505050565b6000600282049050600182168061431057607f821691505b6020821081141561432457614323614462565b5b50919050565b61433382614537565b810181811067ffffffffffffffff82111715614352576143516144ef565b5b80604052505050565b600061436682614288565b91507fffffffffffffffffffffffffffffffffffffffffffffffffffffffffffffffff82141561439957614398614404565b5b600182019050919050565b60006143af82614288565b91506143ba83614288565b9250826143ca576143c9614433565b5b828206905092915050565b7f4e487b7100000000000000000000000000000000000000000000000000000000600052600160045260246000fd5b7f4e487b7100000000000000000000000000000000000000000000000000000000600052601160045260246000fd5b7f4e487b7100000000000000000000000000000000000000000000000000000000600052601260045260246000fd5b7f4e487b7100000000000000000000000000000000000000000000000000000000600052602260045260246000fd5b7f4e487b7100000000000000000000000000000000000000000000000000000000600052603160045260246000fd5b7f4e487b7100000000000000000000000000000000000000000000000000000000600052603260045260246000fd5b7f4e487b7100000000000000000000000000000000000000000000000000000000600052604160045260246000fd5b600080fd5b600080fd5b600080fd5b600080fd5b600080fd5b6000601f19601f8301169050919050565b7f5061757361626c653a206e6f7420706175736564000000000000000000000000600082015250565b7f455243373231456e756d657261626c653a206f776e657220696e646578206f7560008201527f74206f6620626f756e6473000000000000000000000000000000000000000000602082015250565b7f4552433732313a207472616e7366657220746f206e6f6e20455243373231526560008201527f63656976657220696d706c656d656e7465720000000000000000000000000000602082015250565b7f4f776e61626c653a206e6577206f776e657220697320746865207a65726f206160008201527f6464726573730000000000000000000000000000000000000000000000000000602082015250565b7f4552433732313a207472616e736665722066726f6d20696e636f72726563742060008201527f6f776e6572000000000000000000000000000000000000000000000000000000602082015250565b7f4552433732313a20746f6b656e20616c7265616479206d696e74656400000000600082015250565b7f4e6f7420656e6f756768204554482073656e742c20706c65617365206368656360008201527f6b20707269636521000000000000000000000000000000000000000000000000602082015250565b7f4552433732313a207472616e7366657220746f20746865207a65726f2061646460008201527f7265737300000000000000000000000000000000000000000000000000000000602082015250565b7f4552433732313a20617070726f766520746f2063616c6c657200000000000000600082015250565b7f4d696e7461626c65206e66747320686176652072656163686564206d6178696d60008201527f756d20737570706c790000000000000000000000000000000000000000000000602082015250565b7f5061757361626c653a2070617573656400000000000000000000000000000000600082015250565b7f4552433732313a2061646472657373207a65726f206973206e6f74206120766160008201527f6c6964206f776e65720000000000000000000000000000000000000000000000602082015250565b7f45524337323155524953746f726167653a2055524920736574206f66206e6f6e60008201527f6578697374656e7420746f6b656e000000000000000000000000000000000000602082015250565b7f4552433732313a20617070726f76652063616c6c6572206973206e6f7420746f60008201527f6b656e206f776e6572206e6f7220617070726f76656420666f7220616c6c0000602082015250565b7f4552433732313a206d696e7420746f20746865207a65726f2061646472657373600082015250565b7f4f776e61626c653a2063616c6c6572206973206e6f7420746865206f776e6572600082015250565b7f4552433732313a20696e76616c696420746f6b656e2049440000000000000000600082015250565b7f4552433732313a20617070726f76616c20746f2063757272656e74206f776e6560008201527f7200000000000000000000000000000000000000000000000000000000000000602082015250565b7f455243373231456e756d657261626c653a20676c6f62616c20696e646578206f60008201527f7574206f6620626f756e64730000000000000000000000000000000000000000602082015250565b7f4e6577206d6178696d756d20737570706c79206d75737420626520677265617460008201527f6572207468616e207468652070726576696f7573206f6e650000000000000000602082015250565b7f4552433732313a2063616c6c6572206973206e6f7420746f6b656e206f776e6560008201527f72206e6f7220617070726f766564000000000000000000000000000000000000602082015250565b614ac281614206565b8114614acd57600080fd5b50565b614ad981614218565b8114614ae457600080fd5b50565b614af08161422e565b8114614afb57600080fd5b50565b614b0781614288565b8114614b1257600080fd5b5056fe416e204e465420772f20494420257320686173206265656e206d696e74656420746f202573a264697066735822122064bf4435d15822a1585b600dabfd84e5024c956a3f4f84f50718082c79ea08ec64736f6c63430008070033",
  "linkReferences": {},
  "deployedLinkReferences": {}
}