{
  "_format": "hh-sol-artifact-1",
  "contractName": "TicketNFTGenerator",
  "sourceName": "contracts/TicketNFTGenerator.sol",
  "abi": [
    {
      "inputs": [
        {
          "internalType": "uint256",
          "name": "_maxSupply",
          "type": "uint256"
        }
      ],
      "stateMutability": "nonpayable",
      "type": "constructor"
    },
    {
      "anonymous": false,
      "inputs": [
        {
          "indexed": true,
          "internalType": "address",
          "name": "owner",
          "type": "address"
        },
        {
          "indexed": true,
          "internalType": "address",
          "name": "approved",
          "type": "address"
        },
        {
          "indexed": true,
          "internalType": "uint256",
          "name": "tokenId",
          "type": "uint256"
        }
      ],
      "name": "Approval",
      "type": "event"
    },
    {
      "anonymous": false,
      "inputs": [
        {
          "indexed": true,
          "internalType": "address",
          "name": "owner",
          "type": "address"
        },
        {
          "indexed": true,
          "internalType": "address",
          "name": "operator",
          "type": "address"
        },
        {
          "indexed": false,
          "internalType": "bool",
          "name": "approved",
          "type": "bool"
        }
      ],
      "name": "ApprovalForAll",
      "type": "event"
    },
    {
      "anonymous": false,
      "inputs": [
        {
          "indexed": true,
          "internalType": "address",
          "name": "previousOwner",
          "type": "address"
        },
        {
          "indexed": true,
          "internalType": "address",
          "name": "newOwner",
          "type": "address"
        }
      ],
      "name": "OwnershipTransferred",
      "type": "event"
    },
    {
      "anonymous": false,
      "inputs": [
        {
          "indexed": false,
          "internalType": "address",
          "name": "account",
          "type": "address"
        }
      ],
      "name": "Paused",
      "type": "event"
    },
    {
      "anonymous": false,
      "inputs": [
        {
          "indexed": false,
          "internalType": "address",
          "name": "sender",
          "type": "address"
        },
        {
          "indexed": false,
          "internalType": "uint256",
          "name": "tokenId",
          "type": "uint256"
        },
        {
          "indexed": false,
          "internalType": "uint256",
          "name": "tokenCounter",
          "type": "uint256"
        },
        {
          "indexed": false,
          "internalType": "uint256",
          "name": "maxSupply",
          "type": "uint256"
        }
      ],
      "name": "TicketMinted",
      "type": "event"
    },
    {
      "anonymous": false,
      "inputs": [
        {
          "indexed": false,
          "internalType": "uint256",
          "name": "tokenId",
          "type": "uint256"
        },
        {
          "indexed": false,
          "internalType": "address",
          "name": "from",
          "type": "address"
        },
        {
          "indexed": false,
          "internalType": "address",
          "name": "to",
          "type": "address"
        }
      ],
      "name": "TicketSent",
      "type": "event"
    },
    {
      "anonymous": false,
      "inputs": [
        {
          "indexed": false,
          "internalType": "uint256",
          "name": "tokenId",
          "type": "uint256"
        },
        {
          "indexed": false,
          "internalType": "string",
          "name": "tokenUrl",
          "type": "string"
        }
      ],
      "name": "TicketToShow",
      "type": "event"
    },
    {
      "anonymous": false,
      "inputs": [
        {
          "indexed": true,
          "internalType": "address",
          "name": "from",
          "type": "address"
        },
        {
          "indexed": true,
          "internalType": "address",
          "name": "to",
          "type": "address"
        },
        {
          "indexed": true,
          "internalType": "uint256",
          "name": "tokenId",
          "type": "uint256"
        }
      ],
      "name": "Transfer",
      "type": "event"
    },
    {
      "anonymous": false,
      "inputs": [
        {
          "indexed": false,
          "internalType": "address",
          "name": "account",
          "type": "address"
        }
      ],
      "name": "Unpaused",
      "type": "event"
    },
    {
      "inputs": [
        {
          "internalType": "address",
          "name": "to",
          "type": "address"
        },
        {
          "internalType": "uint256",
          "name": "tokenId",
          "type": "uint256"
        }
      ],
      "name": "approve",
      "outputs": [],
      "stateMutability": "nonpayable",
      "type": "function"
    },
    {
      "inputs": [
        {
          "internalType": "address",
          "name": "owner",
          "type": "address"
        }
      ],
      "name": "balanceOf",
      "outputs": [
        {
          "internalType": "uint256",
          "name": "",
          "type": "uint256"
        }
      ],
      "stateMutability": "view",
      "type": "function"
    },
    {
      "inputs": [
        {
          "internalType": "uint256",
          "name": "tokenId",
          "type": "uint256"
        }
      ],
      "name": "getApproved",
      "outputs": [
        {
          "internalType": "address",
          "name": "",
          "type": "address"
        }
      ],
      "stateMutability": "view",
      "type": "function"
    },
    {
      "inputs": [],
      "name": "getBalance",
      "outputs": [
        {
          "internalType": "uint256",
          "name": "",
          "type": "uint256"
        }
      ],
      "stateMutability": "view",
      "type": "function"
    },
    {
      "inputs": [],
      "name": "getMaxSupply",
      "outputs": [
        {
          "internalType": "uint256",
          "name": "",
          "type": "uint256"
        }
      ],
      "stateMutability": "view",
      "type": "function"
    },
    {
      "inputs": [],
      "name": "getTokenCounter",
      "outputs": [
        {
          "internalType": "uint256",
          "name": "",
          "type": "uint256"
        }
      ],
      "stateMutability": "view",
      "type": "function"
    },
    {
      "inputs": [],
      "name": "getTokenList",
      "outputs": [],
      "stateMutability": "nonpayable",
      "type": "function"
    },
    {
      "inputs": [
        {
          "internalType": "uint256",
          "name": "_tokenId",
          "type": "uint256"
        },
        {
          "internalType": "address",
          "name": "_to",
          "type": "address"
        }
      ],
      "name": "givesToken",
      "outputs": [],
      "stateMutability": "nonpayable",
      "type": "function"
    },
    {
      "inputs": [
        {
          "internalType": "address",
          "name": "owner",
          "type": "address"
        },
        {
          "internalType": "address",
          "name": "operator",
          "type": "address"
        }
      ],
      "name": "isApprovedForAll",
      "outputs": [
        {
          "internalType": "bool",
          "name": "",
          "type": "bool"
        }
      ],
      "stateMutability": "view",
      "type": "function"
    },
    {
      "inputs": [
        {
          "internalType": "uint256",
          "name": "_tokenId",
          "type": "uint256"
        }
      ],
      "name": "isTokenOwned",
      "outputs": [
        {
          "internalType": "bool",
          "name": "",
          "type": "bool"
        }
      ],
      "stateMutability": "view",
      "type": "function"
    },
    {
      "inputs": [],
      "name": "mintTicket",
      "outputs": [],
      "stateMutability": "nonpayable",
      "type": "function"
    },
    {
      "inputs": [],
      "name": "mintedTokens",
      "outputs": [
        {
          "internalType": "uint256",
          "name": "",
          "type": "uint256"
        }
      ],
      "stateMutability": "view",
      "type": "function"
    },
    {
      "inputs": [],
      "name": "name",
      "outputs": [
        {
          "internalType": "string",
          "name": "",
          "type": "string"
        }
      ],
      "stateMutability": "view",
      "type": "function"
    },
    {
      "inputs": [],
      "name": "owner",
      "outputs": [
        {
          "internalType": "address",
          "name": "",
          "type": "address"
        }
      ],
      "stateMutability": "view",
      "type": "function"
    },
    {
      "inputs": [
        {
          "internalType": "uint256",
          "name": "tokenId",
          "type": "uint256"
        }
      ],
      "name": "ownerOf",
      "outputs": [
        {
          "internalType": "address",
          "name": "",
          "type": "address"
        }
      ],
      "stateMutability": "view",
      "type": "function"
    },
    {
      "inputs": [],
      "name": "pause",
      "outputs": [],
      "stateMutability": "nonpayable",
      "type": "function"
    },
    {
      "inputs": [],
      "name": "paused",
      "outputs": [
        {
          "internalType": "bool",
          "name": "",
          "type": "bool"
        }
      ],
      "stateMutability": "view",
      "type": "function"
    },
    {
      "inputs": [],
      "name": "receiveMoney",
      "outputs": [],
      "stateMutability": "payable",
      "type": "function"
    },
    {
      "inputs": [],
      "name": "renounceOwnership",
      "outputs": [],
      "stateMutability": "nonpayable",
      "type": "function"
    },
    {
      "inputs": [
        {
          "internalType": "address",
          "name": "from",
          "type": "address"
        },
        {
          "internalType": "address",
          "name": "to",
          "type": "address"
        },
        {
          "internalType": "uint256",
          "name": "tokenId",
          "type": "uint256"
        }
      ],
      "name": "safeTransferFrom",
      "outputs": [],
      "stateMutability": "nonpayable",
      "type": "function"
    },
    {
      "inputs": [
        {
          "internalType": "address",
          "name": "from",
          "type": "address"
        },
        {
          "internalType": "address",
          "name": "to",
          "type": "address"
        },
        {
          "internalType": "uint256",
          "name": "tokenId",
          "type": "uint256"
        },
        {
          "internalType": "bytes",
          "name": "data",
          "type": "bytes"
        }
      ],
      "name": "safeTransferFrom",
      "outputs": [],
      "stateMutability": "nonpayable",
      "type": "function"
    },
    {
      "inputs": [
        {
          "internalType": "address",
          "name": "_to",
          "type": "address"
        },
        {
          "internalType": "uint256",
          "name": "_amount",
          "type": "uint256"
        }
      ],
      "name": "sendMoney",
      "outputs": [],
      "stateMutability": "nonpayable",
      "type": "function"
    },
    {
      "inputs": [
        {
          "internalType": "address",
          "name": "operator",
          "type": "address"
        },
        {
          "internalType": "bool",
          "name": "approved",
          "type": "bool"
        }
      ],
      "name": "setApprovalForAll",
      "outputs": [],
      "stateMutability": "nonpayable",
      "type": "function"
    },
    {
      "inputs": [
        {
          "internalType": "uint256",
          "name": "_maxSupply",
          "type": "uint256"
        }
      ],
      "name": "setMaxSupply",
      "outputs": [],
      "stateMutability": "nonpayable",
      "type": "function"
    },
    {
      "inputs": [
        {
          "internalType": "bytes4",
          "name": "interfaceId",
          "type": "bytes4"
        }
      ],
      "name": "supportsInterface",
      "outputs": [
        {
          "internalType": "bool",
          "name": "",
          "type": "bool"
        }
      ],
      "stateMutability": "view",
      "type": "function"
    },
    {
      "inputs": [],
      "name": "symbol",
      "outputs": [
        {
          "internalType": "string",
          "name": "",
          "type": "string"
        }
      ],
      "stateMutability": "view",
      "type": "function"
    },
    {
      "inputs": [
        {
          "internalType": "uint256",
          "name": "index",
          "type": "uint256"
        }
      ],
      "name": "tokenByIndex",
      "outputs": [
        {
          "internalType": "uint256",
          "name": "",
          "type": "uint256"
        }
      ],
      "stateMutability": "view",
      "type": "function"
    },
    {
      "inputs": [
        {
          "internalType": "address",
          "name": "owner",
          "type": "address"
        },
        {
          "internalType": "uint256",
          "name": "index",
          "type": "uint256"
        }
      ],
      "name": "tokenOfOwnerByIndex",
      "outputs": [
        {
          "internalType": "uint256",
          "name": "",
          "type": "uint256"
        }
      ],
      "stateMutability": "view",
      "type": "function"
    },
    {
      "inputs": [
        {
          "internalType": "uint256",
          "name": "tokenId",
          "type": "uint256"
        }
      ],
      "name": "tokenURI",
      "outputs": [
        {
          "internalType": "string",
          "name": "",
          "type": "string"
        }
      ],
      "stateMutability": "view",
      "type": "function"
    },
    {
      "inputs": [
        {
          "internalType": "uint256",
          "name": "_tokenId",
          "type": "uint256"
        }
      ],
      "name": "tokenURIIfOwned",
      "outputs": [
        {
          "internalType": "string",
          "name": "",
          "type": "string"
        }
      ],
      "stateMutability": "view",
      "type": "function"
    },
    {
      "inputs": [],
      "name": "totalSupply",
      "outputs": [
        {
          "internalType": "uint256",
          "name": "",
          "type": "uint256"
        }
      ],
      "stateMutability": "view",
      "type": "function"
    },
    {
      "inputs": [
        {
          "internalType": "address",
          "name": "from",
          "type": "address"
        },
        {
          "internalType": "address",
          "name": "to",
          "type": "address"
        },
        {
          "internalType": "uint256",
          "name": "tokenId",
          "type": "uint256"
        }
      ],
      "name": "transferFrom",
      "outputs": [],
      "stateMutability": "nonpayable",
      "type": "function"
    },
    {
      "inputs": [
        {
          "internalType": "address",
          "name": "newOwner",
          "type": "address"
        }
      ],
      "name": "transferOwnership",
      "outputs": [],
      "stateMutability": "nonpayable",
      "type": "function"
    },
    {
      "inputs": [],
      "name": "unPause",
      "outputs": [],
      "stateMutability": "nonpayable",
      "type": "function"
    },
    {
      "stateMutability": "payable",
      "type": "receive"
    }
  ],
  "bytecode": "0x60806040526040518060600160405280602e815260200162004c8d602e9139600c9080519060200190620000359291906200039b565b506040518060600160405280602e815260200162004cbb602e9139600d9080519060200190620000679291906200039b565b506040518060600160405280602e815260200162004ce9602e9139600e9080519060200190620000999291906200039b565b50348015620000a757600080fd5b5060405162004d1738038062004d178339818101604052810190620000cd919062000462565b6040518060400160405280600981526020017f5469636b65744e465400000000000000000000000000000000000000000000008152506040518060400160405280600381526020017f544b5400000000000000000000000000000000000000000000000000000000008152508160009080519060200190620001519291906200039b565b5080600190805190602001906200016a9291906200039b565b5050506200018d620001816200020160201b60201c565b6200020960201b60201c565b6000600b60146101000a81548160ff02191690831515021790555080601081905550620001fa6040518060400160405280601581526020017f436f6e747261637420696e7374616e7469617465640000000000000000000000815250620002cf60201b620013f21760201c565b50620005df565b600033905090565b6000600b60009054906101000a900473ffffffffffffffffffffffffffffffffffffffff16905081600b60006101000a81548173ffffffffffffffffffffffffffffffffffffffff021916908373ffffffffffffffffffffffffffffffffffffffff1602179055508173ffffffffffffffffffffffffffffffffffffffff168173ffffffffffffffffffffffffffffffffffffffff167f8be0079c531659141344cd1fd0a4f28419497f9722a3daafe3b4186f6b6457e060405160405180910390a35050565b6200036f81604051602401620002e69190620004cf565b6040516020818303038152906040527f41304fac000000000000000000000000000000000000000000000000000000007bffffffffffffffffffffffffffffffffffffffffffffffffffffffff19166020820180517bffffffffffffffffffffffffffffffffffffffffffffffffffffffff83818316178352505050506200037260201b60201c565b50565b60008151905060006a636f6e736f6c652e6c6f679050602083016000808483855afa5050505050565b828054620003a9906200054f565b90600052602060002090601f016020900481019282620003cd576000855562000419565b82601f10620003e857805160ff191683800117855562000419565b8280016001018555821562000419579182015b8281111562000418578251825591602001919060010190620003fb565b5b5090506200042891906200042c565b5090565b5b80821115620004475760008160009055506001016200042d565b5090565b6000815190506200045c81620005c5565b92915050565b6000602082840312156200047557600080fd5b600062000485848285016200044b565b91505092915050565b60006200049b82620004f3565b620004a78185620004fe565b9350620004b981856020860162000519565b620004c481620005b4565b840191505092915050565b60006020820190508181036000830152620004eb81846200048e565b905092915050565b600081519050919050565b600082825260208201905092915050565b6000819050919050565b60005b83811015620005395780820151818401526020810190506200051c565b8381111562000549576000848401525b50505050565b600060028204905060018216806200056857607f821691505b602082108114156200057f576200057e62000585565b5b50919050565b7f4e487b7100000000000000000000000000000000000000000000000000000000600052602260045260246000fd5b6000601f19601f8301169050919050565b620005d0816200050f565b8114620005dc57600080fd5b50565b61469e80620005ef6000396000f3fe6080604052600436106101fd5760003560e01c80636f8b44b01161010d578063a188342f116100a0578063c87b56dd1161006f578063c87b56dd14610701578063e985e9c51461073e578063ee4ae2c91461077b578063f2fde38b146107a4578063f7b188a5146107cd5761020c565b8063a188342f14610635578063a22cb46514610672578063abc6184c1461069b578063b88d4fde146106d85761020c565b8063889e47a7116100dc578063889e47a71461058b5780638d75fe05146105b45780638da5cb5b146105df57806395d89b411461060a5761020c565b80636f8b44b0146104f757806370a0823114610520578063715018a61461055d5780638456cb59146105745761020c565b80632f745c5911610190578063573c80fa1161015f578063573c80fa146104435780635c975abb1461045a5780636352211e146104855780636d26ec18146104c25780636e02007d146104cc5761020c565b80632f745c591461037557806342842e0e146103b25780634c0f38c2146103db5780634f6ccce7146104065761020c565b806312065fe0116101cc57806312065fe0146102df57806318160ddd1461030a57806323b872dd14610335578063273cbaa01461035e5761020c565b806301ffc9a71461021157806306fdde031461024e578063081812fc14610279578063095ea7b3146102b65761020c565b3661020c5761020a6107e4565b005b600080fd5b34801561021d57600080fd5b506102386004803603810190610233919061341a565b61084e565b604051610245919061392d565b60405180910390f35b34801561025a57600080fd5b50610263610860565b6040516102709190613948565b60405180910390f35b34801561028557600080fd5b506102a0600480360381019061029b919061346c565b6108f2565b6040516102ad9190613881565b60405180910390f35b3480156102c257600080fd5b506102dd60048036038101906102d891906133de565b610938565b005b3480156102eb57600080fd5b506102f4610a50565b6040516103019190613c8f565b60405180910390f35b34801561031657600080fd5b5061031f610a62565b60405161032c9190613c8f565b60405180910390f35b34801561034157600080fd5b5061035c600480360381019061035791906132d8565b610a6f565b005b34801561036a57600080fd5b50610373610acf565b005b34801561038157600080fd5b5061039c600480360381019061039791906133de565b610c1b565b6040516103a99190613c8f565b60405180910390f35b3480156103be57600080fd5b506103d960048036038101906103d491906132d8565b610cc0565b005b3480156103e757600080fd5b506103f0610ce0565b6040516103fd9190613c8f565b60405180910390f35b34801561041257600080fd5b5061042d6004803603810190610428919061346c565b610cf2565b60405161043a9190613c8f565b60405180910390f35b34801561044f57600080fd5b50610458610d89565b005b34801561046657600080fd5b5061046f610e76565b60405161047c919061392d565b60405180910390f35b34801561049157600080fd5b506104ac60048036038101906104a7919061346c565b610e8d565b6040516104b99190613881565b60405180910390f35b6104ca6107e4565b005b3480156104d857600080fd5b506104e1610f3f565b6040516104ee9190613c8f565b60405180910390f35b34801561050357600080fd5b5061051e6004803603810190610519919061346c565b610f58565b005b34801561052c57600080fd5b5061054760048036038101906105429190613273565b610fb6565b6040516105549190613c8f565b60405180910390f35b34801561056957600080fd5b5061057261106e565b005b34801561058057600080fd5b50610589611082565b005b34801561059757600080fd5b506105b260048036038101906105ad9190613495565b611094565b005b3480156105c057600080fd5b506105c96110de565b6040516105d69190613c8f565b60405180910390f35b3480156105eb57600080fd5b506105f46110e4565b6040516106019190613881565b60405180910390f35b34801561061657600080fd5b5061061f61110e565b60405161062c9190613948565b60405180910390f35b34801561064157600080fd5b5061065c6004803603810190610657919061346c565b6111a0565b6040516106699190613948565b60405180910390f35b34801561067e57600080fd5b50610699600480360381019061069491906133a2565b6111d8565b005b3480156106a757600080fd5b506106c260048036038101906106bd919061346c565b6111ee565b6040516106cf919061392d565b60405180910390f35b3480156106e457600080fd5b506106ff60048036038101906106fa9190613327565b611201565b005b34801561070d57600080fd5b506107286004803603810190610723919061346c565b611263565b6040516107359190613948565b60405180910390f35b34801561074a57600080fd5b506107656004803603810190610760919061329c565b611275565b604051610772919061392d565b60405180910390f35b34801561078757600080fd5b506107a2600480360381019061079d91906133de565b611309565b005b3480156107b057600080fd5b506107cb60048036038101906107c69190613273565b61135c565b005b3480156107d957600080fd5b506107e26113e0565b005b6011546107fc6011543461148b90919063ffffffff16565b1015610831577f4e487b7100000000000000000000000000000000000000000000000000000000600052600160045260246000fd5b6108463460115461148b90919063ffffffff16565b601181905550565b6000610859826114a1565b9050919050565b60606000805461086f90613f1b565b80601f016020809104026020016040519081016040528092919081815260200182805461089b90613f1b565b80156108e85780601f106108bd576101008083540402835291602001916108e8565b820191906000526020600020905b8154815290600101906020018083116108cb57829003601f168201915b5050505050905090565b60006108fd8261151b565b6004600083815260200190815260200160002060009054906101000a900473ffffffffffffffffffffffffffffffffffffffff169050919050565b600061094382610e8d565b90508073ffffffffffffffffffffffffffffffffffffffff168373ffffffffffffffffffffffffffffffffffffffff1614156109b4576040517f08c379a00000000000000000000000000000000000000000000000000000000081526004016109ab90613c0f565b60405180910390fd5b8073ffffffffffffffffffffffffffffffffffffffff166109d3611566565b73ffffffffffffffffffffffffffffffffffffffff161480610a025750610a01816109fc611566565b611275565b5b610a41576040517f08c379a0000000000000000000000000000000000000000000000000000000008152600401610a3890613b8f565b60405180910390fd5b610a4b838361156e565b505050565b6000610a5a611627565b601154905090565b6000600980549050905090565b610a80610a7a611566565b826116a5565b610abf576040517f08c379a0000000000000000000000000000000000000000000000000000000008152600401610ab690613c6f565b60405180910390fd5b610aca83838361173a565b505050565b610ad76119a1565b6000610ae233610fb6565b9050610b236040518060400160405280601481526020017f746f6b656e4c697374206c656e6774683a202573000000000000000000000000815250826119eb565b60005b81811015610c17576000610b3a3383610c1b565b90507f01723b1e195ca0b13f4f078e25fec60cd910e1fec2bd9e82b2c313876f9b352881610b6783611263565b604051610b75929190613ce1565b60405180910390a1610bbc6040518060400160405280600b81526020017f746f6b656e49643a202573000000000000000000000000000000000000000000815250826119eb565b610c036040518060400160405280600c81526020017f746f6b656e55726c3a2025730000000000000000000000000000000000000000815250610bfe83611263565b611a87565b508080610c0f90613f7e565b915050610b26565b5050565b6000610c2683610fb6565b8210610c67576040517f08c379a0000000000000000000000000000000000000000000000000000000008152600401610c5e90613a2f565b60405180910390fd5b600760008473ffffffffffffffffffffffffffffffffffffffff1673ffffffffffffffffffffffffffffffffffffffff168152602001908152602001600020600083815260200190815260200160002054905092915050565b610cdb83838360405180602001604052806000815250611201565b505050565b6000610cea6119a1565b601054905090565b6000610cfc610a62565b8210610d3d576040517f08c379a0000000000000000000000000000000000000000000000000000000008152600401610d3490613c2f565b60405180910390fd5b60098281548110610d77577f4e487b7100000000000000000000000000000000000000000000000000000000600052603260045260246000fd5b90600052602060002001549050919050565b610d916119a1565b6000610d9d600f611b23565b9050610dc2604051806060016040528060258152602001614644602591398233611b31565b610dcc3382611bd0565b610ddf81610dda6000611bee565b611e98565b610de9600f611f0c565b610df1611f22565b610e326040518060400160405280600e81526020017f6d696e7465644e6674733a2025730000000000000000000000000000000000008152506012546119eb565b7f64bd16642eed00863590d7320e06c0f31bb0468a971feede4e13313e3b2792243382601254601054604051610e6b94939291906138e8565b60405180910390a150565b6000600b60149054906101000a900460ff16905090565b6000806002600084815260200190815260200160002060009054906101000a900473ffffffffffffffffffffffffffffffffffffffff169050600073ffffffffffffffffffffffffffffffffffffffff168173ffffffffffffffffffffffffffffffffffffffff161415610f36576040517f08c379a0000000000000000000000000000000000000000000000000000000008152600401610f2d90613bef565b60405180910390fd5b80915050919050565b6000610f496119a1565b610f53600f611b23565b905090565b610f606119a1565b610f68611627565b6010548111610fac576040517f08c379a0000000000000000000000000000000000000000000000000000000008152600401610fa390613c4f565b60405180910390fd5b8060108190555050565b60008073ffffffffffffffffffffffffffffffffffffffff168273ffffffffffffffffffffffffffffffffffffffff161415611027576040517f08c379a000000000000000000000000000000000000000000000000000000000815260040161101e90613b4f565b60405180910390fd5b600360008373ffffffffffffffffffffffffffffffffffffffff1673ffffffffffffffffffffffffffffffffffffffff168152602001908152602001600020549050919050565b611076611627565b6110806000611f86565b565b61108a611627565b61109261204c565b565b61109f338284610a6f565b7fdba6731bbbfcff209246a4aee1d833836d6766f6515735cda63c0170318fc0518233836040516110d293929190613caa565b60405180910390a15050565b60125481565b6000600b60009054906101000a900473ffffffffffffffffffffffffffffffffffffffff16905090565b60606001805461111d90613f1b565b80601f016020809104026020016040519081016040528092919081815260200182805461114990613f1b565b80156111965780601f1061116b57610100808354040283529160200191611196565b820191906000526020600020905b81548152906001019060200180831161117957829003601f168201915b5050505050905090565b60606111ab826111ee565b156111c0576111b9826120af565b90506111d3565b6040518060200160405280600081525090505b919050565b6111ea6111e3611566565b83836121c2565b5050565b60006111fa33836116a5565b9050919050565b61121261120c611566565b836116a5565b611251576040517f08c379a000000000000000000000000000000000000000000000000000000000815260040161124890613c6f565b60405180910390fd5b61125d8484848461232f565b50505050565b606061126e826120af565b9050919050565b6000600560008473ffffffffffffffffffffffffffffffffffffffff1673ffffffffffffffffffffffffffffffffffffffff16815260200190815260200160002060008373ffffffffffffffffffffffffffffffffffffffff1673ffffffffffffffffffffffffffffffffffffffff16815260200190815260200160002060009054906101000a900460ff16905092915050565b611311611627565b8173ffffffffffffffffffffffffffffffffffffffff166108fc829081150290604051600060405180830381858888f19350505050158015611357573d6000803e3d6000fd5b505050565b611364611627565b600073ffffffffffffffffffffffffffffffffffffffff168173ffffffffffffffffffffffffffffffffffffffff1614156113d4576040517f08c379a00000000000000000000000000000000000000000000000000000000081526004016113cb90613a6f565b60405180910390fd5b6113dd81611f86565b50565b6113e8611627565b6113f061238b565b565b611488816040516024016114069190613948565b6040516020818303038152906040527f41304fac000000000000000000000000000000000000000000000000000000007bffffffffffffffffffffffffffffffffffffffffffffffffffffffff19166020820180517bffffffffffffffffffffffffffffffffffffffffffffffffffffffff83818316178352505050506123ee565b50565b600081836114999190613daa565b905092915050565b60007f780e9d63000000000000000000000000000000000000000000000000000000007bffffffffffffffffffffffffffffffffffffffffffffffffffffffff1916827bffffffffffffffffffffffffffffffffffffffffffffffffffffffff19161480611514575061151382612417565b5b9050919050565b611524816124f9565b611563576040517f08c379a000000000000000000000000000000000000000000000000000000000815260040161155a90613bef565b60405180910390fd5b50565b600033905090565b816004600083815260200190815260200160002060006101000a81548173ffffffffffffffffffffffffffffffffffffffff021916908373ffffffffffffffffffffffffffffffffffffffff160217905550808273ffffffffffffffffffffffffffffffffffffffff166115e183610e8d565b73ffffffffffffffffffffffffffffffffffffffff167f8c5be1e5ebec7d5bd14f71427d1e84f3dd0314c0f7b2291e5b200ac8c7c3b92560405160405180910390a45050565b61162f611566565b73ffffffffffffffffffffffffffffffffffffffff1661164d6110e4565b73ffffffffffffffffffffffffffffffffffffffff16146116a3576040517f08c379a000000000000000000000000000000000000000000000000000000000815260040161169a90613bcf565b60405180910390fd5b565b6000806116b183610e8d565b90508073ffffffffffffffffffffffffffffffffffffffff168473ffffffffffffffffffffffffffffffffffffffff1614806116f357506116f28185611275565b5b8061173157508373ffffffffffffffffffffffffffffffffffffffff16611719846108f2565b73ffffffffffffffffffffffffffffffffffffffff16145b91505092915050565b8273ffffffffffffffffffffffffffffffffffffffff1661175a82610e8d565b73ffffffffffffffffffffffffffffffffffffffff16146117b0576040517f08c379a00000000000000000000000000000000000000000000000000000000081526004016117a790613a8f565b60405180910390fd5b600073ffffffffffffffffffffffffffffffffffffffff168273ffffffffffffffffffffffffffffffffffffffff161415611820576040517f08c379a000000000000000000000000000000000000000000000000000000000815260040161181790613acf565b60405180910390fd5b61182b838383612565565b61183660008261156e565b6001600360008573ffffffffffffffffffffffffffffffffffffffff1673ffffffffffffffffffffffffffffffffffffffff16815260200190815260200160002060008282546118869190613e31565b925050819055506001600360008473ffffffffffffffffffffffffffffffffffffffff1673ffffffffffffffffffffffffffffffffffffffff16815260200190815260200160002060008282546118dd9190613daa565b92505081905550816002600083815260200190815260200160002060006101000a81548173ffffffffffffffffffffffffffffffffffffffff021916908373ffffffffffffffffffffffffffffffffffffffff160217905550808273ffffffffffffffffffffffffffffffffffffffff168473ffffffffffffffffffffffffffffffffffffffff167fddf252ad1be2c89b69c2b068fc378daa952ba7f163c4a11628f55a4df523b3ef60405160405180910390a461199c838383612575565b505050565b6119a9610e76565b156119e9576040517f08c379a00000000000000000000000000000000000000000000000000000000081526004016119e090613b2f565b60405180910390fd5b565b611a838282604051602401611a019291906139a1565b6040516020818303038152906040527f9710a9d0000000000000000000000000000000000000000000000000000000007bffffffffffffffffffffffffffffffffffffffffffffffffffffffff19166020820180517bffffffffffffffffffffffffffffffffffffffffffffffffffffffff83818316178352505050506123ee565b5050565b611b1f8282604051602401611a9d92919061396a565b6040516020818303038152906040527f4b5c4277000000000000000000000000000000000000000000000000000000007bffffffffffffffffffffffffffffffffffffffffffffffffffffffff19166020820180517bffffffffffffffffffffffffffffffffffffffffffffffffffffffff83818316178352505050506123ee565b5050565b600081600001549050919050565b611bcb838383604051602401611b49939291906139d1565b6040516020818303038152906040527fe3849f79000000000000000000000000000000000000000000000000000000007bffffffffffffffffffffffffffffffffffffffffffffffffffffffff19166020820180517bffffffffffffffffffffffffffffffffffffffffffffffffffffffff83818316178352505050506123ee565b505050565b611bea82826040518060200160405280600081525061257a565b5050565b606060016002811115611c2a577f4e487b7100000000000000000000000000000000000000000000000000000000600052602160045260246000fd5b826002811115611c63577f4e487b7100000000000000000000000000000000000000000000000000000000600052602160045260246000fd5b1415611cfb57600d8054611c7690613f1b565b80601f0160208091040260200160405190810160405280929190818152602001828054611ca290613f1b565b8015611cef5780601f10611cc457610100808354040283529160200191611cef565b820191906000526020600020905b815481529060010190602001808311611cd257829003601f168201915b50505050509050611e93565b600280811115611d34577f4e487b7100000000000000000000000000000000000000000000000000000000600052602160045260246000fd5b826002811115611d6d577f4e487b7100000000000000000000000000000000000000000000000000000000600052602160045260246000fd5b1415611e0557600e8054611d8090613f1b565b80601f0160208091040260200160405190810160405280929190818152602001828054611dac90613f1b565b8015611df95780601f10611dce57610100808354040283529160200191611df9565b820191906000526020600020905b815481529060010190602001808311611ddc57829003601f168201915b50505050509050611e93565b600c8054611e1290613f1b565b80601f0160208091040260200160405190810160405280929190818152602001828054611e3e90613f1b565b8015611e8b5780601f10611e6057610100808354040283529160200191611e8b565b820191906000526020600020905b815481529060010190602001808311611e6e57829003601f168201915b505050505090505b919050565b611ea1826124f9565b611ee0576040517f08c379a0000000000000000000000000000000000000000000000000000000008152600401611ed790613b6f565b60405180910390fd5b80600660008481526020019081526020016000209080519060200190611f079291906130ff565b505050565b6001816000016000828254019250508190555050565b60105460125410611f68576040517f08c379a0000000000000000000000000000000000000000000000000000000008152600401611f5f90613b0f565b60405180910390fd5b611f7e600160125461148b90919063ffffffff16565b601281905550565b6000600b60009054906101000a900473ffffffffffffffffffffffffffffffffffffffff16905081600b60006101000a81548173ffffffffffffffffffffffffffffffffffffffff021916908373ffffffffffffffffffffffffffffffffffffffff1602179055508173ffffffffffffffffffffffffffffffffffffffff168173ffffffffffffffffffffffffffffffffffffffff167f8be0079c531659141344cd1fd0a4f28419497f9722a3daafe3b4186f6b6457e060405160405180910390a35050565b6120546119a1565b6001600b60146101000a81548160ff0219169083151502179055507f62e78cea01bee320cd4e420270b5ea74000d11b0c9f74754ebdbfc544b05a258612098611566565b6040516120a59190613881565b60405180910390a1565b60606120ba8261151b565b60006006600084815260200190815260200160002080546120da90613f1b565b80601f016020809104026020016040519081016040528092919081815260200182805461210690613f1b565b80156121535780601f1061212857610100808354040283529160200191612153565b820191906000526020600020905b81548152906001019060200180831161213657829003601f168201915b5050505050905060006121646125d5565b905060008151141561217a5781925050506121bd565b6000825111156121af57808260405160200161219792919061385d565b604051602081830303815290604052925050506121bd565b6121b884612612565b925050505b919050565b8173ffffffffffffffffffffffffffffffffffffffff168373ffffffffffffffffffffffffffffffffffffffff161415612231576040517f08c379a000000000000000000000000000000000000000000000000000000000815260040161222890613aef565b60405180910390fd5b80600560008573ffffffffffffffffffffffffffffffffffffffff1673ffffffffffffffffffffffffffffffffffffffff16815260200190815260200160002060008473ffffffffffffffffffffffffffffffffffffffff1673ffffffffffffffffffffffffffffffffffffffff16815260200190815260200160002060006101000a81548160ff0219169083151502179055508173ffffffffffffffffffffffffffffffffffffffff168373ffffffffffffffffffffffffffffffffffffffff167f17307eab39ab6107e8899845ad3d59bd9653f200f220920489ca2b5937696c3183604051612322919061392d565b60405180910390a3505050565b61233a84848461173a565b6123468484848461267a565b612385576040517f08c379a000000000000000000000000000000000000000000000000000000000815260040161237c90613a4f565b60405180910390fd5b50505050565b612393612811565b6000600b60146101000a81548160ff0219169083151502179055507f5db9ee0a495bf2e6ff9c91a7834c1ba4fdd244a5e8aa4e537bd38aeae4b073aa6123d7611566565b6040516123e49190613881565b60405180910390a1565b60008151905060006a636f6e736f6c652e6c6f679050602083016000808483855afa5050505050565b60007f80ac58cd000000000000000000000000000000000000000000000000000000007bffffffffffffffffffffffffffffffffffffffffffffffffffffffff1916827bffffffffffffffffffffffffffffffffffffffffffffffffffffffff191614806124e257507f5b5e139f000000000000000000000000000000000000000000000000000000007bffffffffffffffffffffffffffffffffffffffffffffffffffffffff1916827bffffffffffffffffffffffffffffffffffffffffffffffffffffffff1916145b806124f257506124f18261285a565b5b9050919050565b60008073ffffffffffffffffffffffffffffffffffffffff166002600084815260200190815260200160002060009054906101000a900473ffffffffffffffffffffffffffffffffffffffff1673ffffffffffffffffffffffffffffffffffffffff1614159050919050565b6125708383836128c4565b505050565b505050565b61258483836129d8565b612591600084848461267a565b6125d0576040517f08c379a00000000000000000000000000000000000000000000000000000000081526004016125c790613a4f565b60405180910390fd5b505050565b60606040518060400160405280600781526020017f697066733a2f2f00000000000000000000000000000000000000000000000000815250905090565b606061261d8261151b565b60006126276125d5565b905060008151116126475760405180602001604052806000815250612672565b8061265184612bb2565b60405160200161266292919061385d565b6040516020818303038152906040525b915050919050565b600061269b8473ffffffffffffffffffffffffffffffffffffffff16612d5f565b15612804578373ffffffffffffffffffffffffffffffffffffffff1663150b7a026126c4611566565b8786866040518563ffffffff1660e01b81526004016126e6949392919061389c565b602060405180830381600087803b15801561270057600080fd5b505af192505050801561273157506040513d601f19601f8201168201806040525081019061272e9190613443565b60015b6127b4573d8060008114612761576040519150601f19603f3d011682016040523d82523d6000602084013e612766565b606091505b506000815114156127ac576040517f08c379a00000000000000000000000000000000000000000000000000000000081526004016127a390613a4f565b60405180910390fd5b805181602001fd5b63150b7a0260e01b7bffffffffffffffffffffffffffffffffffffffffffffffffffffffff1916817bffffffffffffffffffffffffffffffffffffffffffffffffffffffff191614915050612809565b600190505b949350505050565b612819610e76565b612858576040517f08c379a000000000000000000000000000000000000000000000000000000000815260040161284f90613a0f565b60405180910390fd5b565b60007f01ffc9a7000000000000000000000000000000000000000000000000000000007bffffffffffffffffffffffffffffffffffffffffffffffffffffffff1916827bffffffffffffffffffffffffffffffffffffffffffffffffffffffff1916149050919050565b6128cf838383612d82565b600073ffffffffffffffffffffffffffffffffffffffff168373ffffffffffffffffffffffffffffffffffffffff1614156129125761290d81612d87565b612951565b8173ffffffffffffffffffffffffffffffffffffffff168373ffffffffffffffffffffffffffffffffffffffff16146129505761294f8382612dd0565b5b5b600073ffffffffffffffffffffffffffffffffffffffff168273ffffffffffffffffffffffffffffffffffffffff1614156129945761298f81612f3d565b6129d3565b8273ffffffffffffffffffffffffffffffffffffffff168273ffffffffffffffffffffffffffffffffffffffff16146129d2576129d18282613080565b5b5b505050565b600073ffffffffffffffffffffffffffffffffffffffff168273ffffffffffffffffffffffffffffffffffffffff161415612a48576040517f08c379a0000000000000000000000000000000000000000000000000000000008152600401612a3f90613baf565b60405180910390fd5b612a51816124f9565b15612a91576040517f08c379a0000000000000000000000000000000000000000000000000000000008152600401612a8890613aaf565b60405180910390fd5b612a9d60008383612565565b6001600360008473ffffffffffffffffffffffffffffffffffffffff1673ffffffffffffffffffffffffffffffffffffffff1681526020019081526020016000206000828254612aed9190613daa565b92505081905550816002600083815260200190815260200160002060006101000a81548173ffffffffffffffffffffffffffffffffffffffff021916908373ffffffffffffffffffffffffffffffffffffffff160217905550808273ffffffffffffffffffffffffffffffffffffffff16600073ffffffffffffffffffffffffffffffffffffffff167fddf252ad1be2c89b69c2b068fc378daa952ba7f163c4a11628f55a4df523b3ef60405160405180910390a4612bae60008383612575565b5050565b60606000821415612bfa576040518060400160405280600181526020017f30000000000000000000000000000000000000000000000000000000000000008152509050612d5a565b600082905060005b60008214612c2c578080612c1590613f7e565b915050600a82612c259190613e00565b9150612c02565b60008167ffffffffffffffff811115612c6e577f4e487b7100000000000000000000000000000000000000000000000000000000600052604160045260246000fd5b6040519080825280601f01601f191660200182016040528015612ca05781602001600182028036833780820191505090505b5090505b60008514612d5357600182612cb99190613e31565b9150600a85612cc89190613fc7565b6030612cd49190613daa565b60f81b818381518110612d10577f4e487b7100000000000000000000000000000000000000000000000000000000600052603260045260246000fd5b60200101907effffffffffffffffffffffffffffffffffffffffffffffffffffffffffffff1916908160001a905350600a85612d4c9190613e00565b9450612ca4565b8093505050505b919050565b6000808273ffffffffffffffffffffffffffffffffffffffff163b119050919050565b505050565b600980549050600a600083815260200190815260200160002081905550600981908060018154018082558091505060019003906000526020600020016000909190919091505550565b60006001612ddd84610fb6565b612de79190613e31565b9050600060086000848152602001908152602001600020549050818114612ecc576000600760008673ffffffffffffffffffffffffffffffffffffffff1673ffffffffffffffffffffffffffffffffffffffff168152602001908152602001600020600084815260200190815260200160002054905080600760008773ffffffffffffffffffffffffffffffffffffffff1673ffffffffffffffffffffffffffffffffffffffff168152602001908152602001600020600084815260200190815260200160002081905550816008600083815260200190815260200160002081905550505b6008600084815260200190815260200160002060009055600760008573ffffffffffffffffffffffffffffffffffffffff1673ffffffffffffffffffffffffffffffffffffffff16815260200190815260200160002060008381526020019081526020016000206000905550505050565b60006001600980549050612f519190613e31565b90506000600a6000848152602001908152602001600020549050600060098381548110612fa7577f4e487b7100000000000000000000000000000000000000000000000000000000600052603260045260246000fd5b906000526020600020015490508060098381548110612fef577f4e487b7100000000000000000000000000000000000000000000000000000000600052603260045260246000fd5b906000526020600020018190555081600a600083815260200190815260200160002081905550600a6000858152602001908152602001600020600090556009805480613064577f4e487b7100000000000000000000000000000000000000000000000000000000600052603160045260246000fd5b6001900381819060005260206000200160009055905550505050565b600061308b83610fb6565b905081600760008573ffffffffffffffffffffffffffffffffffffffff1673ffffffffffffffffffffffffffffffffffffffff168152602001908152602001600020600083815260200190815260200160002081905550806008600084815260200190815260200160002081905550505050565b82805461310b90613f1b565b90600052602060002090601f01602090048101928261312d5760008555613174565b82601f1061314657805160ff1916838001178555613174565b82800160010185558215613174579182015b82811115613173578251825591602001919060010190613158565b5b5090506131819190613185565b5090565b5b8082111561319e576000816000905550600101613186565b5090565b60006131b56131b084613d36565b613d11565b9050828152602081018484840111156131cd57600080fd5b6131d8848285613ed9565b509392505050565b6000813590506131ef816145e7565b92915050565b600081359050613204816145fe565b92915050565b60008135905061321981614615565b92915050565b60008151905061322e81614615565b92915050565b600082601f83011261324557600080fd5b81356132558482602086016131a2565b91505092915050565b60008135905061326d8161462c565b92915050565b60006020828403121561328557600080fd5b6000613293848285016131e0565b91505092915050565b600080604083850312156132af57600080fd5b60006132bd858286016131e0565b92505060206132ce858286016131e0565b9150509250929050565b6000806000606084860312156132ed57600080fd5b60006132fb868287016131e0565b935050602061330c868287016131e0565b925050604061331d8682870161325e565b9150509250925092565b6000806000806080858703121561333d57600080fd5b600061334b878288016131e0565b945050602061335c878288016131e0565b935050604061336d8782880161325e565b925050606085013567ffffffffffffffff81111561338a57600080fd5b61339687828801613234565b91505092959194509250565b600080604083850312156133b557600080fd5b60006133c3858286016131e0565b92505060206133d4858286016131f5565b9150509250929050565b600080604083850312156133f157600080fd5b60006133ff858286016131e0565b92505060206134108582860161325e565b9150509250929050565b60006020828403121561342c57600080fd5b600061343a8482850161320a565b91505092915050565b60006020828403121561345557600080fd5b60006134638482850161321f565b91505092915050565b60006020828403121561347e57600080fd5b600061348c8482850161325e565b91505092915050565b600080604083850312156134a857600080fd5b60006134b68582860161325e565b92505060206134c7858286016131e0565b9150509250929050565b6134da81613e65565b82525050565b6134e981613e77565b82525050565b60006134fa82613d67565b6135048185613d7d565b9350613514818560208601613ee8565b61351d816140b4565b840191505092915050565b600061353382613d72565b61353d8185613d8e565b935061354d818560208601613ee8565b613556816140b4565b840191505092915050565b600061356c82613d72565b6135768185613d9f565b9350613586818560208601613ee8565b80840191505092915050565b600061359f601483613d8e565b91506135aa826140c5565b602082019050919050565b60006135c2602b83613d8e565b91506135cd826140ee565b604082019050919050565b60006135e5603283613d8e565b91506135f08261413d565b604082019050919050565b6000613608602683613d8e565b91506136138261418c565b604082019050919050565b600061362b602583613d8e565b9150613636826141db565b604082019050919050565b600061364e601c83613d8e565b91506136598261422a565b602082019050919050565b6000613671602483613d8e565b915061367c82614253565b604082019050919050565b6000613694601983613d8e565b915061369f826142a2565b602082019050919050565b60006136b7602983613d8e565b91506136c2826142cb565b604082019050919050565b60006136da601083613d8e565b91506136e58261431a565b602082019050919050565b60006136fd602983613d8e565b915061370882614343565b604082019050919050565b6000613720602e83613d8e565b915061372b82614392565b604082019050919050565b6000613743603e83613d8e565b915061374e826143e1565b604082019050919050565b6000613766602083613d8e565b915061377182614430565b602082019050919050565b6000613789602083613d8e565b915061379482614459565b602082019050919050565b60006137ac601883613d8e565b91506137b782614482565b602082019050919050565b60006137cf602183613d8e565b91506137da826144ab565b604082019050919050565b60006137f2602c83613d8e565b91506137fd826144fa565b604082019050919050565b6000613815603883613d8e565b915061382082614549565b604082019050919050565b6000613838602e83613d8e565b915061384382614598565b604082019050919050565b61385781613ecf565b82525050565b60006138698285613561565b91506138758284613561565b91508190509392505050565b600060208201905061389660008301846134d1565b92915050565b60006080820190506138b160008301876134d1565b6138be60208301866134d1565b6138cb604083018561384e565b81810360608301526138dd81846134ef565b905095945050505050565b60006080820190506138fd60008301876134d1565b61390a602083018661384e565b613917604083018561384e565b613924606083018461384e565b95945050505050565b600060208201905061394260008301846134e0565b92915050565b600060208201905081810360008301526139628184613528565b905092915050565b600060408201905081810360008301526139848185613528565b905081810360208301526139988184613528565b90509392505050565b600060408201905081810360008301526139bb8185613528565b90506139ca602083018461384e565b9392505050565b600060608201905081810360008301526139eb8186613528565b90506139fa602083018561384e565b613a0760408301846134d1565b949350505050565b60006020820190508181036000830152613a2881613592565b9050919050565b60006020820190508181036000830152613a48816135b5565b9050919050565b60006020820190508181036000830152613a68816135d8565b9050919050565b60006020820190508181036000830152613a88816135fb565b9050919050565b60006020820190508181036000830152613aa88161361e565b9050919050565b60006020820190508181036000830152613ac881613641565b9050919050565b60006020820190508181036000830152613ae881613664565b9050919050565b60006020820190508181036000830152613b0881613687565b9050919050565b60006020820190508181036000830152613b28816136aa565b9050919050565b60006020820190508181036000830152613b48816136cd565b9050919050565b60006020820190508181036000830152613b68816136f0565b9050919050565b60006020820190508181036000830152613b8881613713565b9050919050565b60006020820190508181036000830152613ba881613736565b9050919050565b60006020820190508181036000830152613bc881613759565b9050919050565b60006020820190508181036000830152613be88161377c565b9050919050565b60006020820190508181036000830152613c088161379f565b9050919050565b60006020820190508181036000830152613c28816137c2565b9050919050565b60006020820190508181036000830152613c48816137e5565b9050919050565b60006020820190508181036000830152613c6881613808565b9050919050565b60006020820190508181036000830152613c888161382b565b9050919050565b6000602082019050613ca4600083018461384e565b92915050565b6000606082019050613cbf600083018661384e565b613ccc60208301856134d1565b613cd960408301846134d1565b949350505050565b6000604082019050613cf6600083018561384e565b8181036020830152613d088184613528565b90509392505050565b6000613d1b613d2c565b9050613d278282613f4d565b919050565b6000604051905090565b600067ffffffffffffffff821115613d5157613d50614085565b5b613d5a826140b4565b9050602081019050919050565b600081519050919050565b600081519050919050565b600082825260208201905092915050565b600082825260208201905092915050565b600081905092915050565b6000613db582613ecf565b9150613dc083613ecf565b9250827fffffffffffffffffffffffffffffffffffffffffffffffffffffffffffffffff03821115613df557613df4613ff8565b5b828201905092915050565b6000613e0b82613ecf565b9150613e1683613ecf565b925082613e2657613e25614027565b5b828204905092915050565b6000613e3c82613ecf565b9150613e4783613ecf565b925082821015613e5a57613e59613ff8565b5b828203905092915050565b6000613e7082613eaf565b9050919050565b60008115159050919050565b60007fffffffff0000000000000000000000000000000000000000000000000000000082169050919050565b600073ffffffffffffffffffffffffffffffffffffffff82169050919050565b6000819050919050565b82818337600083830152505050565b60005b83811015613f06578082015181840152602081019050613eeb565b83811115613f15576000848401525b50505050565b60006002820490506001821680613f3357607f821691505b60208210811415613f4757613f46614056565b5b50919050565b613f56826140b4565b810181811067ffffffffffffffff82111715613f7557613f74614085565b5b80604052505050565b6000613f8982613ecf565b91507fffffffffffffffffffffffffffffffffffffffffffffffffffffffffffffffff821415613fbc57613fbb613ff8565b5b600182019050919050565b6000613fd282613ecf565b9150613fdd83613ecf565b925082613fed57613fec614027565b5b828206905092915050565b7f4e487b7100000000000000000000000000000000000000000000000000000000600052601160045260246000fd5b7f4e487b7100000000000000000000000000000000000000000000000000000000600052601260045260246000fd5b7f4e487b7100000000000000000000000000000000000000000000000000000000600052602260045260246000fd5b7f4e487b7100000000000000000000000000000000000000000000000000000000600052604160045260246000fd5b6000601f19601f8301169050919050565b7f5061757361626c653a206e6f7420706175736564000000000000000000000000600082015250565b7f455243373231456e756d657261626c653a206f776e657220696e646578206f7560008201527f74206f6620626f756e6473000000000000000000000000000000000000000000602082015250565b7f4552433732313a207472616e7366657220746f206e6f6e20455243373231526560008201527f63656976657220696d706c656d656e7465720000000000000000000000000000602082015250565b7f4f776e61626c653a206e6577206f776e657220697320746865207a65726f206160008201527f6464726573730000000000000000000000000000000000000000000000000000602082015250565b7f4552433732313a207472616e736665722066726f6d20696e636f72726563742060008201527f6f776e6572000000000000000000000000000000000000000000000000000000602082015250565b7f4552433732313a20746f6b656e20616c7265616479206d696e74656400000000600082015250565b7f4552433732313a207472616e7366657220746f20746865207a65726f2061646460008201527f7265737300000000000000000000000000000000000000000000000000000000602082015250565b7f4552433732313a20617070726f766520746f2063616c6c657200000000000000600082015250565b7f4d696e7461626c65206e66747320686176652072656163686564206d6178696d60008201527f756d20737570706c790000000000000000000000000000000000000000000000602082015250565b7f5061757361626c653a2070617573656400000000000000000000000000000000600082015250565b7f4552433732313a2061646472657373207a65726f206973206e6f74206120766160008201527f6c6964206f776e65720000000000000000000000000000000000000000000000602082015250565b7f45524337323155524953746f726167653a2055524920736574206f66206e6f6e60008201527f6578697374656e7420746f6b656e000000000000000000000000000000000000602082015250565b7f4552433732313a20617070726f76652063616c6c6572206973206e6f7420746f60008201527f6b656e206f776e6572206e6f7220617070726f76656420666f7220616c6c0000602082015250565b7f4552433732313a206d696e7420746f20746865207a65726f2061646472657373600082015250565b7f4f776e61626c653a2063616c6c6572206973206e6f7420746865206f776e6572600082015250565b7f4552433732313a20696e76616c696420746f6b656e2049440000000000000000600082015250565b7f4552433732313a20617070726f76616c20746f2063757272656e74206f776e6560008201527f7200000000000000000000000000000000000000000000000000000000000000602082015250565b7f455243373231456e756d657261626c653a20676c6f62616c20696e646578206f60008201527f7574206f6620626f756e64730000000000000000000000000000000000000000602082015250565b7f4e6577206d6178696d756d20737570706c79206d75737420626520677265617460008201527f6572207468616e207468652070726576696f7573206f6e650000000000000000602082015250565b7f4552433732313a2063616c6c6572206973206e6f7420746f6b656e206f776e6560008201527f72206e6f7220617070726f766564000000000000000000000000000000000000602082015250565b6145f081613e65565b81146145fb57600080fd5b50565b61460781613e77565b811461461257600080fd5b50565b61461e81613e83565b811461462957600080fd5b50565b61463581613ecf565b811461464057600080fd5b5056fe416e204e465420772f20494420257320686173206265656e206d696e74656420746f202573a2646970667358221220812ca61a5387cc19cb59b39a043b64833042e09da18761bff457af78cbc9f85d64736f6c63430008010033516d57716b76316938526364687575717768696577724c77677273426d6d336d36746a646e623362446f58756863516d5847657a55316a5242507453766e79473344317750704c687674443179595364576f487a5369456338763550516d63686844337a696d6d6572774a4d7a71655a45784357615463774b7a46706e674c33646b6170624b53646857",
  "linkReferences": {},
  "deployedLinkReferences": {}
}