{
  "_format": "hh-sol-artifact-1",
  "contractName": "TicketNFTGenerator",
  "sourceName": "contracts/TicketNFTGenerator.sol",
  "abi": [
    {
      "inputs": [
        {
          "internalType": "uint256",
          "name": "_maxSupply",
          "type": "uint256"
        },
        {
          "internalType": "uint256",
          "name": "_initialMintPrice",
          "type": "uint256"
        },
        {
          "internalType": "string",
          "name": "_urlCommon",
          "type": "string"
        },
        {
          "internalType": "string",
          "name": "_urlRare",
          "type": "string"
        },
        {
          "internalType": "string",
          "name": "_urlSuperRare",
          "type": "string"
        },
        {
          "internalType": "uint256",
          "name": "_upperLimitCommon",
          "type": "uint256"
        },
        {
          "internalType": "uint256",
          "name": "_upperLimitRare",
          "type": "uint256"
        },
        {
          "internalType": "uint64",
          "name": "_subscriptionId",
          "type": "uint64"
        },
        {
          "internalType": "address",
          "name": "_vrfCoordinator",
          "type": "address"
        },
        {
          "internalType": "bytes32",
          "name": "_keyHash",
          "type": "bytes32"
        }
      ],
      "stateMutability": "nonpayable",
      "type": "constructor"
    },
    {
      "inputs": [
        {
          "internalType": "address",
          "name": "have",
          "type": "address"
        },
        {
          "internalType": "address",
          "name": "want",
          "type": "address"
        }
      ],
      "name": "OnlyCoordinatorCanFulfill",
      "type": "error"
    },
    {
      "anonymous": false,
      "inputs": [
        {
          "indexed": true,
          "internalType": "address",
          "name": "owner",
          "type": "address"
        },
        {
          "indexed": true,
          "internalType": "address",
          "name": "approved",
          "type": "address"
        },
        {
          "indexed": true,
          "internalType": "uint256",
          "name": "tokenId",
          "type": "uint256"
        }
      ],
      "name": "Approval",
      "type": "event"
    },
    {
      "anonymous": false,
      "inputs": [
        {
          "indexed": true,
          "internalType": "address",
          "name": "owner",
          "type": "address"
        },
        {
          "indexed": true,
          "internalType": "address",
          "name": "operator",
          "type": "address"
        },
        {
          "indexed": false,
          "internalType": "bool",
          "name": "approved",
          "type": "bool"
        }
      ],
      "name": "ApprovalForAll",
      "type": "event"
    },
    {
      "anonymous": false,
      "inputs": [
        {
          "indexed": true,
          "internalType": "address",
          "name": "previousOwner",
          "type": "address"
        },
        {
          "indexed": true,
          "internalType": "address",
          "name": "newOwner",
          "type": "address"
        }
      ],
      "name": "OwnershipTransferred",
      "type": "event"
    },
    {
      "anonymous": false,
      "inputs": [
        {
          "indexed": false,
          "internalType": "address",
          "name": "account",
          "type": "address"
        }
      ],
      "name": "Paused",
      "type": "event"
    },
    {
      "anonymous": false,
      "inputs": [
        {
          "indexed": false,
          "internalType": "address",
          "name": "sender",
          "type": "address"
        },
        {
          "indexed": false,
          "internalType": "uint256",
          "name": "tokenId",
          "type": "uint256"
        },
        {
          "indexed": false,
          "internalType": "uint256",
          "name": "tokenCounter",
          "type": "uint256"
        },
        {
          "indexed": false,
          "internalType": "uint256",
          "name": "maxSupply",
          "type": "uint256"
        }
      ],
      "name": "TicketMinted",
      "type": "event"
    },
    {
      "anonymous": false,
      "inputs": [],
      "name": "TicketRandomnessGenerated",
      "type": "event"
    },
    {
      "anonymous": false,
      "inputs": [
        {
          "indexed": false,
          "internalType": "uint256",
          "name": "tokenId",
          "type": "uint256"
        },
        {
          "indexed": false,
          "internalType": "address",
          "name": "from",
          "type": "address"
        },
        {
          "indexed": false,
          "internalType": "address",
          "name": "to",
          "type": "address"
        }
      ],
      "name": "TicketSent",
      "type": "event"
    },
    {
      "anonymous": false,
      "inputs": [
        {
          "indexed": false,
          "internalType": "uint256",
          "name": "tokenId",
          "type": "uint256"
        },
        {
          "indexed": false,
          "internalType": "string",
          "name": "tokenUrl",
          "type": "string"
        }
      ],
      "name": "TicketToShow",
      "type": "event"
    },
    {
      "anonymous": false,
      "inputs": [
        {
          "indexed": true,
          "internalType": "address",
          "name": "from",
          "type": "address"
        },
        {
          "indexed": true,
          "internalType": "address",
          "name": "to",
          "type": "address"
        },
        {
          "indexed": true,
          "internalType": "uint256",
          "name": "tokenId",
          "type": "uint256"
        }
      ],
      "name": "Transfer",
      "type": "event"
    },
    {
      "anonymous": false,
      "inputs": [
        {
          "indexed": false,
          "internalType": "address",
          "name": "account",
          "type": "address"
        }
      ],
      "name": "Unpaused",
      "type": "event"
    },
    {
      "inputs": [
        {
          "internalType": "address",
          "name": "to",
          "type": "address"
        },
        {
          "internalType": "uint256",
          "name": "tokenId",
          "type": "uint256"
        }
      ],
      "name": "approve",
      "outputs": [],
      "stateMutability": "nonpayable",
      "type": "function"
    },
    {
      "inputs": [
        {
          "internalType": "address",
          "name": "owner",
          "type": "address"
        }
      ],
      "name": "balanceOf",
      "outputs": [
        {
          "internalType": "uint256",
          "name": "",
          "type": "uint256"
        }
      ],
      "stateMutability": "view",
      "type": "function"
    },
    {
      "inputs": [
        {
          "internalType": "uint256",
          "name": "tokenId",
          "type": "uint256"
        }
      ],
      "name": "getApproved",
      "outputs": [
        {
          "internalType": "address",
          "name": "",
          "type": "address"
        }
      ],
      "stateMutability": "view",
      "type": "function"
    },
    {
      "inputs": [],
      "name": "getBalance",
      "outputs": [
        {
          "internalType": "uint256",
          "name": "",
          "type": "uint256"
        }
      ],
      "stateMutability": "view",
      "type": "function"
    },
    {
      "inputs": [],
      "name": "getMaxSupply",
      "outputs": [
        {
          "internalType": "uint256",
          "name": "",
          "type": "uint256"
        }
      ],
      "stateMutability": "view",
      "type": "function"
    },
    {
      "inputs": [],
      "name": "getMintPrice",
      "outputs": [
        {
          "internalType": "uint256",
          "name": "",
          "type": "uint256"
        }
      ],
      "stateMutability": "view",
      "type": "function"
    },
    {
      "inputs": [],
      "name": "getTokenCounter",
      "outputs": [
        {
          "internalType": "uint256",
          "name": "",
          "type": "uint256"
        }
      ],
      "stateMutability": "view",
      "type": "function"
    },
    {
      "inputs": [],
      "name": "getUpdatedUpperLimitCommon",
      "outputs": [
        {
          "internalType": "uint256",
          "name": "",
          "type": "uint256"
        }
      ],
      "stateMutability": "view",
      "type": "function"
    },
    {
      "inputs": [],
      "name": "getUpdatedUpperLimitRare",
      "outputs": [
        {
          "internalType": "uint256",
          "name": "",
          "type": "uint256"
        }
      ],
      "stateMutability": "view",
      "type": "function"
    },
    {
      "inputs": [
        {
          "internalType": "uint256",
          "name": "_tokenId",
          "type": "uint256"
        },
        {
          "internalType": "address",
          "name": "_to",
          "type": "address"
        }
      ],
      "name": "givesToken",
      "outputs": [],
      "stateMutability": "nonpayable",
      "type": "function"
    },
    {
      "inputs": [
        {
          "internalType": "address",
          "name": "owner",
          "type": "address"
        },
        {
          "internalType": "address",
          "name": "operator",
          "type": "address"
        }
      ],
      "name": "isApprovedForAll",
      "outputs": [
        {
          "internalType": "bool",
          "name": "",
          "type": "bool"
        }
      ],
      "stateMutability": "view",
      "type": "function"
    },
    {
      "inputs": [
        {
          "internalType": "uint256",
          "name": "_tokenId",
          "type": "uint256"
        }
      ],
      "name": "isTokenOwned",
      "outputs": [
        {
          "internalType": "bool",
          "name": "",
          "type": "bool"
        }
      ],
      "stateMutability": "view",
      "type": "function"
    },
    {
      "inputs": [],
      "name": "mintPrice",
      "outputs": [
        {
          "internalType": "uint256",
          "name": "",
          "type": "uint256"
        }
      ],
      "stateMutability": "view",
      "type": "function"
    },
    {
      "inputs": [
        {
          "internalType": "uint256",
          "name": "_randomNumber",
          "type": "uint256"
        }
      ],
      "name": "mintTicket",
      "outputs": [],
      "stateMutability": "payable",
      "type": "function"
    },
    {
      "inputs": [],
      "name": "name",
      "outputs": [
        {
          "internalType": "string",
          "name": "",
          "type": "string"
        }
      ],
      "stateMutability": "view",
      "type": "function"
    },
    {
      "inputs": [],
      "name": "owner",
      "outputs": [
        {
          "internalType": "address",
          "name": "",
          "type": "address"
        }
      ],
      "stateMutability": "view",
      "type": "function"
    },
    {
      "inputs": [
        {
          "internalType": "uint256",
          "name": "tokenId",
          "type": "uint256"
        }
      ],
      "name": "ownerOf",
      "outputs": [
        {
          "internalType": "address",
          "name": "",
          "type": "address"
        }
      ],
      "stateMutability": "view",
      "type": "function"
    },
    {
      "inputs": [],
      "name": "pause",
      "outputs": [],
      "stateMutability": "nonpayable",
      "type": "function"
    },
    {
      "inputs": [],
      "name": "paused",
      "outputs": [
        {
          "internalType": "bool",
          "name": "",
          "type": "bool"
        }
      ],
      "stateMutability": "view",
      "type": "function"
    },
    {
      "inputs": [
        {
          "internalType": "uint256",
          "name": "requestId",
          "type": "uint256"
        },
        {
          "internalType": "uint256[]",
          "name": "randomWords",
          "type": "uint256[]"
        }
      ],
      "name": "rawFulfillRandomWords",
      "outputs": [],
      "stateMutability": "nonpayable",
      "type": "function"
    },
    {
      "inputs": [],
      "name": "receiveMoney",
      "outputs": [],
      "stateMutability": "payable",
      "type": "function"
    },
    {
      "inputs": [],
      "name": "renounceOwnership",
      "outputs": [],
      "stateMutability": "nonpayable",
      "type": "function"
    },
    {
      "inputs": [],
      "name": "requestRandomWords",
      "outputs": [],
      "stateMutability": "nonpayable",
      "type": "function"
    },
    {
      "inputs": [
        {
          "internalType": "address",
          "name": "from",
          "type": "address"
        },
        {
          "internalType": "address",
          "name": "to",
          "type": "address"
        },
        {
          "internalType": "uint256",
          "name": "tokenId",
          "type": "uint256"
        }
      ],
      "name": "safeTransferFrom",
      "outputs": [],
      "stateMutability": "nonpayable",
      "type": "function"
    },
    {
      "inputs": [
        {
          "internalType": "address",
          "name": "from",
          "type": "address"
        },
        {
          "internalType": "address",
          "name": "to",
          "type": "address"
        },
        {
          "internalType": "uint256",
          "name": "tokenId",
          "type": "uint256"
        },
        {
          "internalType": "bytes",
          "name": "data",
          "type": "bytes"
        }
      ],
      "name": "safeTransferFrom",
      "outputs": [],
      "stateMutability": "nonpayable",
      "type": "function"
    },
    {
      "inputs": [
        {
          "internalType": "address",
          "name": "_to",
          "type": "address"
        },
        {
          "internalType": "uint256",
          "name": "_amount",
          "type": "uint256"
        }
      ],
      "name": "sendMoney",
      "outputs": [],
      "stateMutability": "nonpayable",
      "type": "function"
    },
    {
      "inputs": [
        {
          "internalType": "address",
          "name": "operator",
          "type": "address"
        },
        {
          "internalType": "bool",
          "name": "approved",
          "type": "bool"
        }
      ],
      "name": "setApprovalForAll",
      "outputs": [],
      "stateMutability": "nonpayable",
      "type": "function"
    },
    {
      "inputs": [
        {
          "internalType": "uint256",
          "name": "_maxSupply",
          "type": "uint256"
        }
      ],
      "name": "setMaxSupply",
      "outputs": [],
      "stateMutability": "nonpayable",
      "type": "function"
    },
    {
      "inputs": [
        {
          "internalType": "uint256",
          "name": "_mintPrice",
          "type": "uint256"
        }
      ],
      "name": "setMintPrice",
      "outputs": [],
      "stateMutability": "nonpayable",
      "type": "function"
    },
    {
      "inputs": [
        {
          "internalType": "bytes4",
          "name": "interfaceId",
          "type": "bytes4"
        }
      ],
      "name": "supportsInterface",
      "outputs": [
        {
          "internalType": "bool",
          "name": "",
          "type": "bool"
        }
      ],
      "stateMutability": "view",
      "type": "function"
    },
    {
      "inputs": [],
      "name": "symbol",
      "outputs": [
        {
          "internalType": "string",
          "name": "",
          "type": "string"
        }
      ],
      "stateMutability": "view",
      "type": "function"
    },
    {
      "inputs": [
        {
          "internalType": "uint256",
          "name": "index",
          "type": "uint256"
        }
      ],
      "name": "tokenByIndex",
      "outputs": [
        {
          "internalType": "uint256",
          "name": "",
          "type": "uint256"
        }
      ],
      "stateMutability": "view",
      "type": "function"
    },
    {
      "inputs": [
        {
          "internalType": "address",
          "name": "owner",
          "type": "address"
        },
        {
          "internalType": "uint256",
          "name": "index",
          "type": "uint256"
        }
      ],
      "name": "tokenOfOwnerByIndex",
      "outputs": [
        {
          "internalType": "uint256",
          "name": "",
          "type": "uint256"
        }
      ],
      "stateMutability": "view",
      "type": "function"
    },
    {
      "inputs": [
        {
          "internalType": "uint256",
          "name": "tokenId",
          "type": "uint256"
        }
      ],
      "name": "tokenURI",
      "outputs": [
        {
          "internalType": "string",
          "name": "",
          "type": "string"
        }
      ],
      "stateMutability": "view",
      "type": "function"
    },
    {
      "inputs": [
        {
          "internalType": "uint256",
          "name": "_tokenId",
          "type": "uint256"
        }
      ],
      "name": "tokenURIIfOwned",
      "outputs": [
        {
          "internalType": "string",
          "name": "",
          "type": "string"
        }
      ],
      "stateMutability": "view",
      "type": "function"
    },
    {
      "inputs": [],
      "name": "totalSupply",
      "outputs": [
        {
          "internalType": "uint256",
          "name": "",
          "type": "uint256"
        }
      ],
      "stateMutability": "view",
      "type": "function"
    },
    {
      "inputs": [
        {
          "internalType": "address",
          "name": "from",
          "type": "address"
        },
        {
          "internalType": "address",
          "name": "to",
          "type": "address"
        },
        {
          "internalType": "uint256",
          "name": "tokenId",
          "type": "uint256"
        }
      ],
      "name": "transferFrom",
      "outputs": [],
      "stateMutability": "nonpayable",
      "type": "function"
    },
    {
      "inputs": [
        {
          "internalType": "address",
          "name": "newOwner",
          "type": "address"
        }
      ],
      "name": "transferOwnership",
      "outputs": [],
      "stateMutability": "nonpayable",
      "type": "function"
    },
    {
      "inputs": [],
      "name": "unPause",
      "outputs": [],
      "stateMutability": "nonpayable",
      "type": "function"
    },
    {
      "stateMutability": "payable",
      "type": "receive"
    }
  ],
  "bytecode": "0x60a06040523480156200001157600080fd5b506040516200579138038062005791833981810160405281019062000037919062000778565b601360000160089054906101000a900473ffffffffffffffffffffffffffffffffffffffff166040518060400160405280600981526020017f5469636b65744e465400000000000000000000000000000000000000000000008152506040518060400160405280600381526020017f544b5400000000000000000000000000000000000000000000000000000000008152508160009080519060200190620000e1929190620005ee565b508060019080519060200190620000fa929190620005ee565b5050506200011d620001116200045460201b60201c565b6200045c60201b60201c565b6000600b60146101000a81548160ff0219169083151502179055508073ffffffffffffffffffffffffffffffffffffffff1660808173ffffffffffffffffffffffffffffffffffffffff1660601b815250505089601681905550886017819055506040518060e0016040528089815260200188815260200187815260200186815260200185815260200186815260200185815250600c6000820151816000019080519060200190620001d1929190620005ee565b506020820151816001019080519060200190620001f0929190620005ee565b5060408201518160020190805190602001906200020f929190620005ee565b50606082015181600301556080820151816004015560a0820151816005015560c082015181600601559050506040518060c001604052808467ffffffffffffffff1681526020018373ffffffffffffffffffffffffffffffffffffffff168152602001828152602001622625a063ffffffff168152602001600361ffff168152602001600263ffffffff16815250601360008201518160000160006101000a81548167ffffffffffffffff021916908367ffffffffffffffff16021790555060208201518160000160086101000a81548173ffffffffffffffffffffffffffffffffffffffff021916908373ffffffffffffffffffffffffffffffffffffffff1602179055506040820151816001015560608201518160020160006101000a81548163ffffffff021916908363ffffffff16021790555060808201518160020160046101000a81548161ffff021916908361ffff16021790555060a08201518160020160066101000a81548163ffffffff021916908363ffffffff160217905550905050601360000160089054906101000a900473ffffffffffffffffffffffffffffffffffffffff16601c60006101000a81548173ffffffffffffffffffffffffffffffffffffffff021916908373ffffffffffffffffffffffffffffffffffffffff160217905550620004446040518060400160405280601581526020017f436f6e747261637420696e7374616e74696174656400000000000000000000008152506200052260201b620016a41760201c565b5050505050505050505062000b94565b600033905090565b6000600b60009054906101000a900473ffffffffffffffffffffffffffffffffffffffff16905081600b60006101000a81548173ffffffffffffffffffffffffffffffffffffffff021916908373ffffffffffffffffffffffffffffffffffffffff1602179055508173ffffffffffffffffffffffffffffffffffffffff168173ffffffffffffffffffffffffffffffffffffffff167f8be0079c531659141344cd1fd0a4f28419497f9722a3daafe3b4186f6b6457e060405160405180910390a35050565b620005c2816040516024016200053991906200090c565b6040516020818303038152906040527f41304fac000000000000000000000000000000000000000000000000000000007bffffffffffffffffffffffffffffffffffffffffffffffffffffffff19166020820180517bffffffffffffffffffffffffffffffffffffffffffffffffffffffff8381831617835250505050620005c560201b60201c565b50565b60008151905060006a636f6e736f6c652e6c6f679050602083016000808483855afa5050505050565b828054620005fc9062000a3d565b90600052602060002090601f0160209004810192826200062057600085556200066c565b82601f106200063b57805160ff19168380011785556200066c565b828001600101855582156200066c579182015b828111156200066b5782518255916020019190600101906200064e565b5b5090506200067b91906200067f565b5090565b5b808211156200069a57600081600090555060010162000680565b5090565b6000620006b5620006af8462000959565b62000930565b905082815260208101848484011115620006d457620006d362000b0c565b5b620006e184828562000a07565b509392505050565b600081519050620006fa8162000b2c565b92915050565b600081519050620007118162000b46565b92915050565b600082601f8301126200072f576200072e62000b07565b5b8151620007418482602086016200069e565b91505092915050565b6000815190506200075b8162000b60565b92915050565b600081519050620007728162000b7a565b92915050565b6000806000806000806000806000806101408b8d0312156200079f576200079e62000b16565b5b6000620007af8d828e016200074a565b9a50506020620007c28d828e016200074a565b99505060408b015167ffffffffffffffff811115620007e657620007e562000b11565b5b620007f48d828e0162000717565b98505060608b015167ffffffffffffffff81111562000818576200081762000b11565b5b620008268d828e0162000717565b97505060808b015167ffffffffffffffff8111156200084a576200084962000b11565b5b620008588d828e0162000717565b96505060a06200086b8d828e016200074a565b95505060c06200087e8d828e016200074a565b94505060e0620008918d828e0162000761565b935050610100620008a58d828e01620006e9565b925050610120620008b98d828e0162000700565b9150509295989b9194979a5092959850565b6000620008d8826200098f565b620008e481856200099a565b9350620008f681856020860162000a07565b620009018162000b1b565b840191505092915050565b60006020820190508181036000830152620009288184620008cb565b905092915050565b60006200093c6200094f565b90506200094a828262000a73565b919050565b6000604051905090565b600067ffffffffffffffff82111562000977576200097662000ad8565b5b620009828262000b1b565b9050602081019050919050565b600081519050919050565b600082825260208201905092915050565b6000620009b882620009c9565b9050919050565b6000819050919050565b600073ffffffffffffffffffffffffffffffffffffffff82169050919050565b6000819050919050565b600067ffffffffffffffff82169050919050565b60005b8381101562000a2757808201518184015260208101905062000a0a565b8381111562000a37576000848401525b50505050565b6000600282049050600182168062000a5657607f821691505b6020821081141562000a6d5762000a6c62000aa9565b5b50919050565b62000a7e8262000b1b565b810181811067ffffffffffffffff8211171562000aa05762000a9f62000ad8565b5b80604052505050565b7f4e487b7100000000000000000000000000000000000000000000000000000000600052602260045260246000fd5b7f4e487b7100000000000000000000000000000000000000000000000000000000600052604160045260246000fd5b600080fd5b600080fd5b600080fd5b600080fd5b6000601f19601f8301169050919050565b62000b3781620009ab565b811462000b4357600080fd5b50565b62000b5181620009bf565b811462000b5d57600080fd5b50565b62000b6b81620009e9565b811462000b7757600080fd5b50565b62000b8581620009f3565b811462000b9157600080fd5b50565b60805160601c614bd762000bba60003960008181610b5a0152610bae0152614bd76000f3fe6080604052600436106102345760003560e01c80636f8b44b01161012e578063abc411fd116100ab578063e985e9c51161006f578063e985e9c514610824578063ee4ae2c914610861578063f2fde38b1461088a578063f4a0a528146108b3578063f7b188a5146108dc57610243565b8063abc411fd1461073f578063abc6184c1461076a578063b88d4fde146107a7578063c87b56dd146107d0578063e0c862891461080d57610243565b80638da5cb5b116100f25780638da5cb5b1461065857806395d89b4114610683578063a188342f146106ae578063a22cb465146106eb578063a7f93ebd1461071457610243565b80636f8b44b01461059b57806370a08231146105c4578063715018a6146106015780638456cb5914610618578063889e47a71461062f57610243565b80632f745c59116101bc5780635c975abb116101805780635c975abb146104d35780636352211e146104fe5780636817c76c1461053b5780636d26ec18146105665780636e02007d1461057057610243565b80632f745c59146103da57806342842e0e146104175780634c0f38c2146104405780634f6ccce71461046b5780634fa116d5146104a857610243565b806312065fe01161020357806312065fe01461031657806318160ddd146103415780631fe543e31461036c57806323b872dd14610395578063256d52f6146103be57610243565b806301ffc9a71461024857806306fdde0314610285578063081812fc146102b0578063095ea7b3146102ed57610243565b36610243576102416108f3565b005b600080fd5b34801561025457600080fd5b5061026f600480360381019061026a919061365d565b610937565b60405161027c9190613cb4565b60405180910390f35b34801561029157600080fd5b5061029a610949565b6040516102a79190613d22565b60405180910390f35b3480156102bc57600080fd5b506102d760048036038101906102d291906136b7565b6109db565b6040516102e49190613bdf565b60405180910390f35b3480156102f957600080fd5b50610314600480360381019061030f919061361d565b610a21565b005b34801561032257600080fd5b5061032b610b39565b6040516103389190614072565b60405180910390f35b34801561034d57600080fd5b50610356610b4b565b6040516103639190614072565b60405180910390f35b34801561037857600080fd5b50610393600480360381019061038e9190613751565b610b58565b005b3480156103a157600080fd5b506103bc60048036038101906103b79190613507565b610c18565b005b6103d860048036038101906103d391906136b7565b610c78565b005b3480156103e657600080fd5b5061040160048036038101906103fc919061361d565b610e87565b60405161040e9190614072565b60405180910390f35b34801561042357600080fd5b5061043e60048036038101906104399190613507565b610f2c565b005b34801561044c57600080fd5b50610455610f4c565b6040516104629190614072565b60405180910390f35b34801561047757600080fd5b50610492600480360381019061048d91906136b7565b610f5e565b60405161049f9190614072565b60405180910390f35b3480156104b457600080fd5b506104bd610fcf565b6040516104ca9190614072565b60405180910390f35b3480156104df57600080fd5b506104e8610fdc565b6040516104f59190613cb4565b60405180910390f35b34801561050a57600080fd5b50610525600480360381019061052091906136b7565b610ff3565b6040516105329190613bdf565b60405180910390f35b34801561054757600080fd5b506105506110a5565b60405161055d9190614072565b60405180910390f35b61056e6108f3565b005b34801561057c57600080fd5b506105856110ab565b6040516105929190614072565b60405180910390f35b3480156105a757600080fd5b506105c260048036038101906105bd91906136b7565b6110c4565b005b3480156105d057600080fd5b506105eb60048036038101906105e6919061349a565b611122565b6040516105f89190614072565b60405180910390f35b34801561060d57600080fd5b506106166111da565b005b34801561062457600080fd5b5061062d6111ee565b005b34801561063b57600080fd5b5061065660048036038101906106519190613711565b611200565b005b34801561066457600080fd5b5061066d61124a565b60405161067a9190613bdf565b60405180910390f35b34801561068f57600080fd5b50610698611274565b6040516106a59190613d22565b60405180910390f35b3480156106ba57600080fd5b506106d560048036038101906106d091906136b7565b611306565b6040516106e29190613d22565b60405180910390f35b3480156106f757600080fd5b50610712600480360381019061070d91906135dd565b61133e565b005b34801561072057600080fd5b50610729611354565b6040516107369190614072565b60405180910390f35b34801561074b57600080fd5b50610754611366565b6040516107619190614072565b60405180910390f35b34801561077657600080fd5b50610791600480360381019061078c91906136b7565b611373565b60405161079e9190613cb4565b60405180910390f35b3480156107b357600080fd5b506107ce60048036038101906107c9919061355a565b611386565b005b3480156107dc57600080fd5b506107f760048036038101906107f291906136b7565b6113e8565b6040516108049190613d22565b60405180910390f35b34801561081957600080fd5b506108226113fa565b005b34801561083057600080fd5b5061084b600480360381019061084691906134c7565b611515565b6040516108589190613cb4565b60405180910390f35b34801561086d57600080fd5b506108886004803603810190610883919061361d565b6115a9565b005b34801561089657600080fd5b506108b160048036038101906108ac919061349a565b6115fc565b005b3480156108bf57600080fd5b506108da60048036038101906108d591906136b7565b611680565b005b3480156108e857600080fd5b506108f1611692565b005b60195461090b6019543461173d90919063ffffffff16565b101561091a57610919614413565b5b61092f3460195461173d90919063ffffffff16565b601981905550565b600061094282611753565b9050919050565b60606000805461095890614336565b80601f016020809104026020016040519081016040528092919081815260200182805461098490614336565b80156109d15780601f106109a6576101008083540402835291602001916109d1565b820191906000526020600020905b8154815290600101906020018083116109b457829003601f168201915b5050505050905090565b60006109e6826117cd565b6004600083815260200190815260200160002060009054906101000a900473ffffffffffffffffffffffffffffffffffffffff169050919050565b6000610a2c82610ff3565b90508073ffffffffffffffffffffffffffffffffffffffff168373ffffffffffffffffffffffffffffffffffffffff161415610a9d576040517f08c379a0000000000000000000000000000000000000000000000000000000008152600401610a9490613fd2565b60405180910390fd5b8073ffffffffffffffffffffffffffffffffffffffff16610abc611818565b73ffffffffffffffffffffffffffffffffffffffff161480610aeb5750610aea81610ae5611818565b611515565b5b610b2a576040517f08c379a0000000000000000000000000000000000000000000000000000000008152600401610b2190613f52565b60405180910390fd5b610b348383611820565b505050565b6000610b436118d9565b601954905090565b6000600980549050905090565b7f000000000000000000000000000000000000000000000000000000000000000073ffffffffffffffffffffffffffffffffffffffff163373ffffffffffffffffffffffffffffffffffffffff1614610c0a57337f00000000000000000000000000000000000000000000000000000000000000006040517f1cf993f4000000000000000000000000000000000000000000000000000000008152600401610c01929190613bfa565b60405180910390fd5b610c148282611957565b5050565b610c29610c23611818565b82611a05565b610c68576040517f08c379a0000000000000000000000000000000000000000000000000000000008152600401610c5f90614032565b60405180910390fd5b610c73838383611a9a565b505050565b610c80611d01565b601754341015610cc5576040517f08c379a0000000000000000000000000000000000000000000000000000000008152600401610cbc90613e72565b60405180910390fd5b60008110158015610cd7575060648111155b610d16576040517f08c379a0000000000000000000000000000000000000000000000000000000008152600401610d0d90614052565b60405180910390fd5b6000610d226018611d4b565b9050610d47604051806060016040528060258152602001614b7d602591398233611d59565b610d513382611df8565b600080601e60003373ffffffffffffffffffffffffffffffffffffffff1673ffffffffffffffffffffffffffffffffffffffff1681526020019081526020016000205414610ddc57601e60003373ffffffffffffffffffffffffffffffffffffffff1673ffffffffffffffffffffffffffffffffffffffff1681526020019081526020016000205490505b610dee82610de985611e16565b612004565b610df86018612078565b610e0061208e565b610e416040518060400160405280600e81526020017f6d696e7465644e6674733a202573000000000000000000000000000000000000815250601a546120f2565b7f64bd16642eed00863590d7320e06c0f31bb0468a971feede4e13313e3b2792243383601a54601654604051610e7a9493929190613c6f565b60405180910390a1505050565b6000610e9283611122565b8210610ed3576040517f08c379a0000000000000000000000000000000000000000000000000000000008152600401610eca90613dd2565b60405180910390fd5b600760008473ffffffffffffffffffffffffffffffffffffffff1673ffffffffffffffffffffffffffffffffffffffff168152602001908152602001600020600083815260200190815260200160002054905092915050565b610f4783838360405180602001604052806000815250611386565b505050565b6000610f56611d01565b601654905090565b6000610f68610b4b565b8210610fa9576040517f08c379a0000000000000000000000000000000000000000000000000000000008152600401610fa090613ff2565b60405180910390fd5b60098281548110610fbd57610fbc6144fe565b5b90600052602060002001549050919050565b6000600c60050154905090565b6000600b60149054906101000a900460ff16905090565b6000806002600084815260200190815260200160002060009054906101000a900473ffffffffffffffffffffffffffffffffffffffff169050600073ffffffffffffffffffffffffffffffffffffffff168173ffffffffffffffffffffffffffffffffffffffff16141561109c576040517f08c379a000000000000000000000000000000000000000000000000000000000815260040161109390613fb2565b60405180910390fd5b80915050919050565b60175481565b60006110b5611d01565b6110bf6018611d4b565b905090565b6110cc611d01565b6110d46118d9565b6016548111611118576040517f08c379a000000000000000000000000000000000000000000000000000000000815260040161110f90614012565b60405180910390fd5b8060168190555050565b60008073ffffffffffffffffffffffffffffffffffffffff168273ffffffffffffffffffffffffffffffffffffffff161415611193576040517f08c379a000000000000000000000000000000000000000000000000000000000815260040161118a90613f12565b60405180910390fd5b600360008373ffffffffffffffffffffffffffffffffffffffff1673ffffffffffffffffffffffffffffffffffffffff168152602001908152602001600020549050919050565b6111e26118d9565b6111ec600061218e565b565b6111f66118d9565b6111fe612254565b565b61120b338284610c18565b7fdba6731bbbfcff209246a4aee1d833836d6766f6515735cda63c0170318fc05182338360405161123e9392919061408d565b60405180910390a15050565b6000600b60009054906101000a900473ffffffffffffffffffffffffffffffffffffffff16905090565b60606001805461128390614336565b80601f01602080910402602001604051908101604052809291908181526020018280546112af90614336565b80156112fc5780601f106112d1576101008083540402835291602001916112fc565b820191906000526020600020905b8154815290600101906020018083116112df57829003601f168201915b5050505050905090565b606061131182611373565b156113265761131f826122b7565b9050611339565b6040518060200160405280600081525090505b919050565b611350611349611818565b83836123ca565b5050565b600061135e611d01565b601754905090565b6000600c60060154905090565b600061137f3383611a05565b9050919050565b611397611391611818565b83611a05565b6113d6576040517f08c379a00000000000000000000000000000000000000000000000000000000081526004016113cd90614032565b60405180910390fd5b6113e284848484612537565b50505050565b60606113f3826122b7565b9050919050565b6114026118d9565b601c60009054906101000a900473ffffffffffffffffffffffffffffffffffffffff1673ffffffffffffffffffffffffffffffffffffffff16635d3b1d30601360010154601360000160009054906101000a900467ffffffffffffffff16601360020160049054906101000a900461ffff16601360020160009054906101000a900463ffffffff16601360020160069054906101000a900463ffffffff166040518663ffffffff1660e01b81526004016114c0959493929190613ccf565b602060405180830381600087803b1580156114da57600080fd5b505af11580156114ee573d6000803e3d6000fd5b505050506040513d601f19601f8201168201806040525081019061151291906136e4565b50565b6000600560008473ffffffffffffffffffffffffffffffffffffffff1673ffffffffffffffffffffffffffffffffffffffff16815260200190815260200160002060008373ffffffffffffffffffffffffffffffffffffffff1673ffffffffffffffffffffffffffffffffffffffff16815260200190815260200160002060009054906101000a900460ff16905092915050565b6115b16118d9565b8173ffffffffffffffffffffffffffffffffffffffff166108fc829081150290604051600060405180830381858888f193505050501580156115f7573d6000803e3d6000fd5b505050565b6116046118d9565b600073ffffffffffffffffffffffffffffffffffffffff168173ffffffffffffffffffffffffffffffffffffffff161415611674576040517f08c379a000000000000000000000000000000000000000000000000000000000815260040161166b90613e12565b60405180910390fd5b61167d8161218e565b50565b6116886118d9565b8060178190555050565b61169a6118d9565b6116a2612593565b565b61173a816040516024016116b89190613d22565b6040516020818303038152906040527f41304fac000000000000000000000000000000000000000000000000000000007bffffffffffffffffffffffffffffffffffffffffffffffffffffffff19166020820180517bffffffffffffffffffffffffffffffffffffffffffffffffffffffff83818316178352505050506125f6565b50565b6000818361174b9190614189565b905092915050565b60007f780e9d63000000000000000000000000000000000000000000000000000000007bffffffffffffffffffffffffffffffffffffffffffffffffffffffff1916827bffffffffffffffffffffffffffffffffffffffffffffffffffffffff191614806117c657506117c58261261f565b5b9050919050565b6117d681612701565b611815576040517f08c379a000000000000000000000000000000000000000000000000000000000815260040161180c90613fb2565b60405180910390fd5b50565b600033905090565b816004600083815260200190815260200160002060006101000a81548173ffffffffffffffffffffffffffffffffffffffff021916908373ffffffffffffffffffffffffffffffffffffffff160217905550808273ffffffffffffffffffffffffffffffffffffffff1661189383610ff3565b73ffffffffffffffffffffffffffffffffffffffff167f8c5be1e5ebec7d5bd14f71427d1e84f3dd0314c0f7b2291e5b200ac8c7c3b92560405160405180910390a45050565b6118e1611818565b73ffffffffffffffffffffffffffffffffffffffff166118ff61124a565b73ffffffffffffffffffffffffffffffffffffffff1614611955576040517f08c379a000000000000000000000000000000000000000000000000000000000815260040161194c90613f92565b60405180910390fd5b565b61197d8160008151811061196e5761196d6144fe565b5b6020026020010151600a61276d565b600c6003015461198d9190614189565b600c600501819055506119bc816001815181106119ad576119ac6144fe565b5b6020026020010151600261276d565b600c600401546119cc9190614189565b600c600601819055507f91e24f53c60e8be42843efd8e1af91ddb6857a39a412185cd11aefcf28d4bf6e60405160405180910390a15050565b600080611a1183610ff3565b90508073ffffffffffffffffffffffffffffffffffffffff168473ffffffffffffffffffffffffffffffffffffffff161480611a535750611a528185611515565b5b80611a9157508373ffffffffffffffffffffffffffffffffffffffff16611a79846109db565b73ffffffffffffffffffffffffffffffffffffffff16145b91505092915050565b8273ffffffffffffffffffffffffffffffffffffffff16611aba82610ff3565b73ffffffffffffffffffffffffffffffffffffffff1614611b10576040517f08c379a0000000000000000000000000000000000000000000000000000000008152600401611b0790613e32565b60405180910390fd5b600073ffffffffffffffffffffffffffffffffffffffff168273ffffffffffffffffffffffffffffffffffffffff161415611b80576040517f08c379a0000000000000000000000000000000000000000000000000000000008152600401611b7790613e92565b60405180910390fd5b611b8b83838361278f565b611b96600082611820565b6001600360008573ffffffffffffffffffffffffffffffffffffffff1673ffffffffffffffffffffffffffffffffffffffff1681526020019081526020016000206000828254611be69190614210565b925050819055506001600360008473ffffffffffffffffffffffffffffffffffffffff1673ffffffffffffffffffffffffffffffffffffffff1681526020019081526020016000206000828254611c3d9190614189565b92505081905550816002600083815260200190815260200160002060006101000a81548173ffffffffffffffffffffffffffffffffffffffff021916908373ffffffffffffffffffffffffffffffffffffffff160217905550808273ffffffffffffffffffffffffffffffffffffffff168473ffffffffffffffffffffffffffffffffffffffff167fddf252ad1be2c89b69c2b068fc378daa952ba7f163c4a11628f55a4df523b3ef60405160405180910390a4611cfc83838361279f565b505050565b611d09610fdc565b15611d49576040517f08c379a0000000000000000000000000000000000000000000000000000000008152600401611d4090613ef2565b60405180910390fd5b565b600081600001549050919050565b611df3838383604051602401611d7193929190613d74565b6040516020818303038152906040527fe3849f79000000000000000000000000000000000000000000000000000000007bffffffffffffffffffffffffffffffffffffffffffffffffffffffff19166020820180517bffffffffffffffffffffffffffffffffffffffffffffffffffffffff83818316178352505050506125f6565b505050565b611e128282604051806020016040528060008152506127a4565b5050565b6060600c600501548210158015611e325750600c600601548211155b15611ecc57600c6001018054611e4790614336565b80601f0160208091040260200160405190810160405280929190818152602001828054611e7390614336565b8015611ec05780601f10611e9557610100808354040283529160200191611ec0565b820191906000526020600020905b815481529060010190602001808311611ea357829003601f168201915b50505050509050611fff565b600c60060154821115611f6e57600c6002018054611ee990614336565b80601f0160208091040260200160405190810160405280929190818152602001828054611f1590614336565b8015611f625780601f10611f3757610100808354040283529160200191611f62565b820191906000526020600020905b815481529060010190602001808311611f4557829003601f168201915b50505050509050611fff565b600c6000018054611f7e90614336565b80601f0160208091040260200160405190810160405280929190818152602001828054611faa90614336565b8015611ff75780601f10611fcc57610100808354040283529160200191611ff7565b820191906000526020600020905b815481529060010190602001808311611fda57829003601f168201915b505050505090505b919050565b61200d82612701565b61204c576040517f08c379a000000000000000000000000000000000000000000000000000000000815260040161204390613f32565b60405180910390fd5b8060066000848152602001908152602001600020908051906020019061207392919061326b565b505050565b6001816000016000828254019250508190555050565b601654601a54106120d4576040517f08c379a00000000000000000000000000000000000000000000000000000000081526004016120cb90613ed2565b60405180910390fd5b6120ea6001601a5461173d90919063ffffffff16565b601a81905550565b61218a8282604051602401612108929190613d44565b6040516020818303038152906040527f9710a9d0000000000000000000000000000000000000000000000000000000007bffffffffffffffffffffffffffffffffffffffffffffffffffffffff19166020820180517bffffffffffffffffffffffffffffffffffffffffffffffffffffffff83818316178352505050506125f6565b5050565b6000600b60009054906101000a900473ffffffffffffffffffffffffffffffffffffffff16905081600b60006101000a81548173ffffffffffffffffffffffffffffffffffffffff021916908373ffffffffffffffffffffffffffffffffffffffff1602179055508173ffffffffffffffffffffffffffffffffffffffff168173ffffffffffffffffffffffffffffffffffffffff167f8be0079c531659141344cd1fd0a4f28419497f9722a3daafe3b4186f6b6457e060405160405180910390a35050565b61225c611d01565b6001600b60146101000a81548160ff0219169083151502179055507f62e78cea01bee320cd4e420270b5ea74000d11b0c9f74754ebdbfc544b05a2586122a0611818565b6040516122ad9190613bdf565b60405180910390a1565b60606122c2826117cd565b60006006600084815260200190815260200160002080546122e290614336565b80601f016020809104026020016040519081016040528092919081815260200182805461230e90614336565b801561235b5780601f106123305761010080835404028352916020019161235b565b820191906000526020600020905b81548152906001019060200180831161233e57829003601f168201915b50505050509050600061236c6127ff565b90506000815114156123825781925050506123c5565b6000825111156123b757808260405160200161239f929190613bbb565b604051602081830303815290604052925050506123c5565b6123c08461283c565b925050505b919050565b8173ffffffffffffffffffffffffffffffffffffffff168373ffffffffffffffffffffffffffffffffffffffff161415612439576040517f08c379a000000000000000000000000000000000000000000000000000000000815260040161243090613eb2565b60405180910390fd5b80600560008573ffffffffffffffffffffffffffffffffffffffff1673ffffffffffffffffffffffffffffffffffffffff16815260200190815260200160002060008473ffffffffffffffffffffffffffffffffffffffff1673ffffffffffffffffffffffffffffffffffffffff16815260200190815260200160002060006101000a81548160ff0219169083151502179055508173ffffffffffffffffffffffffffffffffffffffff168373ffffffffffffffffffffffffffffffffffffffff167f17307eab39ab6107e8899845ad3d59bd9653f200f220920489ca2b5937696c318360405161252a9190613cb4565b60405180910390a3505050565b612542848484611a9a565b61254e848484846128a4565b61258d576040517f08c379a000000000000000000000000000000000000000000000000000000000815260040161258490613df2565b60405180910390fd5b50505050565b61259b612a3b565b6000600b60146101000a81548160ff0219169083151502179055507f5db9ee0a495bf2e6ff9c91a7834c1ba4fdd244a5e8aa4e537bd38aeae4b073aa6125df611818565b6040516125ec9190613bdf565b60405180910390a1565b60008151905060006a636f6e736f6c652e6c6f679050602083016000808483855afa5050505050565b60007f80ac58cd000000000000000000000000000000000000000000000000000000007bffffffffffffffffffffffffffffffffffffffffffffffffffffffff1916827bffffffffffffffffffffffffffffffffffffffffffffffffffffffff191614806126ea57507f5b5e139f000000000000000000000000000000000000000000000000000000007bffffffffffffffffffffffffffffffffffffffffffffffffffffffff1916827bffffffffffffffffffffffffffffffffffffffffffffffffffffffff1916145b806126fa57506126f982612a84565b5b9050919050565b60008073ffffffffffffffffffffffffffffffffffffffff166002600084815260200190815260200160002060009054906101000a900473ffffffffffffffffffffffffffffffffffffffff1673ffffffffffffffffffffffffffffffffffffffff1614159050919050565b60006001828461277d91906143e2565b6127879190614189565b905092915050565b61279a838383612aee565b505050565b505050565b6127ae8383612c02565b6127bb60008484846128a4565b6127fa576040517f08c379a00000000000000000000000000000000000000000000000000000000081526004016127f190613df2565b60405180910390fd5b505050565b60606040518060400160405280600781526020017f697066733a2f2f00000000000000000000000000000000000000000000000000815250905090565b6060612847826117cd565b60006128516127ff565b90506000815111612871576040518060200160405280600081525061289c565b8061287b84612ddc565b60405160200161288c929190613bbb565b6040516020818303038152906040525b915050919050565b60006128c58473ffffffffffffffffffffffffffffffffffffffff16612f3d565b15612a2e578373ffffffffffffffffffffffffffffffffffffffff1663150b7a026128ee611818565b8786866040518563ffffffff1660e01b81526004016129109493929190613c23565b602060405180830381600087803b15801561292a57600080fd5b505af192505050801561295b57506040513d601f19601f82011682018060405250810190612958919061368a565b60015b6129de573d806000811461298b576040519150601f19603f3d011682016040523d82523d6000602084013e612990565b606091505b506000815114156129d6576040517f08c379a00000000000000000000000000000000000000000000000000000000081526004016129cd90613df2565b60405180910390fd5b805181602001fd5b63150b7a0260e01b7bffffffffffffffffffffffffffffffffffffffffffffffffffffffff1916817bffffffffffffffffffffffffffffffffffffffffffffffffffffffff191614915050612a33565b600190505b949350505050565b612a43610fdc565b612a82576040517f08c379a0000000000000000000000000000000000000000000000000000000008152600401612a7990613db2565b60405180910390fd5b565b60007f01ffc9a7000000000000000000000000000000000000000000000000000000007bffffffffffffffffffffffffffffffffffffffffffffffffffffffff1916827bffffffffffffffffffffffffffffffffffffffffffffffffffffffff1916149050919050565b612af9838383612f60565b600073ffffffffffffffffffffffffffffffffffffffff168373ffffffffffffffffffffffffffffffffffffffff161415612b3c57612b3781612f65565b612b7b565b8173ffffffffffffffffffffffffffffffffffffffff168373ffffffffffffffffffffffffffffffffffffffff1614612b7a57612b798382612fae565b5b5b600073ffffffffffffffffffffffffffffffffffffffff168273ffffffffffffffffffffffffffffffffffffffff161415612bbe57612bb98161311b565b612bfd565b8273ffffffffffffffffffffffffffffffffffffffff168273ffffffffffffffffffffffffffffffffffffffff1614612bfc57612bfb82826131ec565b5b5b505050565b600073ffffffffffffffffffffffffffffffffffffffff168273ffffffffffffffffffffffffffffffffffffffff161415612c72576040517f08c379a0000000000000000000000000000000000000000000000000000000008152600401612c6990613f72565b60405180910390fd5b612c7b81612701565b15612cbb576040517f08c379a0000000000000000000000000000000000000000000000000000000008152600401612cb290613e52565b60405180910390fd5b612cc76000838361278f565b6001600360008473ffffffffffffffffffffffffffffffffffffffff1673ffffffffffffffffffffffffffffffffffffffff1681526020019081526020016000206000828254612d179190614189565b92505081905550816002600083815260200190815260200160002060006101000a81548173ffffffffffffffffffffffffffffffffffffffff021916908373ffffffffffffffffffffffffffffffffffffffff160217905550808273ffffffffffffffffffffffffffffffffffffffff16600073ffffffffffffffffffffffffffffffffffffffff167fddf252ad1be2c89b69c2b068fc378daa952ba7f163c4a11628f55a4df523b3ef60405160405180910390a4612dd86000838361279f565b5050565b60606000821415612e24576040518060400160405280600181526020017f30000000000000000000000000000000000000000000000000000000000000008152509050612f38565b600082905060005b60008214612e56578080612e3f90614399565b915050600a82612e4f91906141df565b9150612e2c565b60008167ffffffffffffffff811115612e7257612e7161452d565b5b6040519080825280601f01601f191660200182016040528015612ea45781602001600182028036833780820191505090505b5090505b60008514612f3157600182612ebd9190614210565b9150600a85612ecc91906143e2565b6030612ed89190614189565b60f81b818381518110612eee57612eed6144fe565b5b60200101907effffffffffffffffffffffffffffffffffffffffffffffffffffffffffffff1916908160001a905350600a85612f2a91906141df565b9450612ea8565b8093505050505b919050565b6000808273ffffffffffffffffffffffffffffffffffffffff163b119050919050565b505050565b600980549050600a600083815260200190815260200160002081905550600981908060018154018082558091505060019003906000526020600020016000909190919091505550565b60006001612fbb84611122565b612fc59190614210565b90506000600860008481526020019081526020016000205490508181146130aa576000600760008673ffffffffffffffffffffffffffffffffffffffff1673ffffffffffffffffffffffffffffffffffffffff168152602001908152602001600020600084815260200190815260200160002054905080600760008773ffffffffffffffffffffffffffffffffffffffff1673ffffffffffffffffffffffffffffffffffffffff168152602001908152602001600020600084815260200190815260200160002081905550816008600083815260200190815260200160002081905550505b6008600084815260200190815260200160002060009055600760008573ffffffffffffffffffffffffffffffffffffffff1673ffffffffffffffffffffffffffffffffffffffff16815260200190815260200160002060008381526020019081526020016000206000905550505050565b6000600160098054905061312f9190614210565b90506000600a600084815260200190815260200160002054905060006009838154811061315f5761315e6144fe565b5b906000526020600020015490508060098381548110613181576131806144fe565b5b906000526020600020018190555081600a600083815260200190815260200160002081905550600a60008581526020019081526020016000206000905560098054806131d0576131cf6144cf565b5b6001900381819060005260206000200160009055905550505050565b60006131f783611122565b905081600760008573ffffffffffffffffffffffffffffffffffffffff1673ffffffffffffffffffffffffffffffffffffffff168152602001908152602001600020600083815260200190815260200160002081905550806008600084815260200190815260200160002081905550505050565b82805461327790614336565b90600052602060002090601f01602090048101928261329957600085556132e0565b82601f106132b257805160ff19168380011785556132e0565b828001600101855582156132e0579182015b828111156132df5782518255916020019190600101906132c4565b5b5090506132ed91906132f1565b5090565b5b8082111561330a5760008160009055506001016132f2565b5090565b600061332161331c846140e9565b6140c4565b9050808382526020820190508285602086028201111561334457613343614561565b5b60005b85811015613374578161335a8882613470565b845260208401935060208301925050600181019050613347565b5050509392505050565b600061339161338c84614115565b6140c4565b9050828152602081018484840111156133ad576133ac614566565b5b6133b88482856142f4565b509392505050565b6000813590506133cf81614b20565b92915050565b600082601f8301126133ea576133e961455c565b5b81356133fa84826020860161330e565b91505092915050565b60008135905061341281614b37565b92915050565b60008135905061342781614b4e565b92915050565b60008151905061343c81614b4e565b92915050565b600082601f8301126134575761345661455c565b5b813561346784826020860161337e565b91505092915050565b60008135905061347f81614b65565b92915050565b60008151905061349481614b65565b92915050565b6000602082840312156134b0576134af614570565b5b60006134be848285016133c0565b91505092915050565b600080604083850312156134de576134dd614570565b5b60006134ec858286016133c0565b92505060206134fd858286016133c0565b9150509250929050565b6000806000606084860312156135205761351f614570565b5b600061352e868287016133c0565b935050602061353f868287016133c0565b925050604061355086828701613470565b9150509250925092565b6000806000806080858703121561357457613573614570565b5b6000613582878288016133c0565b9450506020613593878288016133c0565b93505060406135a487828801613470565b925050606085013567ffffffffffffffff8111156135c5576135c461456b565b5b6135d187828801613442565b91505092959194509250565b600080604083850312156135f4576135f3614570565b5b6000613602858286016133c0565b925050602061361385828601613403565b9150509250929050565b6000806040838503121561363457613633614570565b5b6000613642858286016133c0565b925050602061365385828601613470565b9150509250929050565b60006020828403121561367357613672614570565b5b600061368184828501613418565b91505092915050565b6000602082840312156136a05761369f614570565b5b60006136ae8482850161342d565b91505092915050565b6000602082840312156136cd576136cc614570565b5b60006136db84828501613470565b91505092915050565b6000602082840312156136fa576136f9614570565b5b600061370884828501613485565b91505092915050565b6000806040838503121561372857613727614570565b5b600061373685828601613470565b9250506020613747858286016133c0565b9150509250929050565b6000806040838503121561376857613767614570565b5b600061377685828601613470565b925050602083013567ffffffffffffffff8111156137975761379661456b565b5b6137a3858286016133d5565b9150509250929050565b6137b681614244565b82525050565b6137c581614256565b82525050565b6137d481614262565b82525050565b60006137e582614146565b6137ef818561415c565b93506137ff818560208601614303565b61380881614575565b840191505092915050565b600061381e82614151565b613828818561416d565b9350613838818560208601614303565b61384181614575565b840191505092915050565b600061385782614151565b613861818561417e565b9350613871818560208601614303565b80840191505092915050565b600061388a60148361416d565b915061389582614586565b602082019050919050565b60006138ad602b8361416d565b91506138b8826145af565b604082019050919050565b60006138d060328361416d565b91506138db826145fe565b604082019050919050565b60006138f360268361416d565b91506138fe8261464d565b604082019050919050565b600061391660258361416d565b91506139218261469c565b604082019050919050565b6000613939601c8361416d565b9150613944826146eb565b602082019050919050565b600061395c60288361416d565b915061396782614714565b604082019050919050565b600061397f60248361416d565b915061398a82614763565b604082019050919050565b60006139a260198361416d565b91506139ad826147b2565b602082019050919050565b60006139c560298361416d565b91506139d0826147db565b604082019050919050565b60006139e860108361416d565b91506139f38261482a565b602082019050919050565b6000613a0b60298361416d565b9150613a1682614853565b604082019050919050565b6000613a2e602e8361416d565b9150613a39826148a2565b604082019050919050565b6000613a51603e8361416d565b9150613a5c826148f1565b604082019050919050565b6000613a7460208361416d565b9150613a7f82614940565b602082019050919050565b6000613a9760208361416d565b9150613aa282614969565b602082019050919050565b6000613aba60188361416d565b9150613ac582614992565b602082019050919050565b6000613add60218361416d565b9150613ae8826149bb565b604082019050919050565b6000613b00602c8361416d565b9150613b0b82614a0a565b604082019050919050565b6000613b2360388361416d565b9150613b2e82614a59565b604082019050919050565b6000613b46602e8361416d565b9150613b5182614aa8565b604082019050919050565b6000613b6960198361416d565b9150613b7482614af7565b602082019050919050565b613b8881614298565b82525050565b613b97816142c6565b82525050565b613ba6816142d0565b82525050565b613bb5816142e0565b82525050565b6000613bc7828561384c565b9150613bd3828461384c565b91508190509392505050565b6000602082019050613bf460008301846137ad565b92915050565b6000604082019050613c0f60008301856137ad565b613c1c60208301846137ad565b9392505050565b6000608082019050613c3860008301876137ad565b613c4560208301866137ad565b613c526040830185613b8e565b8181036060830152613c6481846137da565b905095945050505050565b6000608082019050613c8460008301876137ad565b613c916020830186613b8e565b613c9e6040830185613b8e565b613cab6060830184613b8e565b95945050505050565b6000602082019050613cc960008301846137bc565b92915050565b600060a082019050613ce460008301886137cb565b613cf16020830187613bac565b613cfe6040830186613b7f565b613d0b6060830185613b9d565b613d186080830184613b9d565b9695505050505050565b60006020820190508181036000830152613d3c8184613813565b905092915050565b60006040820190508181036000830152613d5e8185613813565b9050613d6d6020830184613b8e565b9392505050565b60006060820190508181036000830152613d8e8186613813565b9050613d9d6020830185613b8e565b613daa60408301846137ad565b949350505050565b60006020820190508181036000830152613dcb8161387d565b9050919050565b60006020820190508181036000830152613deb816138a0565b9050919050565b60006020820190508181036000830152613e0b816138c3565b9050919050565b60006020820190508181036000830152613e2b816138e6565b9050919050565b60006020820190508181036000830152613e4b81613909565b9050919050565b60006020820190508181036000830152613e6b8161392c565b9050919050565b60006020820190508181036000830152613e8b8161394f565b9050919050565b60006020820190508181036000830152613eab81613972565b9050919050565b60006020820190508181036000830152613ecb81613995565b9050919050565b60006020820190508181036000830152613eeb816139b8565b9050919050565b60006020820190508181036000830152613f0b816139db565b9050919050565b60006020820190508181036000830152613f2b816139fe565b9050919050565b60006020820190508181036000830152613f4b81613a21565b9050919050565b60006020820190508181036000830152613f6b81613a44565b9050919050565b60006020820190508181036000830152613f8b81613a67565b9050919050565b60006020820190508181036000830152613fab81613a8a565b9050919050565b60006020820190508181036000830152613fcb81613aad565b9050919050565b60006020820190508181036000830152613feb81613ad0565b9050919050565b6000602082019050818103600083015261400b81613af3565b9050919050565b6000602082019050818103600083015261402b81613b16565b9050919050565b6000602082019050818103600083015261404b81613b39565b9050919050565b6000602082019050818103600083015261406b81613b5c565b9050919050565b60006020820190506140876000830184613b8e565b92915050565b60006060820190506140a26000830186613b8e565b6140af60208301856137ad565b6140bc60408301846137ad565b949350505050565b60006140ce6140df565b90506140da8282614368565b919050565b6000604051905090565b600067ffffffffffffffff8211156141045761410361452d565b5b602082029050602081019050919050565b600067ffffffffffffffff8211156141305761412f61452d565b5b61413982614575565b9050602081019050919050565b600081519050919050565b600081519050919050565b600082825260208201905092915050565b600082825260208201905092915050565b600081905092915050565b6000614194826142c6565b915061419f836142c6565b9250827fffffffffffffffffffffffffffffffffffffffffffffffffffffffffffffffff038211156141d4576141d3614442565b5b828201905092915050565b60006141ea826142c6565b91506141f5836142c6565b92508261420557614204614471565b5b828204905092915050565b600061421b826142c6565b9150614226836142c6565b92508282101561423957614238614442565b5b828203905092915050565b600061424f826142a6565b9050919050565b60008115159050919050565b6000819050919050565b60007fffffffff0000000000000000000000000000000000000000000000000000000082169050919050565b600061ffff82169050919050565b600073ffffffffffffffffffffffffffffffffffffffff82169050919050565b6000819050919050565b600063ffffffff82169050919050565b600067ffffffffffffffff82169050919050565b82818337600083830152505050565b60005b83811015614321578082015181840152602081019050614306565b83811115614330576000848401525b50505050565b6000600282049050600182168061434e57607f821691505b60208210811415614362576143616144a0565b5b50919050565b61437182614575565b810181811067ffffffffffffffff821117156143905761438f61452d565b5b80604052505050565b60006143a4826142c6565b91507fffffffffffffffffffffffffffffffffffffffffffffffffffffffffffffffff8214156143d7576143d6614442565b5b600182019050919050565b60006143ed826142c6565b91506143f8836142c6565b92508261440857614407614471565b5b828206905092915050565b7f4e487b7100000000000000000000000000000000000000000000000000000000600052600160045260246000fd5b7f4e487b7100000000000000000000000000000000000000000000000000000000600052601160045260246000fd5b7f4e487b7100000000000000000000000000000000000000000000000000000000600052601260045260246000fd5b7f4e487b7100000000000000000000000000000000000000000000000000000000600052602260045260246000fd5b7f4e487b7100000000000000000000000000000000000000000000000000000000600052603160045260246000fd5b7f4e487b7100000000000000000000000000000000000000000000000000000000600052603260045260246000fd5b7f4e487b7100000000000000000000000000000000000000000000000000000000600052604160045260246000fd5b600080fd5b600080fd5b600080fd5b600080fd5b600080fd5b6000601f19601f8301169050919050565b7f5061757361626c653a206e6f7420706175736564000000000000000000000000600082015250565b7f455243373231456e756d657261626c653a206f776e657220696e646578206f7560008201527f74206f6620626f756e6473000000000000000000000000000000000000000000602082015250565b7f4552433732313a207472616e7366657220746f206e6f6e20455243373231526560008201527f63656976657220696d706c656d656e7465720000000000000000000000000000602082015250565b7f4f776e61626c653a206e6577206f776e657220697320746865207a65726f206160008201527f6464726573730000000000000000000000000000000000000000000000000000602082015250565b7f4552433732313a207472616e736665722066726f6d20696e636f72726563742060008201527f6f776e6572000000000000000000000000000000000000000000000000000000602082015250565b7f4552433732313a20746f6b656e20616c7265616479206d696e74656400000000600082015250565b7f4e6f7420656e6f756768204554482073656e742c20706c65617365206368656360008201527f6b20707269636521000000000000000000000000000000000000000000000000602082015250565b7f4552433732313a207472616e7366657220746f20746865207a65726f2061646460008201527f7265737300000000000000000000000000000000000000000000000000000000602082015250565b7f4552433732313a20617070726f766520746f2063616c6c657200000000000000600082015250565b7f4d696e7461626c65206e66747320686176652072656163686564206d6178696d60008201527f756d20737570706c790000000000000000000000000000000000000000000000602082015250565b7f5061757361626c653a2070617573656400000000000000000000000000000000600082015250565b7f4552433732313a2061646472657373207a65726f206973206e6f74206120766160008201527f6c6964206f776e65720000000000000000000000000000000000000000000000602082015250565b7f45524337323155524953746f726167653a2055524920736574206f66206e6f6e60008201527f6578697374656e7420746f6b656e000000000000000000000000000000000000602082015250565b7f4552433732313a20617070726f76652063616c6c6572206973206e6f7420746f60008201527f6b656e206f776e6572206e6f7220617070726f76656420666f7220616c6c0000602082015250565b7f4552433732313a206d696e7420746f20746865207a65726f2061646472657373600082015250565b7f4f776e61626c653a2063616c6c6572206973206e6f7420746865206f776e6572600082015250565b7f4552433732313a20696e76616c696420746f6b656e2049440000000000000000600082015250565b7f4552433732313a20617070726f76616c20746f2063757272656e74206f776e6560008201527f7200000000000000000000000000000000000000000000000000000000000000602082015250565b7f455243373231456e756d657261626c653a20676c6f62616c20696e646578206f60008201527f7574206f6620626f756e64730000000000000000000000000000000000000000602082015250565b7f4e6577206d6178696d756d20737570706c79206d75737420626520677265617460008201527f6572207468616e207468652070726576696f7573206f6e650000000000000000602082015250565b7f4552433732313a2063616c6c6572206973206e6f7420746f6b656e206f776e6560008201527f72206e6f7220617070726f766564000000000000000000000000000000000000602082015250565b7f72616e646f6d4e756d626572206f7574206f662072616e676500000000000000600082015250565b614b2981614244565b8114614b3457600080fd5b50565b614b4081614256565b8114614b4b57600080fd5b50565b614b578161426c565b8114614b6257600080fd5b50565b614b6e816142c6565b8114614b7957600080fd5b5056fe416e204e465420772f20494420257320686173206265656e206d696e74656420746f202573a2646970667358221220213ebd4c1a6634e2d0236a17d075c34321d1314bac777abe5cd995e3a5507ffc64736f6c63430008070033",
  "linkReferences": {},
  "deployedLinkReferences": {}
}