{
  "_format": "hh-sol-artifact-1",
  "contractName": "TicketNFTGenerator",
  "sourceName": "contracts/TicketNFTGenerator.sol",
  "abi": [
    {
      "inputs": [
        {
          "internalType": "uint256",
          "name": "_maxSupply",
          "type": "uint256"
        },
        {
          "internalType": "uint256",
          "name": "_initialMintPrice",
          "type": "uint256"
        }
      ],
      "stateMutability": "nonpayable",
      "type": "constructor"
    },
    {
      "anonymous": false,
      "inputs": [
        {
          "indexed": true,
          "internalType": "address",
          "name": "owner",
          "type": "address"
        },
        {
          "indexed": true,
          "internalType": "address",
          "name": "approved",
          "type": "address"
        },
        {
          "indexed": true,
          "internalType": "uint256",
          "name": "tokenId",
          "type": "uint256"
        }
      ],
      "name": "Approval",
      "type": "event"
    },
    {
      "anonymous": false,
      "inputs": [
        {
          "indexed": true,
          "internalType": "address",
          "name": "owner",
          "type": "address"
        },
        {
          "indexed": true,
          "internalType": "address",
          "name": "operator",
          "type": "address"
        },
        {
          "indexed": false,
          "internalType": "bool",
          "name": "approved",
          "type": "bool"
        }
      ],
      "name": "ApprovalForAll",
      "type": "event"
    },
    {
      "anonymous": false,
      "inputs": [
        {
          "indexed": true,
          "internalType": "address",
          "name": "previousOwner",
          "type": "address"
        },
        {
          "indexed": true,
          "internalType": "address",
          "name": "newOwner",
          "type": "address"
        }
      ],
      "name": "OwnershipTransferred",
      "type": "event"
    },
    {
      "anonymous": false,
      "inputs": [
        {
          "indexed": false,
          "internalType": "address",
          "name": "account",
          "type": "address"
        }
      ],
      "name": "Paused",
      "type": "event"
    },
    {
      "anonymous": false,
      "inputs": [
        {
          "indexed": false,
          "internalType": "address",
          "name": "sender",
          "type": "address"
        },
        {
          "indexed": false,
          "internalType": "uint256",
          "name": "tokenId",
          "type": "uint256"
        },
        {
          "indexed": false,
          "internalType": "uint256",
          "name": "tokenCounter",
          "type": "uint256"
        },
        {
          "indexed": false,
          "internalType": "uint256",
          "name": "maxSupply",
          "type": "uint256"
        }
      ],
      "name": "TicketMinted",
      "type": "event"
    },
    {
      "anonymous": false,
      "inputs": [
        {
          "indexed": false,
          "internalType": "uint256",
          "name": "tokenId",
          "type": "uint256"
        },
        {
          "indexed": false,
          "internalType": "address",
          "name": "from",
          "type": "address"
        },
        {
          "indexed": false,
          "internalType": "address",
          "name": "to",
          "type": "address"
        }
      ],
      "name": "TicketSent",
      "type": "event"
    },
    {
      "anonymous": false,
      "inputs": [
        {
          "indexed": false,
          "internalType": "uint256",
          "name": "tokenId",
          "type": "uint256"
        },
        {
          "indexed": false,
          "internalType": "string",
          "name": "tokenUrl",
          "type": "string"
        }
      ],
      "name": "TicketToShow",
      "type": "event"
    },
    {
      "anonymous": false,
      "inputs": [
        {
          "indexed": true,
          "internalType": "address",
          "name": "from",
          "type": "address"
        },
        {
          "indexed": true,
          "internalType": "address",
          "name": "to",
          "type": "address"
        },
        {
          "indexed": true,
          "internalType": "uint256",
          "name": "tokenId",
          "type": "uint256"
        }
      ],
      "name": "Transfer",
      "type": "event"
    },
    {
      "anonymous": false,
      "inputs": [
        {
          "indexed": false,
          "internalType": "address",
          "name": "account",
          "type": "address"
        }
      ],
      "name": "Unpaused",
      "type": "event"
    },
    {
      "inputs": [
        {
          "internalType": "address",
          "name": "to",
          "type": "address"
        },
        {
          "internalType": "uint256",
          "name": "tokenId",
          "type": "uint256"
        }
      ],
      "name": "approve",
      "outputs": [],
      "stateMutability": "nonpayable",
      "type": "function"
    },
    {
      "inputs": [
        {
          "internalType": "address",
          "name": "owner",
          "type": "address"
        }
      ],
      "name": "balanceOf",
      "outputs": [
        {
          "internalType": "uint256",
          "name": "",
          "type": "uint256"
        }
      ],
      "stateMutability": "view",
      "type": "function"
    },
    {
      "inputs": [
        {
          "internalType": "uint256",
          "name": "tokenId",
          "type": "uint256"
        }
      ],
      "name": "getApproved",
      "outputs": [
        {
          "internalType": "address",
          "name": "",
          "type": "address"
        }
      ],
      "stateMutability": "view",
      "type": "function"
    },
    {
      "inputs": [],
      "name": "getBalance",
      "outputs": [
        {
          "internalType": "uint256",
          "name": "",
          "type": "uint256"
        }
      ],
      "stateMutability": "view",
      "type": "function"
    },
    {
      "inputs": [],
      "name": "getMaxSupply",
      "outputs": [
        {
          "internalType": "uint256",
          "name": "",
          "type": "uint256"
        }
      ],
      "stateMutability": "view",
      "type": "function"
    },
    {
      "inputs": [],
      "name": "getMintPrice",
      "outputs": [
        {
          "internalType": "uint256",
          "name": "",
          "type": "uint256"
        }
      ],
      "stateMutability": "view",
      "type": "function"
    },
    {
      "inputs": [],
      "name": "getTokenCounter",
      "outputs": [
        {
          "internalType": "uint256",
          "name": "",
          "type": "uint256"
        }
      ],
      "stateMutability": "view",
      "type": "function"
    },
    {
      "inputs": [
        {
          "internalType": "uint256",
          "name": "_tokenId",
          "type": "uint256"
        },
        {
          "internalType": "address",
          "name": "_to",
          "type": "address"
        }
      ],
      "name": "givesToken",
      "outputs": [],
      "stateMutability": "nonpayable",
      "type": "function"
    },
    {
      "inputs": [
        {
          "internalType": "address",
          "name": "owner",
          "type": "address"
        },
        {
          "internalType": "address",
          "name": "operator",
          "type": "address"
        }
      ],
      "name": "isApprovedForAll",
      "outputs": [
        {
          "internalType": "bool",
          "name": "",
          "type": "bool"
        }
      ],
      "stateMutability": "view",
      "type": "function"
    },
    {
      "inputs": [
        {
          "internalType": "uint256",
          "name": "_tokenId",
          "type": "uint256"
        }
      ],
      "name": "isTokenOwned",
      "outputs": [
        {
          "internalType": "bool",
          "name": "",
          "type": "bool"
        }
      ],
      "stateMutability": "view",
      "type": "function"
    },
    {
      "inputs": [],
      "name": "mintPrice",
      "outputs": [
        {
          "internalType": "uint256",
          "name": "",
          "type": "uint256"
        }
      ],
      "stateMutability": "view",
      "type": "function"
    },
    {
      "inputs": [],
      "name": "mintTicket",
      "outputs": [],
      "stateMutability": "payable",
      "type": "function"
    },
    {
      "inputs": [],
      "name": "name",
      "outputs": [
        {
          "internalType": "string",
          "name": "",
          "type": "string"
        }
      ],
      "stateMutability": "view",
      "type": "function"
    },
    {
      "inputs": [],
      "name": "owner",
      "outputs": [
        {
          "internalType": "address",
          "name": "",
          "type": "address"
        }
      ],
      "stateMutability": "view",
      "type": "function"
    },
    {
      "inputs": [
        {
          "internalType": "uint256",
          "name": "tokenId",
          "type": "uint256"
        }
      ],
      "name": "ownerOf",
      "outputs": [
        {
          "internalType": "address",
          "name": "",
          "type": "address"
        }
      ],
      "stateMutability": "view",
      "type": "function"
    },
    {
      "inputs": [],
      "name": "pause",
      "outputs": [],
      "stateMutability": "nonpayable",
      "type": "function"
    },
    {
      "inputs": [],
      "name": "paused",
      "outputs": [
        {
          "internalType": "bool",
          "name": "",
          "type": "bool"
        }
      ],
      "stateMutability": "view",
      "type": "function"
    },
    {
      "inputs": [],
      "name": "receiveMoney",
      "outputs": [],
      "stateMutability": "payable",
      "type": "function"
    },
    {
      "inputs": [],
      "name": "renounceOwnership",
      "outputs": [],
      "stateMutability": "nonpayable",
      "type": "function"
    },
    {
      "inputs": [
        {
          "internalType": "address",
          "name": "from",
          "type": "address"
        },
        {
          "internalType": "address",
          "name": "to",
          "type": "address"
        },
        {
          "internalType": "uint256",
          "name": "tokenId",
          "type": "uint256"
        }
      ],
      "name": "safeTransferFrom",
      "outputs": [],
      "stateMutability": "nonpayable",
      "type": "function"
    },
    {
      "inputs": [
        {
          "internalType": "address",
          "name": "from",
          "type": "address"
        },
        {
          "internalType": "address",
          "name": "to",
          "type": "address"
        },
        {
          "internalType": "uint256",
          "name": "tokenId",
          "type": "uint256"
        },
        {
          "internalType": "bytes",
          "name": "data",
          "type": "bytes"
        }
      ],
      "name": "safeTransferFrom",
      "outputs": [],
      "stateMutability": "nonpayable",
      "type": "function"
    },
    {
      "inputs": [
        {
          "internalType": "address",
          "name": "_to",
          "type": "address"
        },
        {
          "internalType": "uint256",
          "name": "_amount",
          "type": "uint256"
        }
      ],
      "name": "sendMoney",
      "outputs": [],
      "stateMutability": "nonpayable",
      "type": "function"
    },
    {
      "inputs": [
        {
          "internalType": "address",
          "name": "operator",
          "type": "address"
        },
        {
          "internalType": "bool",
          "name": "approved",
          "type": "bool"
        }
      ],
      "name": "setApprovalForAll",
      "outputs": [],
      "stateMutability": "nonpayable",
      "type": "function"
    },
    {
      "inputs": [
        {
          "internalType": "uint256",
          "name": "_maxSupply",
          "type": "uint256"
        }
      ],
      "name": "setMaxSupply",
      "outputs": [],
      "stateMutability": "nonpayable",
      "type": "function"
    },
    {
      "inputs": [
        {
          "internalType": "uint256",
          "name": "_mintPrice",
          "type": "uint256"
        }
      ],
      "name": "setMintPrice",
      "outputs": [],
      "stateMutability": "nonpayable",
      "type": "function"
    },
    {
      "inputs": [
        {
          "internalType": "bytes4",
          "name": "interfaceId",
          "type": "bytes4"
        }
      ],
      "name": "supportsInterface",
      "outputs": [
        {
          "internalType": "bool",
          "name": "",
          "type": "bool"
        }
      ],
      "stateMutability": "view",
      "type": "function"
    },
    {
      "inputs": [],
      "name": "symbol",
      "outputs": [
        {
          "internalType": "string",
          "name": "",
          "type": "string"
        }
      ],
      "stateMutability": "view",
      "type": "function"
    },
    {
      "inputs": [
        {
          "internalType": "uint256",
          "name": "index",
          "type": "uint256"
        }
      ],
      "name": "tokenByIndex",
      "outputs": [
        {
          "internalType": "uint256",
          "name": "",
          "type": "uint256"
        }
      ],
      "stateMutability": "view",
      "type": "function"
    },
    {
      "inputs": [
        {
          "internalType": "address",
          "name": "owner",
          "type": "address"
        },
        {
          "internalType": "uint256",
          "name": "index",
          "type": "uint256"
        }
      ],
      "name": "tokenOfOwnerByIndex",
      "outputs": [
        {
          "internalType": "uint256",
          "name": "",
          "type": "uint256"
        }
      ],
      "stateMutability": "view",
      "type": "function"
    },
    {
      "inputs": [
        {
          "internalType": "uint256",
          "name": "tokenId",
          "type": "uint256"
        }
      ],
      "name": "tokenURI",
      "outputs": [
        {
          "internalType": "string",
          "name": "",
          "type": "string"
        }
      ],
      "stateMutability": "view",
      "type": "function"
    },
    {
      "inputs": [
        {
          "internalType": "uint256",
          "name": "_tokenId",
          "type": "uint256"
        }
      ],
      "name": "tokenURIIfOwned",
      "outputs": [
        {
          "internalType": "string",
          "name": "",
          "type": "string"
        }
      ],
      "stateMutability": "view",
      "type": "function"
    },
    {
      "inputs": [],
      "name": "totalSupply",
      "outputs": [
        {
          "internalType": "uint256",
          "name": "",
          "type": "uint256"
        }
      ],
      "stateMutability": "view",
      "type": "function"
    },
    {
      "inputs": [
        {
          "internalType": "address",
          "name": "from",
          "type": "address"
        },
        {
          "internalType": "address",
          "name": "to",
          "type": "address"
        },
        {
          "internalType": "uint256",
          "name": "tokenId",
          "type": "uint256"
        }
      ],
      "name": "transferFrom",
      "outputs": [],
      "stateMutability": "nonpayable",
      "type": "function"
    },
    {
      "inputs": [
        {
          "internalType": "address",
          "name": "newOwner",
          "type": "address"
        }
      ],
      "name": "transferOwnership",
      "outputs": [],
      "stateMutability": "nonpayable",
      "type": "function"
    },
    {
      "inputs": [],
      "name": "unPause",
      "outputs": [],
      "stateMutability": "nonpayable",
      "type": "function"
    },
    {
      "stateMutability": "payable",
      "type": "receive"
    }
  ],
  "bytecode": "0x60806040526040518060600160405280602e815260200162004b91602e9139600c908051906020019062000035929190620003a3565b506040518060600160405280602e815260200162004bbf602e9139600d908051906020019062000067929190620003a3565b506040518060600160405280602e815260200162004bed602e9139600e908051906020019062000099929190620003a3565b50348015620000a757600080fd5b5060405162004c1b38038062004c1b8339818101604052810190620000cd91906200046a565b6040518060400160405280600981526020017f5469636b65744e465400000000000000000000000000000000000000000000008152506040518060400160405280600381526020017f544b540000000000000000000000000000000000000000000000000000000000815250816000908051906020019062000151929190620003a3565b5080600190805190602001906200016a929190620003a3565b5050506200018d620001816200020960201b60201c565b6200021160201b60201c565b6000600b60146101000a81548160ff0219169083151502179055508160108190555080601381905550620002016040518060400160405280601581526020017f436f6e747261637420696e7374616e7469617465640000000000000000000000815250620002d760201b6200134a1760201c565b5050620005fc565b600033905090565b6000600b60009054906101000a900473ffffffffffffffffffffffffffffffffffffffff16905081600b60006101000a81548173ffffffffffffffffffffffffffffffffffffffff021916908373ffffffffffffffffffffffffffffffffffffffff1602179055508173ffffffffffffffffffffffffffffffffffffffff168173ffffffffffffffffffffffffffffffffffffffff167f8be0079c531659141344cd1fd0a4f28419497f9722a3daafe3b4186f6b6457e060405160405180910390a35050565b6200037781604051602401620002ee9190620004ec565b6040516020818303038152906040527f41304fac000000000000000000000000000000000000000000000000000000007bffffffffffffffffffffffffffffffffffffffffffffffffffffffff19166020820180517bffffffffffffffffffffffffffffffffffffffffffffffffffffffff83818316178352505050506200037a60201b60201c565b50565b60008151905060006a636f6e736f6c652e6c6f679050602083016000808483855afa5050505050565b828054620003b1906200056c565b90600052602060002090601f016020900481019282620003d5576000855562000421565b82601f10620003f057805160ff191683800117855562000421565b8280016001018555821562000421579182015b828111156200042057825182559160200191906001019062000403565b5b50905062000430919062000434565b5090565b5b808211156200044f57600081600090555060010162000435565b5090565b6000815190506200046481620005e2565b92915050565b600080604083850312156200047e57600080fd5b60006200048e8582860162000453565b9250506020620004a18582860162000453565b9150509250929050565b6000620004b88262000510565b620004c481856200051b565b9350620004d681856020860162000536565b620004e181620005d1565b840191505092915050565b60006020820190508181036000830152620005088184620004ab565b905092915050565b600081519050919050565b600082825260208201905092915050565b6000819050919050565b60005b838110156200055657808201518184015260208101905062000539565b8381111562000566576000848401525b50505050565b600060028204905060018216806200058557607f821691505b602082108114156200059c576200059b620005a2565b5b50919050565b7f4e487b7100000000000000000000000000000000000000000000000000000000600052602260045260246000fd5b6000601f19601f8301169050919050565b620005ed816200052c565b8114620005f957600080fd5b50565b614585806200060c6000396000f3fe6080604052600436106102085760003560e01c80636f8b44b011610118578063a7f93ebd116100a0578063e985e9c51161006f578063e985e9c514610750578063ee4ae2c91461078d578063f2fde38b146107b6578063f4a0a528146107df578063f7b188a51461080857610217565b8063a7f93ebd14610682578063abc6184c146106ad578063b88d4fde146106ea578063c87b56dd1461071357610217565b8063889e47a7116100e7578063889e47a71461059d5780638da5cb5b146105c657806395d89b41146105f1578063a188342f1461061c578063a22cb4651461065957610217565b80636f8b44b01461050957806370a0823114610532578063715018a61461056f5780638456cb591461058657610217565b806342842e0e1161019b5780635c975abb1161016a5780635c975abb146104415780636352211e1461046c5780636817c76c146104a95780636d26ec18146104d45780636e02007d146104de57610217565b806342842e0e146103a65780634c0f38c2146103cf5780634f6ccce7146103fa578063573c80fa1461043757610217565b806312065fe0116101d757806312065fe0146102ea57806318160ddd1461031557806323b872dd146103405780632f745c591461036957610217565b806301ffc9a71461021c57806306fdde0314610259578063081812fc14610284578063095ea7b3146102c157610217565b366102175761021561081f565b005b600080fd5b34801561022857600080fd5b50610243600480360381019061023e91906132d6565b610889565b604051610250919061380c565b60405180910390f35b34801561026557600080fd5b5061026e61089b565b60405161027b9190613827565b60405180910390f35b34801561029057600080fd5b506102ab60048036038101906102a69190613328565b61092d565b6040516102b89190613760565b60405180910390f35b3480156102cd57600080fd5b506102e860048036038101906102e3919061329a565b610973565b005b3480156102f657600080fd5b506102ff610a8b565b60405161030c9190613b57565b60405180910390f35b34801561032157600080fd5b5061032a610a9d565b6040516103379190613b57565b60405180910390f35b34801561034c57600080fd5b5061036760048036038101906103629190613194565b610aaa565b005b34801561037557600080fd5b50610390600480360381019061038b919061329a565b610b0a565b60405161039d9190613b57565b60405180910390f35b3480156103b257600080fd5b506103cd60048036038101906103c89190613194565b610baf565b005b3480156103db57600080fd5b506103e4610bcf565b6040516103f19190613b57565b60405180910390f35b34801561040657600080fd5b50610421600480360381019061041c9190613328565b610be1565b60405161042e9190613b57565b60405180910390f35b61043f610c78565b005b34801561044d57600080fd5b50610456610daa565b604051610463919061380c565b60405180910390f35b34801561047857600080fd5b50610493600480360381019061048e9190613328565b610dc1565b6040516104a09190613760565b60405180910390f35b3480156104b557600080fd5b506104be610e73565b6040516104cb9190613b57565b60405180910390f35b6104dc61081f565b005b3480156104ea57600080fd5b506104f3610e79565b6040516105009190613b57565b60405180910390f35b34801561051557600080fd5b50610530600480360381019061052b9190613328565b610e92565b005b34801561053e57600080fd5b506105596004803603810190610554919061312f565b610ef0565b6040516105669190613b57565b60405180910390f35b34801561057b57600080fd5b50610584610fa8565b005b34801561059257600080fd5b5061059b610fbc565b005b3480156105a957600080fd5b506105c460048036038101906105bf9190613351565b610fce565b005b3480156105d257600080fd5b506105db611018565b6040516105e89190613760565b60405180910390f35b3480156105fd57600080fd5b50610606611042565b6040516106139190613827565b60405180910390f35b34801561062857600080fd5b50610643600480360381019061063e9190613328565b6110d4565b6040516106509190613827565b60405180910390f35b34801561066557600080fd5b50610680600480360381019061067b919061325e565b61110c565b005b34801561068e57600080fd5b50610697611122565b6040516106a49190613b57565b60405180910390f35b3480156106b957600080fd5b506106d460048036038101906106cf9190613328565b611134565b6040516106e1919061380c565b60405180910390f35b3480156106f657600080fd5b50610711600480360381019061070c91906131e3565b611147565b005b34801561071f57600080fd5b5061073a60048036038101906107359190613328565b6111a9565b6040516107479190613827565b60405180910390f35b34801561075c57600080fd5b5061077760048036038101906107729190613158565b6111bb565b604051610784919061380c565b60405180910390f35b34801561079957600080fd5b506107b460048036038101906107af919061329a565b61124f565b005b3480156107c257600080fd5b506107dd60048036038101906107d8919061312f565b6112a2565b005b3480156107eb57600080fd5b5061080660048036038101906108019190613328565b611326565b005b34801561081457600080fd5b5061081d611338565b005b601154610837601154346113e390919063ffffffff16565b101561086c577f4e487b7100000000000000000000000000000000000000000000000000000000600052600160045260246000fd5b610881346011546113e390919063ffffffff16565b601181905550565b6000610894826113f9565b9050919050565b6060600080546108aa90613db3565b80601f01602080910402602001604051908101604052809291908181526020018280546108d690613db3565b80156109235780601f106108f857610100808354040283529160200191610923565b820191906000526020600020905b81548152906001019060200180831161090657829003601f168201915b5050505050905090565b600061093882611473565b6004600083815260200190815260200160002060009054906101000a900473ffffffffffffffffffffffffffffffffffffffff169050919050565b600061097e82610dc1565b90508073ffffffffffffffffffffffffffffffffffffffff168373ffffffffffffffffffffffffffffffffffffffff1614156109ef576040517f08c379a00000000000000000000000000000000000000000000000000000000081526004016109e690613ad7565b60405180910390fd5b8073ffffffffffffffffffffffffffffffffffffffff16610a0e6114be565b73ffffffffffffffffffffffffffffffffffffffff161480610a3d5750610a3c81610a376114be565b6111bb565b5b610a7c576040517f08c379a0000000000000000000000000000000000000000000000000000000008152600401610a7390613a57565b60405180910390fd5b610a8683836114c6565b505050565b6000610a9561157f565b601154905090565b6000600980549050905090565b610abb610ab56114be565b826115fd565b610afa576040517f08c379a0000000000000000000000000000000000000000000000000000000008152600401610af190613b37565b60405180910390fd5b610b05838383611692565b505050565b6000610b1583610ef0565b8210610b56576040517f08c379a0000000000000000000000000000000000000000000000000000000008152600401610b4d906138d7565b60405180910390fd5b600760008473ffffffffffffffffffffffffffffffffffffffff1673ffffffffffffffffffffffffffffffffffffffff168152602001908152602001600020600083815260200190815260200160002054905092915050565b610bca83838360405180602001604052806000815250611147565b505050565b6000610bd96118f9565b601054905090565b6000610beb610a9d565b8210610c2c576040517f08c379a0000000000000000000000000000000000000000000000000000000008152600401610c2390613af7565b60405180910390fd5b60098281548110610c66577f4e487b7100000000000000000000000000000000000000000000000000000000600052603260045260246000fd5b90600052602060002001549050919050565b610c806118f9565b601354341015610cc5576040517f08c379a0000000000000000000000000000000000000000000000000000000008152600401610cbc90613977565b60405180910390fd5b6000610cd1600f611943565b9050610cf660405180606001604052806025815260200161452b602591398233611951565b610d0033826119f0565b610d1381610d0e6000611a0e565b611cb8565b610d1d600f611d2c565b610d25611d42565b610d666040518060400160405280600e81526020017f6d696e7465644e6674733a202573000000000000000000000000000000000000815250601254611da6565b7f64bd16642eed00863590d7320e06c0f31bb0468a971feede4e13313e3b2792243382601254601054604051610d9f94939291906137c7565b60405180910390a150565b6000600b60149054906101000a900460ff16905090565b6000806002600084815260200190815260200160002060009054906101000a900473ffffffffffffffffffffffffffffffffffffffff169050600073ffffffffffffffffffffffffffffffffffffffff168173ffffffffffffffffffffffffffffffffffffffff161415610e6a576040517f08c379a0000000000000000000000000000000000000000000000000000000008152600401610e6190613ab7565b60405180910390fd5b80915050919050565b60135481565b6000610e836118f9565b610e8d600f611943565b905090565b610e9a6118f9565b610ea261157f565b6010548111610ee6576040517f08c379a0000000000000000000000000000000000000000000000000000000008152600401610edd90613b17565b60405180910390fd5b8060108190555050565b60008073ffffffffffffffffffffffffffffffffffffffff168273ffffffffffffffffffffffffffffffffffffffff161415610f61576040517f08c379a0000000000000000000000000000000000000000000000000000000008152600401610f5890613a17565b60405180910390fd5b600360008373ffffffffffffffffffffffffffffffffffffffff1673ffffffffffffffffffffffffffffffffffffffff168152602001908152602001600020549050919050565b610fb061157f565b610fba6000611e42565b565b610fc461157f565b610fcc611f08565b565b610fd9338284610aaa565b7fdba6731bbbfcff209246a4aee1d833836d6766f6515735cda63c0170318fc05182338360405161100c93929190613b72565b60405180910390a15050565b6000600b60009054906101000a900473ffffffffffffffffffffffffffffffffffffffff16905090565b60606001805461105190613db3565b80601f016020809104026020016040519081016040528092919081815260200182805461107d90613db3565b80156110ca5780601f1061109f576101008083540402835291602001916110ca565b820191906000526020600020905b8154815290600101906020018083116110ad57829003601f168201915b5050505050905090565b60606110df82611134565b156110f4576110ed82611f6b565b9050611107565b6040518060200160405280600081525090505b919050565b61111e6111176114be565b838361207e565b5050565b600061112c6118f9565b601354905090565b600061114033836115fd565b9050919050565b6111586111526114be565b836115fd565b611197576040517f08c379a000000000000000000000000000000000000000000000000000000000815260040161118e90613b37565b60405180910390fd5b6111a3848484846121eb565b50505050565b60606111b482611f6b565b9050919050565b6000600560008473ffffffffffffffffffffffffffffffffffffffff1673ffffffffffffffffffffffffffffffffffffffff16815260200190815260200160002060008373ffffffffffffffffffffffffffffffffffffffff1673ffffffffffffffffffffffffffffffffffffffff16815260200190815260200160002060009054906101000a900460ff16905092915050565b61125761157f565b8173ffffffffffffffffffffffffffffffffffffffff166108fc829081150290604051600060405180830381858888f1935050505015801561129d573d6000803e3d6000fd5b505050565b6112aa61157f565b600073ffffffffffffffffffffffffffffffffffffffff168173ffffffffffffffffffffffffffffffffffffffff16141561131a576040517f08c379a000000000000000000000000000000000000000000000000000000000815260040161131190613917565b60405180910390fd5b61132381611e42565b50565b61132e61157f565b8060138190555050565b61134061157f565b611348612247565b565b6113e08160405160240161135e9190613827565b6040516020818303038152906040527f41304fac000000000000000000000000000000000000000000000000000000007bffffffffffffffffffffffffffffffffffffffffffffffffffffffff19166020820180517bffffffffffffffffffffffffffffffffffffffffffffffffffffffff83818316178352505050506122aa565b50565b600081836113f19190613c42565b905092915050565b60007f780e9d63000000000000000000000000000000000000000000000000000000007bffffffffffffffffffffffffffffffffffffffffffffffffffffffff1916827bffffffffffffffffffffffffffffffffffffffffffffffffffffffff1916148061146c575061146b826122d3565b5b9050919050565b61147c816123b5565b6114bb576040517f08c379a00000000000000000000000000000000000000000000000000000000081526004016114b290613ab7565b60405180910390fd5b50565b600033905090565b816004600083815260200190815260200160002060006101000a81548173ffffffffffffffffffffffffffffffffffffffff021916908373ffffffffffffffffffffffffffffffffffffffff160217905550808273ffffffffffffffffffffffffffffffffffffffff1661153983610dc1565b73ffffffffffffffffffffffffffffffffffffffff167f8c5be1e5ebec7d5bd14f71427d1e84f3dd0314c0f7b2291e5b200ac8c7c3b92560405160405180910390a45050565b6115876114be565b73ffffffffffffffffffffffffffffffffffffffff166115a5611018565b73ffffffffffffffffffffffffffffffffffffffff16146115fb576040517f08c379a00000000000000000000000000000000000000000000000000000000081526004016115f290613a97565b60405180910390fd5b565b60008061160983610dc1565b90508073ffffffffffffffffffffffffffffffffffffffff168473ffffffffffffffffffffffffffffffffffffffff16148061164b575061164a81856111bb565b5b8061168957508373ffffffffffffffffffffffffffffffffffffffff166116718461092d565b73ffffffffffffffffffffffffffffffffffffffff16145b91505092915050565b8273ffffffffffffffffffffffffffffffffffffffff166116b282610dc1565b73ffffffffffffffffffffffffffffffffffffffff1614611708576040517f08c379a00000000000000000000000000000000000000000000000000000000081526004016116ff90613937565b60405180910390fd5b600073ffffffffffffffffffffffffffffffffffffffff168273ffffffffffffffffffffffffffffffffffffffff161415611778576040517f08c379a000000000000000000000000000000000000000000000000000000000815260040161176f90613997565b60405180910390fd5b611783838383612421565b61178e6000826114c6565b6001600360008573ffffffffffffffffffffffffffffffffffffffff1673ffffffffffffffffffffffffffffffffffffffff16815260200190815260200160002060008282546117de9190613cc9565b925050819055506001600360008473ffffffffffffffffffffffffffffffffffffffff1673ffffffffffffffffffffffffffffffffffffffff16815260200190815260200160002060008282546118359190613c42565b92505081905550816002600083815260200190815260200160002060006101000a81548173ffffffffffffffffffffffffffffffffffffffff021916908373ffffffffffffffffffffffffffffffffffffffff160217905550808273ffffffffffffffffffffffffffffffffffffffff168473ffffffffffffffffffffffffffffffffffffffff167fddf252ad1be2c89b69c2b068fc378daa952ba7f163c4a11628f55a4df523b3ef60405160405180910390a46118f4838383612431565b505050565b611901610daa565b15611941576040517f08c379a0000000000000000000000000000000000000000000000000000000008152600401611938906139f7565b60405180910390fd5b565b600081600001549050919050565b6119eb83838360405160240161196993929190613879565b6040516020818303038152906040527fe3849f79000000000000000000000000000000000000000000000000000000007bffffffffffffffffffffffffffffffffffffffffffffffffffffffff19166020820180517bffffffffffffffffffffffffffffffffffffffffffffffffffffffff83818316178352505050506122aa565b505050565b611a0a828260405180602001604052806000815250612436565b5050565b606060016002811115611a4a577f4e487b7100000000000000000000000000000000000000000000000000000000600052602160045260246000fd5b826002811115611a83577f4e487b7100000000000000000000000000000000000000000000000000000000600052602160045260246000fd5b1415611b1b57600d8054611a9690613db3565b80601f0160208091040260200160405190810160405280929190818152602001828054611ac290613db3565b8015611b0f5780601f10611ae457610100808354040283529160200191611b0f565b820191906000526020600020905b815481529060010190602001808311611af257829003601f168201915b50505050509050611cb3565b600280811115611b54577f4e487b7100000000000000000000000000000000000000000000000000000000600052602160045260246000fd5b826002811115611b8d577f4e487b7100000000000000000000000000000000000000000000000000000000600052602160045260246000fd5b1415611c2557600e8054611ba090613db3565b80601f0160208091040260200160405190810160405280929190818152602001828054611bcc90613db3565b8015611c195780601f10611bee57610100808354040283529160200191611c19565b820191906000526020600020905b815481529060010190602001808311611bfc57829003601f168201915b50505050509050611cb3565b600c8054611c3290613db3565b80601f0160208091040260200160405190810160405280929190818152602001828054611c5e90613db3565b8015611cab5780601f10611c8057610100808354040283529160200191611cab565b820191906000526020600020905b815481529060010190602001808311611c8e57829003601f168201915b505050505090505b919050565b611cc1826123b5565b611d00576040517f08c379a0000000000000000000000000000000000000000000000000000000008152600401611cf790613a37565b60405180910390fd5b80600660008481526020019081526020016000209080519060200190611d27929190612fbb565b505050565b6001816000016000828254019250508190555050565b60105460125410611d88576040517f08c379a0000000000000000000000000000000000000000000000000000000008152600401611d7f906139d7565b60405180910390fd5b611d9e60016012546113e390919063ffffffff16565b601281905550565b611e3e8282604051602401611dbc929190613849565b6040516020818303038152906040527f9710a9d0000000000000000000000000000000000000000000000000000000007bffffffffffffffffffffffffffffffffffffffffffffffffffffffff19166020820180517bffffffffffffffffffffffffffffffffffffffffffffffffffffffff83818316178352505050506122aa565b5050565b6000600b60009054906101000a900473ffffffffffffffffffffffffffffffffffffffff16905081600b60006101000a81548173ffffffffffffffffffffffffffffffffffffffff021916908373ffffffffffffffffffffffffffffffffffffffff1602179055508173ffffffffffffffffffffffffffffffffffffffff168173ffffffffffffffffffffffffffffffffffffffff167f8be0079c531659141344cd1fd0a4f28419497f9722a3daafe3b4186f6b6457e060405160405180910390a35050565b611f106118f9565b6001600b60146101000a81548160ff0219169083151502179055507f62e78cea01bee320cd4e420270b5ea74000d11b0c9f74754ebdbfc544b05a258611f546114be565b604051611f619190613760565b60405180910390a1565b6060611f7682611473565b6000600660008481526020019081526020016000208054611f9690613db3565b80601f0160208091040260200160405190810160405280929190818152602001828054611fc290613db3565b801561200f5780601f10611fe45761010080835404028352916020019161200f565b820191906000526020600020905b815481529060010190602001808311611ff257829003601f168201915b505050505090506000612020612491565b9050600081511415612036578192505050612079565b60008251111561206b57808260405160200161205392919061373c565b60405160208183030381529060405292505050612079565b612074846124ce565b925050505b919050565b8173ffffffffffffffffffffffffffffffffffffffff168373ffffffffffffffffffffffffffffffffffffffff1614156120ed576040517f08c379a00000000000000000000000000000000000000000000000000000000081526004016120e4906139b7565b60405180910390fd5b80600560008573ffffffffffffffffffffffffffffffffffffffff1673ffffffffffffffffffffffffffffffffffffffff16815260200190815260200160002060008473ffffffffffffffffffffffffffffffffffffffff1673ffffffffffffffffffffffffffffffffffffffff16815260200190815260200160002060006101000a81548160ff0219169083151502179055508173ffffffffffffffffffffffffffffffffffffffff168373ffffffffffffffffffffffffffffffffffffffff167f17307eab39ab6107e8899845ad3d59bd9653f200f220920489ca2b5937696c31836040516121de919061380c565b60405180910390a3505050565b6121f6848484611692565b61220284848484612536565b612241576040517f08c379a0000000000000000000000000000000000000000000000000000000008152600401612238906138f7565b60405180910390fd5b50505050565b61224f6126cd565b6000600b60146101000a81548160ff0219169083151502179055507f5db9ee0a495bf2e6ff9c91a7834c1ba4fdd244a5e8aa4e537bd38aeae4b073aa6122936114be565b6040516122a09190613760565b60405180910390a1565b60008151905060006a636f6e736f6c652e6c6f679050602083016000808483855afa5050505050565b60007f80ac58cd000000000000000000000000000000000000000000000000000000007bffffffffffffffffffffffffffffffffffffffffffffffffffffffff1916827bffffffffffffffffffffffffffffffffffffffffffffffffffffffff1916148061239e57507f5b5e139f000000000000000000000000000000000000000000000000000000007bffffffffffffffffffffffffffffffffffffffffffffffffffffffff1916827bffffffffffffffffffffffffffffffffffffffffffffffffffffffff1916145b806123ae57506123ad82612716565b5b9050919050565b60008073ffffffffffffffffffffffffffffffffffffffff166002600084815260200190815260200160002060009054906101000a900473ffffffffffffffffffffffffffffffffffffffff1673ffffffffffffffffffffffffffffffffffffffff1614159050919050565b61242c838383612780565b505050565b505050565b6124408383612894565b61244d6000848484612536565b61248c576040517f08c379a0000000000000000000000000000000000000000000000000000000008152600401612483906138f7565b60405180910390fd5b505050565b60606040518060400160405280600781526020017f697066733a2f2f00000000000000000000000000000000000000000000000000815250905090565b60606124d982611473565b60006124e3612491565b90506000815111612503576040518060200160405280600081525061252e565b8061250d84612a6e565b60405160200161251e92919061373c565b6040516020818303038152906040525b915050919050565b60006125578473ffffffffffffffffffffffffffffffffffffffff16612c1b565b156126c0578373ffffffffffffffffffffffffffffffffffffffff1663150b7a026125806114be565b8786866040518563ffffffff1660e01b81526004016125a2949392919061377b565b602060405180830381600087803b1580156125bc57600080fd5b505af19250505080156125ed57506040513d601f19601f820116820180604052508101906125ea91906132ff565b60015b612670573d806000811461261d576040519150601f19603f3d011682016040523d82523d6000602084013e612622565b606091505b50600081511415612668576040517f08c379a000000000000000000000000000000000000000000000000000000000815260040161265f906138f7565b60405180910390fd5b805181602001fd5b63150b7a0260e01b7bffffffffffffffffffffffffffffffffffffffffffffffffffffffff1916817bffffffffffffffffffffffffffffffffffffffffffffffffffffffff1916149150506126c5565b600190505b949350505050565b6126d5610daa565b612714576040517f08c379a000000000000000000000000000000000000000000000000000000000815260040161270b906138b7565b60405180910390fd5b565b60007f01ffc9a7000000000000000000000000000000000000000000000000000000007bffffffffffffffffffffffffffffffffffffffffffffffffffffffff1916827bffffffffffffffffffffffffffffffffffffffffffffffffffffffff1916149050919050565b61278b838383612c3e565b600073ffffffffffffffffffffffffffffffffffffffff168373ffffffffffffffffffffffffffffffffffffffff1614156127ce576127c981612c43565b61280d565b8173ffffffffffffffffffffffffffffffffffffffff168373ffffffffffffffffffffffffffffffffffffffff161461280c5761280b8382612c8c565b5b5b600073ffffffffffffffffffffffffffffffffffffffff168273ffffffffffffffffffffffffffffffffffffffff1614156128505761284b81612df9565b61288f565b8273ffffffffffffffffffffffffffffffffffffffff168273ffffffffffffffffffffffffffffffffffffffff161461288e5761288d8282612f3c565b5b5b505050565b600073ffffffffffffffffffffffffffffffffffffffff168273ffffffffffffffffffffffffffffffffffffffff161415612904576040517f08c379a00000000000000000000000000000000000000000000000000000000081526004016128fb90613a77565b60405180910390fd5b61290d816123b5565b1561294d576040517f08c379a000000000000000000000000000000000000000000000000000000000815260040161294490613957565b60405180910390fd5b61295960008383612421565b6001600360008473ffffffffffffffffffffffffffffffffffffffff1673ffffffffffffffffffffffffffffffffffffffff16815260200190815260200160002060008282546129a99190613c42565b92505081905550816002600083815260200190815260200160002060006101000a81548173ffffffffffffffffffffffffffffffffffffffff021916908373ffffffffffffffffffffffffffffffffffffffff160217905550808273ffffffffffffffffffffffffffffffffffffffff16600073ffffffffffffffffffffffffffffffffffffffff167fddf252ad1be2c89b69c2b068fc378daa952ba7f163c4a11628f55a4df523b3ef60405160405180910390a4612a6a60008383612431565b5050565b60606000821415612ab6576040518060400160405280600181526020017f30000000000000000000000000000000000000000000000000000000000000008152509050612c16565b600082905060005b60008214612ae8578080612ad190613e16565b915050600a82612ae19190613c98565b9150612abe565b60008167ffffffffffffffff811115612b2a577f4e487b7100000000000000000000000000000000000000000000000000000000600052604160045260246000fd5b6040519080825280601f01601f191660200182016040528015612b5c5781602001600182028036833780820191505090505b5090505b60008514612c0f57600182612b759190613cc9565b9150600a85612b849190613e5f565b6030612b909190613c42565b60f81b818381518110612bcc577f4e487b7100000000000000000000000000000000000000000000000000000000600052603260045260246000fd5b60200101907effffffffffffffffffffffffffffffffffffffffffffffffffffffffffffff1916908160001a905350600a85612c089190613c98565b9450612b60565b8093505050505b919050565b6000808273ffffffffffffffffffffffffffffffffffffffff163b119050919050565b505050565b600980549050600a600083815260200190815260200160002081905550600981908060018154018082558091505060019003906000526020600020016000909190919091505550565b60006001612c9984610ef0565b612ca39190613cc9565b9050600060086000848152602001908152602001600020549050818114612d88576000600760008673ffffffffffffffffffffffffffffffffffffffff1673ffffffffffffffffffffffffffffffffffffffff168152602001908152602001600020600084815260200190815260200160002054905080600760008773ffffffffffffffffffffffffffffffffffffffff1673ffffffffffffffffffffffffffffffffffffffff168152602001908152602001600020600084815260200190815260200160002081905550816008600083815260200190815260200160002081905550505b6008600084815260200190815260200160002060009055600760008573ffffffffffffffffffffffffffffffffffffffff1673ffffffffffffffffffffffffffffffffffffffff16815260200190815260200160002060008381526020019081526020016000206000905550505050565b60006001600980549050612e0d9190613cc9565b90506000600a6000848152602001908152602001600020549050600060098381548110612e63577f4e487b7100000000000000000000000000000000000000000000000000000000600052603260045260246000fd5b906000526020600020015490508060098381548110612eab577f4e487b7100000000000000000000000000000000000000000000000000000000600052603260045260246000fd5b906000526020600020018190555081600a600083815260200190815260200160002081905550600a6000858152602001908152602001600020600090556009805480612f20577f4e487b7100000000000000000000000000000000000000000000000000000000600052603160045260246000fd5b6001900381819060005260206000200160009055905550505050565b6000612f4783610ef0565b905081600760008573ffffffffffffffffffffffffffffffffffffffff1673ffffffffffffffffffffffffffffffffffffffff168152602001908152602001600020600083815260200190815260200160002081905550806008600084815260200190815260200160002081905550505050565b828054612fc790613db3565b90600052602060002090601f016020900481019282612fe95760008555613030565b82601f1061300257805160ff1916838001178555613030565b82800160010185558215613030579182015b8281111561302f578251825591602001919060010190613014565b5b50905061303d9190613041565b5090565b5b8082111561305a576000816000905550600101613042565b5090565b600061307161306c84613bce565b613ba9565b90508281526020810184848401111561308957600080fd5b613094848285613d71565b509392505050565b6000813590506130ab816144ce565b92915050565b6000813590506130c0816144e5565b92915050565b6000813590506130d5816144fc565b92915050565b6000815190506130ea816144fc565b92915050565b600082601f83011261310157600080fd5b813561311184826020860161305e565b91505092915050565b60008135905061312981614513565b92915050565b60006020828403121561314157600080fd5b600061314f8482850161309c565b91505092915050565b6000806040838503121561316b57600080fd5b60006131798582860161309c565b925050602061318a8582860161309c565b9150509250929050565b6000806000606084860312156131a957600080fd5b60006131b78682870161309c565b93505060206131c88682870161309c565b92505060406131d98682870161311a565b9150509250925092565b600080600080608085870312156131f957600080fd5b60006132078782880161309c565b94505060206132188782880161309c565b93505060406132298782880161311a565b925050606085013567ffffffffffffffff81111561324657600080fd5b613252878288016130f0565b91505092959194509250565b6000806040838503121561327157600080fd5b600061327f8582860161309c565b9250506020613290858286016130b1565b9150509250929050565b600080604083850312156132ad57600080fd5b60006132bb8582860161309c565b92505060206132cc8582860161311a565b9150509250929050565b6000602082840312156132e857600080fd5b60006132f6848285016130c6565b91505092915050565b60006020828403121561331157600080fd5b600061331f848285016130db565b91505092915050565b60006020828403121561333a57600080fd5b60006133488482850161311a565b91505092915050565b6000806040838503121561336457600080fd5b60006133728582860161311a565b92505060206133838582860161309c565b9150509250929050565b61339681613cfd565b82525050565b6133a581613d0f565b82525050565b60006133b682613bff565b6133c08185613c15565b93506133d0818560208601613d80565b6133d981613f4c565b840191505092915050565b60006133ef82613c0a565b6133f98185613c26565b9350613409818560208601613d80565b61341281613f4c565b840191505092915050565b600061342882613c0a565b6134328185613c37565b9350613442818560208601613d80565b80840191505092915050565b600061345b601483613c26565b915061346682613f5d565b602082019050919050565b600061347e602b83613c26565b915061348982613f86565b604082019050919050565b60006134a1603283613c26565b91506134ac82613fd5565b604082019050919050565b60006134c4602683613c26565b91506134cf82614024565b604082019050919050565b60006134e7602583613c26565b91506134f282614073565b604082019050919050565b600061350a601c83613c26565b9150613515826140c2565b602082019050919050565b600061352d602883613c26565b9150613538826140eb565b604082019050919050565b6000613550602483613c26565b915061355b8261413a565b604082019050919050565b6000613573601983613c26565b915061357e82614189565b602082019050919050565b6000613596602983613c26565b91506135a1826141b2565b604082019050919050565b60006135b9601083613c26565b91506135c482614201565b602082019050919050565b60006135dc602983613c26565b91506135e78261422a565b604082019050919050565b60006135ff602e83613c26565b915061360a82614279565b604082019050919050565b6000613622603e83613c26565b915061362d826142c8565b604082019050919050565b6000613645602083613c26565b915061365082614317565b602082019050919050565b6000613668602083613c26565b915061367382614340565b602082019050919050565b600061368b601883613c26565b915061369682614369565b602082019050919050565b60006136ae602183613c26565b91506136b982614392565b604082019050919050565b60006136d1602c83613c26565b91506136dc826143e1565b604082019050919050565b60006136f4603883613c26565b91506136ff82614430565b604082019050919050565b6000613717602e83613c26565b91506137228261447f565b604082019050919050565b61373681613d67565b82525050565b6000613748828561341d565b9150613754828461341d565b91508190509392505050565b6000602082019050613775600083018461338d565b92915050565b6000608082019050613790600083018761338d565b61379d602083018661338d565b6137aa604083018561372d565b81810360608301526137bc81846133ab565b905095945050505050565b60006080820190506137dc600083018761338d565b6137e9602083018661372d565b6137f6604083018561372d565b613803606083018461372d565b95945050505050565b6000602082019050613821600083018461339c565b92915050565b6000602082019050818103600083015261384181846133e4565b905092915050565b6000604082019050818103600083015261386381856133e4565b9050613872602083018461372d565b9392505050565b6000606082019050818103600083015261389381866133e4565b90506138a2602083018561372d565b6138af604083018461338d565b949350505050565b600060208201905081810360008301526138d08161344e565b9050919050565b600060208201905081810360008301526138f081613471565b9050919050565b6000602082019050818103600083015261391081613494565b9050919050565b60006020820190508181036000830152613930816134b7565b9050919050565b60006020820190508181036000830152613950816134da565b9050919050565b60006020820190508181036000830152613970816134fd565b9050919050565b6000602082019050818103600083015261399081613520565b9050919050565b600060208201905081810360008301526139b081613543565b9050919050565b600060208201905081810360008301526139d081613566565b9050919050565b600060208201905081810360008301526139f081613589565b9050919050565b60006020820190508181036000830152613a10816135ac565b9050919050565b60006020820190508181036000830152613a30816135cf565b9050919050565b60006020820190508181036000830152613a50816135f2565b9050919050565b60006020820190508181036000830152613a7081613615565b9050919050565b60006020820190508181036000830152613a9081613638565b9050919050565b60006020820190508181036000830152613ab08161365b565b9050919050565b60006020820190508181036000830152613ad08161367e565b9050919050565b60006020820190508181036000830152613af0816136a1565b9050919050565b60006020820190508181036000830152613b10816136c4565b9050919050565b60006020820190508181036000830152613b30816136e7565b9050919050565b60006020820190508181036000830152613b508161370a565b9050919050565b6000602082019050613b6c600083018461372d565b92915050565b6000606082019050613b87600083018661372d565b613b94602083018561338d565b613ba1604083018461338d565b949350505050565b6000613bb3613bc4565b9050613bbf8282613de5565b919050565b6000604051905090565b600067ffffffffffffffff821115613be957613be8613f1d565b5b613bf282613f4c565b9050602081019050919050565b600081519050919050565b600081519050919050565b600082825260208201905092915050565b600082825260208201905092915050565b600081905092915050565b6000613c4d82613d67565b9150613c5883613d67565b9250827fffffffffffffffffffffffffffffffffffffffffffffffffffffffffffffffff03821115613c8d57613c8c613e90565b5b828201905092915050565b6000613ca382613d67565b9150613cae83613d67565b925082613cbe57613cbd613ebf565b5b828204905092915050565b6000613cd482613d67565b9150613cdf83613d67565b925082821015613cf257613cf1613e90565b5b828203905092915050565b6000613d0882613d47565b9050919050565b60008115159050919050565b60007fffffffff0000000000000000000000000000000000000000000000000000000082169050919050565b600073ffffffffffffffffffffffffffffffffffffffff82169050919050565b6000819050919050565b82818337600083830152505050565b60005b83811015613d9e578082015181840152602081019050613d83565b83811115613dad576000848401525b50505050565b60006002820490506001821680613dcb57607f821691505b60208210811415613ddf57613dde613eee565b5b50919050565b613dee82613f4c565b810181811067ffffffffffffffff82111715613e0d57613e0c613f1d565b5b80604052505050565b6000613e2182613d67565b91507fffffffffffffffffffffffffffffffffffffffffffffffffffffffffffffffff821415613e5457613e53613e90565b5b600182019050919050565b6000613e6a82613d67565b9150613e7583613d67565b925082613e8557613e84613ebf565b5b828206905092915050565b7f4e487b7100000000000000000000000000000000000000000000000000000000600052601160045260246000fd5b7f4e487b7100000000000000000000000000000000000000000000000000000000600052601260045260246000fd5b7f4e487b7100000000000000000000000000000000000000000000000000000000600052602260045260246000fd5b7f4e487b7100000000000000000000000000000000000000000000000000000000600052604160045260246000fd5b6000601f19601f8301169050919050565b7f5061757361626c653a206e6f7420706175736564000000000000000000000000600082015250565b7f455243373231456e756d657261626c653a206f776e657220696e646578206f7560008201527f74206f6620626f756e6473000000000000000000000000000000000000000000602082015250565b7f4552433732313a207472616e7366657220746f206e6f6e20455243373231526560008201527f63656976657220696d706c656d656e7465720000000000000000000000000000602082015250565b7f4f776e61626c653a206e6577206f776e657220697320746865207a65726f206160008201527f6464726573730000000000000000000000000000000000000000000000000000602082015250565b7f4552433732313a207472616e736665722066726f6d20696e636f72726563742060008201527f6f776e6572000000000000000000000000000000000000000000000000000000602082015250565b7f4552433732313a20746f6b656e20616c7265616479206d696e74656400000000600082015250565b7f4e6f7420656e6f756768204554482073656e742c20706c65617365206368656360008201527f6b20707269636521000000000000000000000000000000000000000000000000602082015250565b7f4552433732313a207472616e7366657220746f20746865207a65726f2061646460008201527f7265737300000000000000000000000000000000000000000000000000000000602082015250565b7f4552433732313a20617070726f766520746f2063616c6c657200000000000000600082015250565b7f4d696e7461626c65206e66747320686176652072656163686564206d6178696d60008201527f756d20737570706c790000000000000000000000000000000000000000000000602082015250565b7f5061757361626c653a2070617573656400000000000000000000000000000000600082015250565b7f4552433732313a2061646472657373207a65726f206973206e6f74206120766160008201527f6c6964206f776e65720000000000000000000000000000000000000000000000602082015250565b7f45524337323155524953746f726167653a2055524920736574206f66206e6f6e60008201527f6578697374656e7420746f6b656e000000000000000000000000000000000000602082015250565b7f4552433732313a20617070726f76652063616c6c6572206973206e6f7420746f60008201527f6b656e206f776e6572206e6f7220617070726f76656420666f7220616c6c0000602082015250565b7f4552433732313a206d696e7420746f20746865207a65726f2061646472657373600082015250565b7f4f776e61626c653a2063616c6c6572206973206e6f7420746865206f776e6572600082015250565b7f4552433732313a20696e76616c696420746f6b656e2049440000000000000000600082015250565b7f4552433732313a20617070726f76616c20746f2063757272656e74206f776e6560008201527f7200000000000000000000000000000000000000000000000000000000000000602082015250565b7f455243373231456e756d657261626c653a20676c6f62616c20696e646578206f60008201527f7574206f6620626f756e64730000000000000000000000000000000000000000602082015250565b7f4e6577206d6178696d756d20737570706c79206d75737420626520677265617460008201527f6572207468616e207468652070726576696f7573206f6e650000000000000000602082015250565b7f4552433732313a2063616c6c6572206973206e6f7420746f6b656e206f776e6560008201527f72206e6f7220617070726f766564000000000000000000000000000000000000602082015250565b6144d781613cfd565b81146144e257600080fd5b50565b6144ee81613d0f565b81146144f957600080fd5b50565b61450581613d1b565b811461451057600080fd5b50565b61451c81613d67565b811461452757600080fd5b5056fe416e204e465420772f20494420257320686173206265656e206d696e74656420746f202573a2646970667358221220d6a5d896e11ad57859d74e7fae2b5ed26bc9e3edd0a6cd361995316ae75ef32664736f6c63430008010033516d57716b76316938526364687575717768696577724c77677273426d6d336d36746a646e623362446f58756863516d5847657a55316a5242507453766e79473344317750704c687674443179595364576f487a5369456338763550516d63686844337a696d6d6572774a4d7a71655a45784357615463774b7a46706e674c33646b6170624b53646857",
  "linkReferences": {},
  "deployedLinkReferences": {}
}