{
  "_format": "hh-sol-artifact-1",
  "contractName": "TicketNFTGenerator",
  "sourceName": "contracts/TicketNFTGenerator.sol",
  "abi": [
    {
      "inputs": [
        {
          "internalType": "uint256",
          "name": "_maxSupply",
          "type": "uint256"
        }
      ],
      "stateMutability": "nonpayable",
      "type": "constructor"
    },
    {
      "anonymous": false,
      "inputs": [
        {
          "indexed": true,
          "internalType": "address",
          "name": "owner",
          "type": "address"
        },
        {
          "indexed": true,
          "internalType": "address",
          "name": "approved",
          "type": "address"
        },
        {
          "indexed": true,
          "internalType": "uint256",
          "name": "tokenId",
          "type": "uint256"
        }
      ],
      "name": "Approval",
      "type": "event"
    },
    {
      "anonymous": false,
      "inputs": [
        {
          "indexed": true,
          "internalType": "address",
          "name": "owner",
          "type": "address"
        },
        {
          "indexed": true,
          "internalType": "address",
          "name": "operator",
          "type": "address"
        },
        {
          "indexed": false,
          "internalType": "bool",
          "name": "approved",
          "type": "bool"
        }
      ],
      "name": "ApprovalForAll",
      "type": "event"
    },
    {
      "anonymous": false,
      "inputs": [
        {
          "indexed": true,
          "internalType": "address",
          "name": "previousOwner",
          "type": "address"
        },
        {
          "indexed": true,
          "internalType": "address",
          "name": "newOwner",
          "type": "address"
        }
      ],
      "name": "OwnershipTransferred",
      "type": "event"
    },
    {
      "anonymous": false,
      "inputs": [
        {
          "indexed": false,
          "internalType": "address",
          "name": "account",
          "type": "address"
        }
      ],
      "name": "Paused",
      "type": "event"
    },
    {
      "anonymous": false,
      "inputs": [
        {
          "indexed": false,
          "internalType": "address",
          "name": "sender",
          "type": "address"
        },
        {
          "indexed": false,
          "internalType": "uint256",
          "name": "tokenId",
          "type": "uint256"
        },
        {
          "indexed": false,
          "internalType": "uint256",
          "name": "tokenCounter",
          "type": "uint256"
        },
        {
          "indexed": false,
          "internalType": "uint256",
          "name": "maxSupply",
          "type": "uint256"
        }
      ],
      "name": "TicketMinted",
      "type": "event"
    },
    {
      "anonymous": false,
      "inputs": [
        {
          "indexed": false,
          "internalType": "uint256",
          "name": "tokenId",
          "type": "uint256"
        },
        {
          "indexed": false,
          "internalType": "string",
          "name": "tokenUrl",
          "type": "string"
        }
      ],
      "name": "TicketToShow",
      "type": "event"
    },
    {
      "anonymous": false,
      "inputs": [
        {
          "indexed": true,
          "internalType": "address",
          "name": "from",
          "type": "address"
        },
        {
          "indexed": true,
          "internalType": "address",
          "name": "to",
          "type": "address"
        },
        {
          "indexed": true,
          "internalType": "uint256",
          "name": "tokenId",
          "type": "uint256"
        }
      ],
      "name": "Transfer",
      "type": "event"
    },
    {
      "anonymous": false,
      "inputs": [
        {
          "indexed": false,
          "internalType": "address",
          "name": "account",
          "type": "address"
        }
      ],
      "name": "Unpaused",
      "type": "event"
    },
    {
      "inputs": [
        {
          "internalType": "address",
          "name": "to",
          "type": "address"
        },
        {
          "internalType": "uint256",
          "name": "tokenId",
          "type": "uint256"
        }
      ],
      "name": "approve",
      "outputs": [],
      "stateMutability": "nonpayable",
      "type": "function"
    },
    {
      "inputs": [
        {
          "internalType": "address",
          "name": "owner",
          "type": "address"
        }
      ],
      "name": "balanceOf",
      "outputs": [
        {
          "internalType": "uint256",
          "name": "",
          "type": "uint256"
        }
      ],
      "stateMutability": "view",
      "type": "function"
    },
    {
      "inputs": [
        {
          "internalType": "uint256",
          "name": "tokenId",
          "type": "uint256"
        }
      ],
      "name": "getApproved",
      "outputs": [
        {
          "internalType": "address",
          "name": "",
          "type": "address"
        }
      ],
      "stateMutability": "view",
      "type": "function"
    },
    {
      "inputs": [],
      "name": "getBalance",
      "outputs": [
        {
          "internalType": "uint256",
          "name": "",
          "type": "uint256"
        }
      ],
      "stateMutability": "view",
      "type": "function"
    },
    {
      "inputs": [],
      "name": "getMaxSupply",
      "outputs": [
        {
          "internalType": "uint256",
          "name": "",
          "type": "uint256"
        }
      ],
      "stateMutability": "view",
      "type": "function"
    },
    {
      "inputs": [],
      "name": "getTokenCounter",
      "outputs": [
        {
          "internalType": "uint256",
          "name": "",
          "type": "uint256"
        }
      ],
      "stateMutability": "view",
      "type": "function"
    },
    {
      "inputs": [],
      "name": "getTokenList",
      "outputs": [],
      "stateMutability": "nonpayable",
      "type": "function"
    },
    {
      "inputs": [
        {
          "internalType": "uint256",
          "name": "_tokenId",
          "type": "uint256"
        },
        {
          "internalType": "address",
          "name": "_to",
          "type": "address"
        }
      ],
      "name": "givesToken",
      "outputs": [],
      "stateMutability": "nonpayable",
      "type": "function"
    },
    {
      "inputs": [
        {
          "internalType": "address",
          "name": "owner",
          "type": "address"
        },
        {
          "internalType": "address",
          "name": "operator",
          "type": "address"
        }
      ],
      "name": "isApprovedForAll",
      "outputs": [
        {
          "internalType": "bool",
          "name": "",
          "type": "bool"
        }
      ],
      "stateMutability": "view",
      "type": "function"
    },
    {
      "inputs": [],
      "name": "mintTicket",
      "outputs": [],
      "stateMutability": "nonpayable",
      "type": "function"
    },
    {
      "inputs": [],
      "name": "mintedTokens",
      "outputs": [
        {
          "internalType": "uint256",
          "name": "",
          "type": "uint256"
        }
      ],
      "stateMutability": "view",
      "type": "function"
    },
    {
      "inputs": [],
      "name": "name",
      "outputs": [
        {
          "internalType": "string",
          "name": "",
          "type": "string"
        }
      ],
      "stateMutability": "view",
      "type": "function"
    },
    {
      "inputs": [],
      "name": "owner",
      "outputs": [
        {
          "internalType": "address",
          "name": "",
          "type": "address"
        }
      ],
      "stateMutability": "view",
      "type": "function"
    },
    {
      "inputs": [
        {
          "internalType": "uint256",
          "name": "tokenId",
          "type": "uint256"
        }
      ],
      "name": "ownerOf",
      "outputs": [
        {
          "internalType": "address",
          "name": "",
          "type": "address"
        }
      ],
      "stateMutability": "view",
      "type": "function"
    },
    {
      "inputs": [],
      "name": "pause",
      "outputs": [],
      "stateMutability": "nonpayable",
      "type": "function"
    },
    {
      "inputs": [],
      "name": "paused",
      "outputs": [
        {
          "internalType": "bool",
          "name": "",
          "type": "bool"
        }
      ],
      "stateMutability": "view",
      "type": "function"
    },
    {
      "inputs": [],
      "name": "receiveMoney",
      "outputs": [],
      "stateMutability": "payable",
      "type": "function"
    },
    {
      "inputs": [],
      "name": "renounceOwnership",
      "outputs": [],
      "stateMutability": "nonpayable",
      "type": "function"
    },
    {
      "inputs": [
        {
          "internalType": "address",
          "name": "from",
          "type": "address"
        },
        {
          "internalType": "address",
          "name": "to",
          "type": "address"
        },
        {
          "internalType": "uint256",
          "name": "tokenId",
          "type": "uint256"
        }
      ],
      "name": "safeTransferFrom",
      "outputs": [],
      "stateMutability": "nonpayable",
      "type": "function"
    },
    {
      "inputs": [
        {
          "internalType": "address",
          "name": "from",
          "type": "address"
        },
        {
          "internalType": "address",
          "name": "to",
          "type": "address"
        },
        {
          "internalType": "uint256",
          "name": "tokenId",
          "type": "uint256"
        },
        {
          "internalType": "bytes",
          "name": "data",
          "type": "bytes"
        }
      ],
      "name": "safeTransferFrom",
      "outputs": [],
      "stateMutability": "nonpayable",
      "type": "function"
    },
    {
      "inputs": [
        {
          "internalType": "address",
          "name": "_to",
          "type": "address"
        },
        {
          "internalType": "uint256",
          "name": "_amount",
          "type": "uint256"
        }
      ],
      "name": "sendMoney",
      "outputs": [],
      "stateMutability": "nonpayable",
      "type": "function"
    },
    {
      "inputs": [
        {
          "internalType": "address",
          "name": "operator",
          "type": "address"
        },
        {
          "internalType": "bool",
          "name": "approved",
          "type": "bool"
        }
      ],
      "name": "setApprovalForAll",
      "outputs": [],
      "stateMutability": "nonpayable",
      "type": "function"
    },
    {
      "inputs": [
        {
          "internalType": "uint256",
          "name": "_maxSupply",
          "type": "uint256"
        }
      ],
      "name": "setMaxSupply",
      "outputs": [],
      "stateMutability": "nonpayable",
      "type": "function"
    },
    {
      "inputs": [
        {
          "internalType": "bytes4",
          "name": "interfaceId",
          "type": "bytes4"
        }
      ],
      "name": "supportsInterface",
      "outputs": [
        {
          "internalType": "bool",
          "name": "",
          "type": "bool"
        }
      ],
      "stateMutability": "view",
      "type": "function"
    },
    {
      "inputs": [],
      "name": "symbol",
      "outputs": [
        {
          "internalType": "string",
          "name": "",
          "type": "string"
        }
      ],
      "stateMutability": "view",
      "type": "function"
    },
    {
      "inputs": [
        {
          "internalType": "uint256",
          "name": "index",
          "type": "uint256"
        }
      ],
      "name": "tokenByIndex",
      "outputs": [
        {
          "internalType": "uint256",
          "name": "",
          "type": "uint256"
        }
      ],
      "stateMutability": "view",
      "type": "function"
    },
    {
      "inputs": [
        {
          "internalType": "address",
          "name": "owner",
          "type": "address"
        },
        {
          "internalType": "uint256",
          "name": "index",
          "type": "uint256"
        }
      ],
      "name": "tokenOfOwnerByIndex",
      "outputs": [
        {
          "internalType": "uint256",
          "name": "",
          "type": "uint256"
        }
      ],
      "stateMutability": "view",
      "type": "function"
    },
    {
      "inputs": [
        {
          "internalType": "uint256",
          "name": "tokenId",
          "type": "uint256"
        }
      ],
      "name": "tokenURI",
      "outputs": [
        {
          "internalType": "string",
          "name": "",
          "type": "string"
        }
      ],
      "stateMutability": "view",
      "type": "function"
    },
    {
      "inputs": [],
      "name": "totalSupply",
      "outputs": [
        {
          "internalType": "uint256",
          "name": "",
          "type": "uint256"
        }
      ],
      "stateMutability": "view",
      "type": "function"
    },
    {
      "inputs": [
        {
          "internalType": "address",
          "name": "from",
          "type": "address"
        },
        {
          "internalType": "address",
          "name": "to",
          "type": "address"
        },
        {
          "internalType": "uint256",
          "name": "tokenId",
          "type": "uint256"
        }
      ],
      "name": "transferFrom",
      "outputs": [],
      "stateMutability": "nonpayable",
      "type": "function"
    },
    {
      "inputs": [
        {
          "internalType": "address",
          "name": "newOwner",
          "type": "address"
        }
      ],
      "name": "transferOwnership",
      "outputs": [],
      "stateMutability": "nonpayable",
      "type": "function"
    },
    {
      "inputs": [],
      "name": "unPause",
      "outputs": [],
      "stateMutability": "nonpayable",
      "type": "function"
    },
    {
      "stateMutability": "payable",
      "type": "receive"
    }
  ],
  "bytecode": "0x60806040526040518060600160405280602e815260200162004c75602e9139600c9080519060200190620000359291906200039b565b506040518060600160405280602e815260200162004ca3602e9139600d9080519060200190620000679291906200039b565b506040518060600160405280602e815260200162004cd1602e9139600e9080519060200190620000999291906200039b565b50348015620000a757600080fd5b5060405162004cff38038062004cff8339818101604052810190620000cd919062000462565b6040518060400160405280600981526020017f5469636b65744e465400000000000000000000000000000000000000000000008152506040518060400160405280600381526020017f544b5400000000000000000000000000000000000000000000000000000000008152508160009080519060200190620001519291906200039b565b5080600190805190602001906200016a9291906200039b565b5050506200018d620001816200020160201b60201c565b6200020960201b60201c565b6000600b60146101000a81548160ff02191690831515021790555080601081905550620001fa6040518060400160405280601581526020017f436f6e747261637420696e7374616e7469617465640000000000000000000000815250620002cf60201b620013241760201c565b50620005df565b600033905090565b6000600b60009054906101000a900473ffffffffffffffffffffffffffffffffffffffff16905081600b60006101000a81548173ffffffffffffffffffffffffffffffffffffffff021916908373ffffffffffffffffffffffffffffffffffffffff1602179055508173ffffffffffffffffffffffffffffffffffffffff168173ffffffffffffffffffffffffffffffffffffffff167f8be0079c531659141344cd1fd0a4f28419497f9722a3daafe3b4186f6b6457e060405160405180910390a35050565b6200036f81604051602401620002e69190620004cf565b6040516020818303038152906040527f41304fac000000000000000000000000000000000000000000000000000000007bffffffffffffffffffffffffffffffffffffffffffffffffffffffff19166020820180517bffffffffffffffffffffffffffffffffffffffffffffffffffffffff83818316178352505050506200037260201b60201c565b50565b60008151905060006a636f6e736f6c652e6c6f679050602083016000808483855afa5050505050565b828054620003a9906200054f565b90600052602060002090601f016020900481019282620003cd576000855562000419565b82601f10620003e857805160ff191683800117855562000419565b8280016001018555821562000419579182015b8281111562000418578251825591602001919060010190620003fb565b5b5090506200042891906200042c565b5090565b5b80821115620004475760008160009055506001016200042d565b5090565b6000815190506200045c81620005c5565b92915050565b6000602082840312156200047557600080fd5b600062000485848285016200044b565b91505092915050565b60006200049b82620004f3565b620004a78185620004fe565b9350620004b981856020860162000519565b620004c481620005b4565b840191505092915050565b60006020820190508181036000830152620004eb81846200048e565b905092915050565b600081519050919050565b600082825260208201905092915050565b6000819050919050565b60005b83811015620005395780820151818401526020810190506200051c565b8381111562000549576000848401525b50505050565b600060028204905060018216806200056857607f821691505b602082108114156200057f576200057e62000585565b5b50919050565b7f4e487b7100000000000000000000000000000000000000000000000000000000600052602260045260246000fd5b6000601f19601f8301169050919050565b620005d0816200050f565b8114620005dc57600080fd5b50565b61468680620005ef6000396000f3fe6080604052600436106101e75760003560e01c80636e02007d1161010257806395d89b4111610095578063e985e9c511610064578063e985e9c5146106ae578063ee4ae2c9146106eb578063f2fde38b14610714578063f7b188a51461073d576101f6565b806395d89b41146105f4578063a22cb4651461061f578063b88d4fde14610648578063c87b56dd14610671576101f6565b80638456cb59116100d15780638456cb591461055e578063889e47a7146105755780638d75fe051461059e5780638da5cb5b146105c9576101f6565b80636e02007d146104b65780636f8b44b0146104e157806370a082311461050a578063715018a614610547576101f6565b80632f745c591161017a578063573c80fa11610149578063573c80fa1461042d5780635c975abb146104445780636352211e1461046f5780636d26ec18146104ac576101f6565b80632f745c591461035f57806342842e0e1461039c5780634c0f38c2146103c55780634f6ccce7146103f0576101f6565b806312065fe0116101b657806312065fe0146102c957806318160ddd146102f457806323b872dd1461031f578063273cbaa014610348576101f6565b806301ffc9a7146101fb57806306fdde0314610238578063081812fc14610263578063095ea7b3146102a0576101f6565b366101f6576101f4610754565b005b600080fd5b34801561020757600080fd5b50610222600480360381019061021d91906133a7565b6107be565b60405161022f91906138dd565b60405180910390f35b34801561024457600080fd5b5061024d6107d0565b60405161025a91906138f8565b60405180910390f35b34801561026f57600080fd5b5061028a600480360381019061028591906133f9565b610862565b6040516102979190613831565b60405180910390f35b3480156102ac57600080fd5b506102c760048036038101906102c2919061336b565b6108a8565b005b3480156102d557600080fd5b506102de6109c0565b6040516102eb9190613c5f565b60405180910390f35b34801561030057600080fd5b506103096109d2565b6040516103169190613c5f565b60405180910390f35b34801561032b57600080fd5b5061034660048036038101906103419190613265565b6109df565b005b34801561035457600080fd5b5061035d610a3f565b005b34801561036b57600080fd5b506103866004803603810190610381919061336b565b610b8b565b6040516103939190613c5f565b60405180910390f35b3480156103a857600080fd5b506103c360048036038101906103be9190613265565b610c30565b005b3480156103d157600080fd5b506103da610c50565b6040516103e79190613c5f565b60405180910390f35b3480156103fc57600080fd5b50610417600480360381019061041291906133f9565b610c62565b6040516104249190613c5f565b60405180910390f35b34801561043957600080fd5b50610442610cf9565b005b34801561045057600080fd5b50610459610de6565b60405161046691906138dd565b60405180910390f35b34801561047b57600080fd5b50610496600480360381019061049191906133f9565b610dfd565b6040516104a39190613831565b60405180910390f35b6104b4610754565b005b3480156104c257600080fd5b506104cb610eaf565b6040516104d89190613c5f565b60405180910390f35b3480156104ed57600080fd5b50610508600480360381019061050391906133f9565b610ec8565b005b34801561051657600080fd5b50610531600480360381019061052c9190613200565b610f26565b60405161053e9190613c5f565b60405180910390f35b34801561055357600080fd5b5061055c610fde565b005b34801561056a57600080fd5b50610573610ff2565b005b34801561058157600080fd5b5061059c60048036038101906105979190613422565b611004565b005b3480156105aa57600080fd5b506105b361105b565b6040516105c09190613c5f565b60405180910390f35b3480156105d557600080fd5b506105de611061565b6040516105eb9190613831565b60405180910390f35b34801561060057600080fd5b5061060961108b565b60405161061691906138f8565b60405180910390f35b34801561062b57600080fd5b506106466004803603810190610641919061332f565b61111d565b005b34801561065457600080fd5b5061066f600480360381019061066a91906132b4565b611133565b005b34801561067d57600080fd5b50610698600480360381019061069391906133f9565b611195565b6040516106a591906138f8565b60405180910390f35b3480156106ba57600080fd5b506106d560048036038101906106d09190613229565b6111a7565b6040516106e291906138dd565b60405180910390f35b3480156106f757600080fd5b50610712600480360381019061070d919061336b565b61123b565b005b34801561072057600080fd5b5061073b60048036038101906107369190613200565b61128e565b005b34801561074957600080fd5b50610752611312565b005b60115461076c601154346113bd90919063ffffffff16565b10156107a1577f4e487b7100000000000000000000000000000000000000000000000000000000600052600160045260246000fd5b6107b6346011546113bd90919063ffffffff16565b601181905550565b60006107c9826113d3565b9050919050565b6060600080546107df90613eb4565b80601f016020809104026020016040519081016040528092919081815260200182805461080b90613eb4565b80156108585780601f1061082d57610100808354040283529160200191610858565b820191906000526020600020905b81548152906001019060200180831161083b57829003601f168201915b5050505050905090565b600061086d8261144d565b6004600083815260200190815260200160002060009054906101000a900473ffffffffffffffffffffffffffffffffffffffff169050919050565b60006108b382610dfd565b90508073ffffffffffffffffffffffffffffffffffffffff168373ffffffffffffffffffffffffffffffffffffffff161415610924576040517f08c379a000000000000000000000000000000000000000000000000000000000815260040161091b90613bbf565b60405180910390fd5b8073ffffffffffffffffffffffffffffffffffffffff16610943611498565b73ffffffffffffffffffffffffffffffffffffffff16148061097257506109718161096c611498565b6111a7565b5b6109b1576040517f08c379a00000000000000000000000000000000000000000000000000000000081526004016109a890613b3f565b60405180910390fd5b6109bb83836114a0565b505050565b60006109ca611559565b601154905090565b6000600980549050905090565b6109f06109ea611498565b826115d7565b610a2f576040517f08c379a0000000000000000000000000000000000000000000000000000000008152600401610a2690613c3f565b60405180910390fd5b610a3a83838361166c565b505050565b610a476118d3565b6000610a5233610f26565b9050610a936040518060400160405280601481526020017f746f6b656e4c697374206c656e6774683a2025730000000000000000000000008152508261191d565b60005b81811015610b87576000610aaa3383610b8b565b90507f01723b1e195ca0b13f4f078e25fec60cd910e1fec2bd9e82b2c313876f9b352881610ad783611195565b604051610ae5929190613c7a565b60405180910390a1610b2c6040518060400160405280600b81526020017f746f6b656e49643a2025730000000000000000000000000000000000000000008152508261191d565b610b736040518060400160405280600c81526020017f746f6b656e55726c3a2025730000000000000000000000000000000000000000815250610b6e83611195565b6119b9565b508080610b7f90613f17565b915050610a96565b5050565b6000610b9683610f26565b8210610bd7576040517f08c379a0000000000000000000000000000000000000000000000000000000008152600401610bce906139df565b60405180910390fd5b600760008473ffffffffffffffffffffffffffffffffffffffff1673ffffffffffffffffffffffffffffffffffffffff168152602001908152602001600020600083815260200190815260200160002054905092915050565b610c4b83838360405180602001604052806000815250611133565b505050565b6000610c5a6118d3565b601054905090565b6000610c6c6109d2565b8210610cad576040517f08c379a0000000000000000000000000000000000000000000000000000000008152600401610ca490613bdf565b60405180910390fd5b60098281548110610ce7577f4e487b7100000000000000000000000000000000000000000000000000000000600052603260045260246000fd5b90600052602060002001549050919050565b610d016118d3565b6000610d0d600f611a55565b9050610d3260405180606001604052806025815260200161462c602591398233611a63565b610d3c3382611b02565b610d4f81610d4a6000611b20565b611dca565b610d59600f611e3e565b610d61611e54565b610da26040518060400160405280600e81526020017f6d696e7465644e6674733a20257300000000000000000000000000000000000081525060125461191d565b7f64bd16642eed00863590d7320e06c0f31bb0468a971feede4e13313e3b2792243382601254601054604051610ddb9493929190613898565b60405180910390a150565b6000600b60149054906101000a900460ff16905090565b6000806002600084815260200190815260200160002060009054906101000a900473ffffffffffffffffffffffffffffffffffffffff169050600073ffffffffffffffffffffffffffffffffffffffff168173ffffffffffffffffffffffffffffffffffffffff161415610ea6576040517f08c379a0000000000000000000000000000000000000000000000000000000008152600401610e9d90613b9f565b60405180910390fd5b80915050919050565b6000610eb96118d3565b610ec3600f611a55565b905090565b610ed06118d3565b610ed8611559565b6010548111610f1c576040517f08c379a0000000000000000000000000000000000000000000000000000000008152600401610f1390613c1f565b60405180910390fd5b8060108190555050565b60008073ffffffffffffffffffffffffffffffffffffffff168273ffffffffffffffffffffffffffffffffffffffff161415610f97576040517f08c379a0000000000000000000000000000000000000000000000000000000008152600401610f8e90613aff565b60405180910390fd5b600360008373ffffffffffffffffffffffffffffffffffffffff1673ffffffffffffffffffffffffffffffffffffffff168152602001908152602001600020549050919050565b610fe6611559565b610ff06000611eb8565b565b610ffa611559565b611002611f7e565b565b61100d82611fe1565b61104c576040517f08c379a000000000000000000000000000000000000000000000000000000000815260040161104390613bff565b60405180910390fd5b6110573382846109df565b5050565b60125481565b6000600b60009054906101000a900473ffffffffffffffffffffffffffffffffffffffff16905090565b60606001805461109a90613eb4565b80601f01602080910402602001604051908101604052809291908181526020018280546110c690613eb4565b80156111135780601f106110e857610100808354040283529160200191611113565b820191906000526020600020905b8154815290600101906020018083116110f657829003601f168201915b5050505050905090565b61112f611128611498565b838361203c565b5050565b61114461113e611498565b836115d7565b611183576040517f08c379a000000000000000000000000000000000000000000000000000000000815260040161117a90613c3f565b60405180910390fd5b61118f848484846121a9565b50505050565b60606111a082612205565b9050919050565b6000600560008473ffffffffffffffffffffffffffffffffffffffff1673ffffffffffffffffffffffffffffffffffffffff16815260200190815260200160002060008373ffffffffffffffffffffffffffffffffffffffff1673ffffffffffffffffffffffffffffffffffffffff16815260200190815260200160002060009054906101000a900460ff16905092915050565b611243611559565b8173ffffffffffffffffffffffffffffffffffffffff166108fc829081150290604051600060405180830381858888f19350505050158015611289573d6000803e3d6000fd5b505050565b611296611559565b600073ffffffffffffffffffffffffffffffffffffffff168173ffffffffffffffffffffffffffffffffffffffff161415611306576040517f08c379a00000000000000000000000000000000000000000000000000000000081526004016112fd90613a1f565b60405180910390fd5b61130f81611eb8565b50565b61131a611559565b611322612318565b565b6113ba8160405160240161133891906138f8565b6040516020818303038152906040527f41304fac000000000000000000000000000000000000000000000000000000007bffffffffffffffffffffffffffffffffffffffffffffffffffffffff19166020820180517bffffffffffffffffffffffffffffffffffffffffffffffffffffffff838183161783525050505061237b565b50565b600081836113cb9190613d43565b905092915050565b60007f780e9d63000000000000000000000000000000000000000000000000000000007bffffffffffffffffffffffffffffffffffffffffffffffffffffffff1916827bffffffffffffffffffffffffffffffffffffffffffffffffffffffff191614806114465750611445826123a4565b5b9050919050565b61145681612486565b611495576040517f08c379a000000000000000000000000000000000000000000000000000000000815260040161148c90613b9f565b60405180910390fd5b50565b600033905090565b816004600083815260200190815260200160002060006101000a81548173ffffffffffffffffffffffffffffffffffffffff021916908373ffffffffffffffffffffffffffffffffffffffff160217905550808273ffffffffffffffffffffffffffffffffffffffff1661151383610dfd565b73ffffffffffffffffffffffffffffffffffffffff167f8c5be1e5ebec7d5bd14f71427d1e84f3dd0314c0f7b2291e5b200ac8c7c3b92560405160405180910390a45050565b611561611498565b73ffffffffffffffffffffffffffffffffffffffff1661157f611061565b73ffffffffffffffffffffffffffffffffffffffff16146115d5576040517f08c379a00000000000000000000000000000000000000000000000000000000081526004016115cc90613b7f565b60405180910390fd5b565b6000806115e383610dfd565b90508073ffffffffffffffffffffffffffffffffffffffff168473ffffffffffffffffffffffffffffffffffffffff161480611625575061162481856111a7565b5b8061166357508373ffffffffffffffffffffffffffffffffffffffff1661164b84610862565b73ffffffffffffffffffffffffffffffffffffffff16145b91505092915050565b8273ffffffffffffffffffffffffffffffffffffffff1661168c82610dfd565b73ffffffffffffffffffffffffffffffffffffffff16146116e2576040517f08c379a00000000000000000000000000000000000000000000000000000000081526004016116d990613a3f565b60405180910390fd5b600073ffffffffffffffffffffffffffffffffffffffff168273ffffffffffffffffffffffffffffffffffffffff161415611752576040517f08c379a000000000000000000000000000000000000000000000000000000000815260040161174990613a7f565b60405180910390fd5b61175d8383836124f2565b6117686000826114a0565b6001600360008573ffffffffffffffffffffffffffffffffffffffff1673ffffffffffffffffffffffffffffffffffffffff16815260200190815260200160002060008282546117b89190613dca565b925050819055506001600360008473ffffffffffffffffffffffffffffffffffffffff1673ffffffffffffffffffffffffffffffffffffffff168152602001908152602001600020600082825461180f9190613d43565b92505081905550816002600083815260200190815260200160002060006101000a81548173ffffffffffffffffffffffffffffffffffffffff021916908373ffffffffffffffffffffffffffffffffffffffff160217905550808273ffffffffffffffffffffffffffffffffffffffff168473ffffffffffffffffffffffffffffffffffffffff167fddf252ad1be2c89b69c2b068fc378daa952ba7f163c4a11628f55a4df523b3ef60405160405180910390a46118ce838383612502565b505050565b6118db610de6565b1561191b576040517f08c379a000000000000000000000000000000000000000000000000000000000815260040161191290613adf565b60405180910390fd5b565b6119b58282604051602401611933929190613951565b6040516020818303038152906040527f9710a9d0000000000000000000000000000000000000000000000000000000007bffffffffffffffffffffffffffffffffffffffffffffffffffffffff19166020820180517bffffffffffffffffffffffffffffffffffffffffffffffffffffffff838183161783525050505061237b565b5050565b611a5182826040516024016119cf92919061391a565b6040516020818303038152906040527f4b5c4277000000000000000000000000000000000000000000000000000000007bffffffffffffffffffffffffffffffffffffffffffffffffffffffff19166020820180517bffffffffffffffffffffffffffffffffffffffffffffffffffffffff838183161783525050505061237b565b5050565b600081600001549050919050565b611afd838383604051602401611a7b93929190613981565b6040516020818303038152906040527fe3849f79000000000000000000000000000000000000000000000000000000007bffffffffffffffffffffffffffffffffffffffffffffffffffffffff19166020820180517bffffffffffffffffffffffffffffffffffffffffffffffffffffffff838183161783525050505061237b565b505050565b611b1c828260405180602001604052806000815250612507565b5050565b606060016002811115611b5c577f4e487b7100000000000000000000000000000000000000000000000000000000600052602160045260246000fd5b826002811115611b95577f4e487b7100000000000000000000000000000000000000000000000000000000600052602160045260246000fd5b1415611c2d57600d8054611ba890613eb4565b80601f0160208091040260200160405190810160405280929190818152602001828054611bd490613eb4565b8015611c215780601f10611bf657610100808354040283529160200191611c21565b820191906000526020600020905b815481529060010190602001808311611c0457829003601f168201915b50505050509050611dc5565b600280811115611c66577f4e487b7100000000000000000000000000000000000000000000000000000000600052602160045260246000fd5b826002811115611c9f577f4e487b7100000000000000000000000000000000000000000000000000000000600052602160045260246000fd5b1415611d3757600e8054611cb290613eb4565b80601f0160208091040260200160405190810160405280929190818152602001828054611cde90613eb4565b8015611d2b5780601f10611d0057610100808354040283529160200191611d2b565b820191906000526020600020905b815481529060010190602001808311611d0e57829003601f168201915b50505050509050611dc5565b600c8054611d4490613eb4565b80601f0160208091040260200160405190810160405280929190818152602001828054611d7090613eb4565b8015611dbd5780601f10611d9257610100808354040283529160200191611dbd565b820191906000526020600020905b815481529060010190602001808311611da057829003601f168201915b505050505090505b919050565b611dd382612486565b611e12576040517f08c379a0000000000000000000000000000000000000000000000000000000008152600401611e0990613b1f565b60405180910390fd5b80600660008481526020019081526020016000209080519060200190611e3992919061308c565b505050565b6001816000016000828254019250508190555050565b60105460125410611e9a576040517f08c379a0000000000000000000000000000000000000000000000000000000008152600401611e9190613abf565b60405180910390fd5b611eb060016012546113bd90919063ffffffff16565b601281905550565b6000600b60009054906101000a900473ffffffffffffffffffffffffffffffffffffffff16905081600b60006101000a81548173ffffffffffffffffffffffffffffffffffffffff021916908373ffffffffffffffffffffffffffffffffffffffff1602179055508173ffffffffffffffffffffffffffffffffffffffff168173ffffffffffffffffffffffffffffffffffffffff167f8be0079c531659141344cd1fd0a4f28419497f9722a3daafe3b4186f6b6457e060405160405180910390a35050565b611f866118d3565b6001600b60146101000a81548160ff0219169083151502179055507f62e78cea01bee320cd4e420270b5ea74000d11b0c9f74754ebdbfc544b05a258611fca611498565b604051611fd79190613831565b60405180910390a1565b600080611fed33610f26565b905060005b818110156120305760006120063383610b8b565b90508481141561201c5760019350505050612037565b50808061202890613f17565b915050611ff2565b5060009150505b919050565b8173ffffffffffffffffffffffffffffffffffffffff168373ffffffffffffffffffffffffffffffffffffffff1614156120ab576040517f08c379a00000000000000000000000000000000000000000000000000000000081526004016120a290613a9f565b60405180910390fd5b80600560008573ffffffffffffffffffffffffffffffffffffffff1673ffffffffffffffffffffffffffffffffffffffff16815260200190815260200160002060008473ffffffffffffffffffffffffffffffffffffffff1673ffffffffffffffffffffffffffffffffffffffff16815260200190815260200160002060006101000a81548160ff0219169083151502179055508173ffffffffffffffffffffffffffffffffffffffff168373ffffffffffffffffffffffffffffffffffffffff167f17307eab39ab6107e8899845ad3d59bd9653f200f220920489ca2b5937696c318360405161219c91906138dd565b60405180910390a3505050565b6121b484848461166c565b6121c084848484612562565b6121ff576040517f08c379a00000000000000000000000000000000000000000000000000000000081526004016121f6906139ff565b60405180910390fd5b50505050565b60606122108261144d565b600060066000848152602001908152602001600020805461223090613eb4565b80601f016020809104026020016040519081016040528092919081815260200182805461225c90613eb4565b80156122a95780601f1061227e576101008083540402835291602001916122a9565b820191906000526020600020905b81548152906001019060200180831161228c57829003601f168201915b5050505050905060006122ba6126f9565b90506000815114156122d0578192505050612313565b6000825111156123055780826040516020016122ed92919061380d565b60405160208183030381529060405292505050612313565b61230e84612736565b925050505b919050565b61232061279e565b6000600b60146101000a81548160ff0219169083151502179055507f5db9ee0a495bf2e6ff9c91a7834c1ba4fdd244a5e8aa4e537bd38aeae4b073aa612364611498565b6040516123719190613831565b60405180910390a1565b60008151905060006a636f6e736f6c652e6c6f679050602083016000808483855afa5050505050565b60007f80ac58cd000000000000000000000000000000000000000000000000000000007bffffffffffffffffffffffffffffffffffffffffffffffffffffffff1916827bffffffffffffffffffffffffffffffffffffffffffffffffffffffff1916148061246f57507f5b5e139f000000000000000000000000000000000000000000000000000000007bffffffffffffffffffffffffffffffffffffffffffffffffffffffff1916827bffffffffffffffffffffffffffffffffffffffffffffffffffffffff1916145b8061247f575061247e826127e7565b5b9050919050565b60008073ffffffffffffffffffffffffffffffffffffffff166002600084815260200190815260200160002060009054906101000a900473ffffffffffffffffffffffffffffffffffffffff1673ffffffffffffffffffffffffffffffffffffffff1614159050919050565b6124fd838383612851565b505050565b505050565b6125118383612965565b61251e6000848484612562565b61255d576040517f08c379a0000000000000000000000000000000000000000000000000000000008152600401612554906139ff565b60405180910390fd5b505050565b60006125838473ffffffffffffffffffffffffffffffffffffffff16612b3f565b156126ec578373ffffffffffffffffffffffffffffffffffffffff1663150b7a026125ac611498565b8786866040518563ffffffff1660e01b81526004016125ce949392919061384c565b602060405180830381600087803b1580156125e857600080fd5b505af192505050801561261957506040513d601f19601f8201168201806040525081019061261691906133d0565b60015b61269c573d8060008114612649576040519150601f19603f3d011682016040523d82523d6000602084013e61264e565b606091505b50600081511415612694576040517f08c379a000000000000000000000000000000000000000000000000000000000815260040161268b906139ff565b60405180910390fd5b805181602001fd5b63150b7a0260e01b7bffffffffffffffffffffffffffffffffffffffffffffffffffffffff1916817bffffffffffffffffffffffffffffffffffffffffffffffffffffffff1916149150506126f1565b600190505b949350505050565b60606040518060400160405280600781526020017f697066733a2f2f00000000000000000000000000000000000000000000000000815250905090565b60606127418261144d565b600061274b6126f9565b9050600081511161276b5760405180602001604052806000815250612796565b8061277584612b62565b60405160200161278692919061380d565b6040516020818303038152906040525b915050919050565b6127a6610de6565b6127e5576040517f08c379a00000000000000000000000000000000000000000000000000000000081526004016127dc906139bf565b60405180910390fd5b565b60007f01ffc9a7000000000000000000000000000000000000000000000000000000007bffffffffffffffffffffffffffffffffffffffffffffffffffffffff1916827bffffffffffffffffffffffffffffffffffffffffffffffffffffffff1916149050919050565b61285c838383612d0f565b600073ffffffffffffffffffffffffffffffffffffffff168373ffffffffffffffffffffffffffffffffffffffff16141561289f5761289a81612d14565b6128de565b8173ffffffffffffffffffffffffffffffffffffffff168373ffffffffffffffffffffffffffffffffffffffff16146128dd576128dc8382612d5d565b5b5b600073ffffffffffffffffffffffffffffffffffffffff168273ffffffffffffffffffffffffffffffffffffffff1614156129215761291c81612eca565b612960565b8273ffffffffffffffffffffffffffffffffffffffff168273ffffffffffffffffffffffffffffffffffffffff161461295f5761295e828261300d565b5b5b505050565b600073ffffffffffffffffffffffffffffffffffffffff168273ffffffffffffffffffffffffffffffffffffffff1614156129d5576040517f08c379a00000000000000000000000000000000000000000000000000000000081526004016129cc90613b5f565b60405180910390fd5b6129de81612486565b15612a1e576040517f08c379a0000000000000000000000000000000000000000000000000000000008152600401612a1590613a5f565b60405180910390fd5b612a2a600083836124f2565b6001600360008473ffffffffffffffffffffffffffffffffffffffff1673ffffffffffffffffffffffffffffffffffffffff1681526020019081526020016000206000828254612a7a9190613d43565b92505081905550816002600083815260200190815260200160002060006101000a81548173ffffffffffffffffffffffffffffffffffffffff021916908373ffffffffffffffffffffffffffffffffffffffff160217905550808273ffffffffffffffffffffffffffffffffffffffff16600073ffffffffffffffffffffffffffffffffffffffff167fddf252ad1be2c89b69c2b068fc378daa952ba7f163c4a11628f55a4df523b3ef60405160405180910390a4612b3b60008383612502565b5050565b6000808273ffffffffffffffffffffffffffffffffffffffff163b119050919050565b60606000821415612baa576040518060400160405280600181526020017f30000000000000000000000000000000000000000000000000000000000000008152509050612d0a565b600082905060005b60008214612bdc578080612bc590613f17565b915050600a82612bd59190613d99565b9150612bb2565b60008167ffffffffffffffff811115612c1e577f4e487b7100000000000000000000000000000000000000000000000000000000600052604160045260246000fd5b6040519080825280601f01601f191660200182016040528015612c505781602001600182028036833780820191505090505b5090505b60008514612d0357600182612c699190613dca565b9150600a85612c789190613f60565b6030612c849190613d43565b60f81b818381518110612cc0577f4e487b7100000000000000000000000000000000000000000000000000000000600052603260045260246000fd5b60200101907effffffffffffffffffffffffffffffffffffffffffffffffffffffffffffff1916908160001a905350600a85612cfc9190613d99565b9450612c54565b8093505050505b919050565b505050565b600980549050600a600083815260200190815260200160002081905550600981908060018154018082558091505060019003906000526020600020016000909190919091505550565b60006001612d6a84610f26565b612d749190613dca565b9050600060086000848152602001908152602001600020549050818114612e59576000600760008673ffffffffffffffffffffffffffffffffffffffff1673ffffffffffffffffffffffffffffffffffffffff168152602001908152602001600020600084815260200190815260200160002054905080600760008773ffffffffffffffffffffffffffffffffffffffff1673ffffffffffffffffffffffffffffffffffffffff168152602001908152602001600020600084815260200190815260200160002081905550816008600083815260200190815260200160002081905550505b6008600084815260200190815260200160002060009055600760008573ffffffffffffffffffffffffffffffffffffffff1673ffffffffffffffffffffffffffffffffffffffff16815260200190815260200160002060008381526020019081526020016000206000905550505050565b60006001600980549050612ede9190613dca565b90506000600a6000848152602001908152602001600020549050600060098381548110612f34577f4e487b7100000000000000000000000000000000000000000000000000000000600052603260045260246000fd5b906000526020600020015490508060098381548110612f7c577f4e487b7100000000000000000000000000000000000000000000000000000000600052603260045260246000fd5b906000526020600020018190555081600a600083815260200190815260200160002081905550600a6000858152602001908152602001600020600090556009805480612ff1577f4e487b7100000000000000000000000000000000000000000000000000000000600052603160045260246000fd5b6001900381819060005260206000200160009055905550505050565b600061301883610f26565b905081600760008573ffffffffffffffffffffffffffffffffffffffff1673ffffffffffffffffffffffffffffffffffffffff168152602001908152602001600020600083815260200190815260200160002081905550806008600084815260200190815260200160002081905550505050565b82805461309890613eb4565b90600052602060002090601f0160209004810192826130ba5760008555613101565b82601f106130d357805160ff1916838001178555613101565b82800160010185558215613101579182015b828111156131005782518255916020019190600101906130e5565b5b50905061310e9190613112565b5090565b5b8082111561312b576000816000905550600101613113565b5090565b600061314261313d84613ccf565b613caa565b90508281526020810184848401111561315a57600080fd5b613165848285613e72565b509392505050565b60008135905061317c816145cf565b92915050565b600081359050613191816145e6565b92915050565b6000813590506131a6816145fd565b92915050565b6000815190506131bb816145fd565b92915050565b600082601f8301126131d257600080fd5b81356131e284826020860161312f565b91505092915050565b6000813590506131fa81614614565b92915050565b60006020828403121561321257600080fd5b60006132208482850161316d565b91505092915050565b6000806040838503121561323c57600080fd5b600061324a8582860161316d565b925050602061325b8582860161316d565b9150509250929050565b60008060006060848603121561327a57600080fd5b60006132888682870161316d565b93505060206132998682870161316d565b92505060406132aa868287016131eb565b9150509250925092565b600080600080608085870312156132ca57600080fd5b60006132d88782880161316d565b94505060206132e98782880161316d565b93505060406132fa878288016131eb565b925050606085013567ffffffffffffffff81111561331757600080fd5b613323878288016131c1565b91505092959194509250565b6000806040838503121561334257600080fd5b60006133508582860161316d565b925050602061336185828601613182565b9150509250929050565b6000806040838503121561337e57600080fd5b600061338c8582860161316d565b925050602061339d858286016131eb565b9150509250929050565b6000602082840312156133b957600080fd5b60006133c784828501613197565b91505092915050565b6000602082840312156133e257600080fd5b60006133f0848285016131ac565b91505092915050565b60006020828403121561340b57600080fd5b6000613419848285016131eb565b91505092915050565b6000806040838503121561343557600080fd5b6000613443858286016131eb565b92505060206134548582860161316d565b9150509250929050565b61346781613dfe565b82525050565b61347681613e10565b82525050565b600061348782613d00565b6134918185613d16565b93506134a1818560208601613e81565b6134aa8161404d565b840191505092915050565b60006134c082613d0b565b6134ca8185613d27565b93506134da818560208601613e81565b6134e38161404d565b840191505092915050565b60006134f982613d0b565b6135038185613d38565b9350613513818560208601613e81565b80840191505092915050565b600061352c601483613d27565b91506135378261405e565b602082019050919050565b600061354f602b83613d27565b915061355a82614087565b604082019050919050565b6000613572603283613d27565b915061357d826140d6565b604082019050919050565b6000613595602683613d27565b91506135a082614125565b604082019050919050565b60006135b8602583613d27565b91506135c382614174565b604082019050919050565b60006135db601c83613d27565b91506135e6826141c3565b602082019050919050565b60006135fe602483613d27565b9150613609826141ec565b604082019050919050565b6000613621601983613d27565b915061362c8261423b565b602082019050919050565b6000613644602983613d27565b915061364f82614264565b604082019050919050565b6000613667601083613d27565b9150613672826142b3565b602082019050919050565b600061368a602983613d27565b9150613695826142dc565b604082019050919050565b60006136ad602e83613d27565b91506136b88261432b565b604082019050919050565b60006136d0603e83613d27565b91506136db8261437a565b604082019050919050565b60006136f3602083613d27565b91506136fe826143c9565b602082019050919050565b6000613716602083613d27565b9150613721826143f2565b602082019050919050565b6000613739601883613d27565b91506137448261441b565b602082019050919050565b600061375c602183613d27565b915061376782614444565b604082019050919050565b600061377f602c83613d27565b915061378a82614493565b604082019050919050565b60006137a2602383613d27565b91506137ad826144e2565b604082019050919050565b60006137c5603883613d27565b91506137d082614531565b604082019050919050565b60006137e8602e83613d27565b91506137f382614580565b604082019050919050565b61380781613e68565b82525050565b600061381982856134ee565b915061382582846134ee565b91508190509392505050565b6000602082019050613846600083018461345e565b92915050565b6000608082019050613861600083018761345e565b61386e602083018661345e565b61387b60408301856137fe565b818103606083015261388d818461347c565b905095945050505050565b60006080820190506138ad600083018761345e565b6138ba60208301866137fe565b6138c760408301856137fe565b6138d460608301846137fe565b95945050505050565b60006020820190506138f2600083018461346d565b92915050565b6000602082019050818103600083015261391281846134b5565b905092915050565b6000604082019050818103600083015261393481856134b5565b9050818103602083015261394881846134b5565b90509392505050565b6000604082019050818103600083015261396b81856134b5565b905061397a60208301846137fe565b9392505050565b6000606082019050818103600083015261399b81866134b5565b90506139aa60208301856137fe565b6139b7604083018461345e565b949350505050565b600060208201905081810360008301526139d88161351f565b9050919050565b600060208201905081810360008301526139f881613542565b9050919050565b60006020820190508181036000830152613a1881613565565b9050919050565b60006020820190508181036000830152613a3881613588565b9050919050565b60006020820190508181036000830152613a58816135ab565b9050919050565b60006020820190508181036000830152613a78816135ce565b9050919050565b60006020820190508181036000830152613a98816135f1565b9050919050565b60006020820190508181036000830152613ab881613614565b9050919050565b60006020820190508181036000830152613ad881613637565b9050919050565b60006020820190508181036000830152613af88161365a565b9050919050565b60006020820190508181036000830152613b188161367d565b9050919050565b60006020820190508181036000830152613b38816136a0565b9050919050565b60006020820190508181036000830152613b58816136c3565b9050919050565b60006020820190508181036000830152613b78816136e6565b9050919050565b60006020820190508181036000830152613b9881613709565b9050919050565b60006020820190508181036000830152613bb88161372c565b9050919050565b60006020820190508181036000830152613bd88161374f565b9050919050565b60006020820190508181036000830152613bf881613772565b9050919050565b60006020820190508181036000830152613c1881613795565b9050919050565b60006020820190508181036000830152613c38816137b8565b9050919050565b60006020820190508181036000830152613c58816137db565b9050919050565b6000602082019050613c7460008301846137fe565b92915050565b6000604082019050613c8f60008301856137fe565b8181036020830152613ca181846134b5565b90509392505050565b6000613cb4613cc5565b9050613cc08282613ee6565b919050565b6000604051905090565b600067ffffffffffffffff821115613cea57613ce961401e565b5b613cf38261404d565b9050602081019050919050565b600081519050919050565b600081519050919050565b600082825260208201905092915050565b600082825260208201905092915050565b600081905092915050565b6000613d4e82613e68565b9150613d5983613e68565b9250827fffffffffffffffffffffffffffffffffffffffffffffffffffffffffffffffff03821115613d8e57613d8d613f91565b5b828201905092915050565b6000613da482613e68565b9150613daf83613e68565b925082613dbf57613dbe613fc0565b5b828204905092915050565b6000613dd582613e68565b9150613de083613e68565b925082821015613df357613df2613f91565b5b828203905092915050565b6000613e0982613e48565b9050919050565b60008115159050919050565b60007fffffffff0000000000000000000000000000000000000000000000000000000082169050919050565b600073ffffffffffffffffffffffffffffffffffffffff82169050919050565b6000819050919050565b82818337600083830152505050565b60005b83811015613e9f578082015181840152602081019050613e84565b83811115613eae576000848401525b50505050565b60006002820490506001821680613ecc57607f821691505b60208210811415613ee057613edf613fef565b5b50919050565b613eef8261404d565b810181811067ffffffffffffffff82111715613f0e57613f0d61401e565b5b80604052505050565b6000613f2282613e68565b91507fffffffffffffffffffffffffffffffffffffffffffffffffffffffffffffffff821415613f5557613f54613f91565b5b600182019050919050565b6000613f6b82613e68565b9150613f7683613e68565b925082613f8657613f85613fc0565b5b828206905092915050565b7f4e487b7100000000000000000000000000000000000000000000000000000000600052601160045260246000fd5b7f4e487b7100000000000000000000000000000000000000000000000000000000600052601260045260246000fd5b7f4e487b7100000000000000000000000000000000000000000000000000000000600052602260045260246000fd5b7f4e487b7100000000000000000000000000000000000000000000000000000000600052604160045260246000fd5b6000601f19601f8301169050919050565b7f5061757361626c653a206e6f7420706175736564000000000000000000000000600082015250565b7f455243373231456e756d657261626c653a206f776e657220696e646578206f7560008201527f74206f6620626f756e6473000000000000000000000000000000000000000000602082015250565b7f4552433732313a207472616e7366657220746f206e6f6e20455243373231526560008201527f63656976657220696d706c656d656e7465720000000000000000000000000000602082015250565b7f4f776e61626c653a206e6577206f776e657220697320746865207a65726f206160008201527f6464726573730000000000000000000000000000000000000000000000000000602082015250565b7f4552433732313a207472616e736665722066726f6d20696e636f72726563742060008201527f6f776e6572000000000000000000000000000000000000000000000000000000602082015250565b7f4552433732313a20746f6b656e20616c7265616479206d696e74656400000000600082015250565b7f4552433732313a207472616e7366657220746f20746865207a65726f2061646460008201527f7265737300000000000000000000000000000000000000000000000000000000602082015250565b7f4552433732313a20617070726f766520746f2063616c6c657200000000000000600082015250565b7f4d696e7461626c65206e66747320686176652072656163686564206d6178696d60008201527f756d20737570706c790000000000000000000000000000000000000000000000602082015250565b7f5061757361626c653a2070617573656400000000000000000000000000000000600082015250565b7f4552433732313a2061646472657373207a65726f206973206e6f74206120766160008201527f6c6964206f776e65720000000000000000000000000000000000000000000000602082015250565b7f45524337323155524953746f726167653a2055524920736574206f66206e6f6e60008201527f6578697374656e7420746f6b656e000000000000000000000000000000000000602082015250565b7f4552433732313a20617070726f76652063616c6c6572206973206e6f7420746f60008201527f6b656e206f776e6572206e6f7220617070726f76656420666f7220616c6c0000602082015250565b7f4552433732313a206d696e7420746f20746865207a65726f2061646472657373600082015250565b7f4f776e61626c653a2063616c6c6572206973206e6f7420746865206f776e6572600082015250565b7f4552433732313a20696e76616c696420746f6b656e2049440000000000000000600082015250565b7f4552433732313a20617070726f76616c20746f2063757272656e74206f776e6560008201527f7200000000000000000000000000000000000000000000000000000000000000602082015250565b7f455243373231456e756d657261626c653a20676c6f62616c20696e646578206f60008201527f7574206f6620626f756e64730000000000000000000000000000000000000000602082015250565b7f596f7520617265206e6f7420746865206f776e6572206f66207468697320746f60008201527f6b656e0000000000000000000000000000000000000000000000000000000000602082015250565b7f4e6577206d6178696d756d20737570706c79206d75737420626520677265617460008201527f6572207468616e207468652070726576696f7573206f6e650000000000000000602082015250565b7f4552433732313a2063616c6c6572206973206e6f7420746f6b656e206f776e6560008201527f72206e6f7220617070726f766564000000000000000000000000000000000000602082015250565b6145d881613dfe565b81146145e357600080fd5b50565b6145ef81613e10565b81146145fa57600080fd5b50565b61460681613e1c565b811461461157600080fd5b50565b61461d81613e68565b811461462857600080fd5b5056fe416e204e465420772f20494420257320686173206265656e206d696e74656420746f202573a26469706673582212206583a08948080aae66219624d2a1a8916df3257aef011d8bd600df921f8baa9964736f6c63430008010033516d57716b76316938526364687575717768696577724c77677273426d6d336d36746a646e623362446f58756863516d5847657a55316a5242507453766e79473344317750704c687674443179595364576f487a5369456338763550516d63686844337a696d6d6572774a4d7a71655a45784357615463774b7a46706e674c33646b6170624b53646857",
  "linkReferences": {},
  "deployedLinkReferences": {}
}